:100000000C945E000C9457090C9430090C948600F3
:100010000C9486000C94D6090C9486000C948600EF
:100020000C9486000C9486000C9486000C94860038
:100030000C9486000C9486000C9486000C94860028
:100040000C94E6080C9486000C94A4090C947E0988
:100050000C9486000C9486000C9486000C94860008
:100060000C9486000C9486000000000024002700F9
:100070002A0000000000250028002B0004040404CE
:100080000404040402020202020203030303030342
:10009000010204081020408001020408102001021F
:1000A00004081020000000080002010000030407FB
:1000B00000000000000000003C0A680C11241FBE74
:1000C000CFEFD8E0DEBFCDBF12E0A0E0B1E0EEE2BE
:1000D000FFE102C005900D92AE34B107D9F724E0DC
:1000E000AEE4B2E001C01D92A730B207E1F710E024
:1000F000CDE5D0E004C02197FE010E947E0DCC35F5
:10010000D107C9F70E94B90A0C948A0F0C94000019
:1001100090E0FC01EC55FF4F2491FC01E057FF4FAC
:100120003491FC01E458FF4FE491EE23C9F02223FF
:1001300039F0233001F1A8F4213019F1223029F1EE
:10014000F0E0EE0FFF1FEE58FF4FA591B4918FB76F
:10015000F894EC91611126C030953E233C938FBFFB
:1001600008952730A9F02830C9F0243049F780914C
:1001700080008F7D03C0809180008F778093800006
:10018000DFCF84B58F7784BDDBCF84B58F7DFBCF88
:100190008091B0008F778093B000D2CF8091B00073
:1001A0008F7DF9CF3E2BDACFCF93DF9390E0FC0128
:1001B000E057FF4F249184589F4FFC01849188237E
:1001C000D1F090E0880F991FFC01E859FF4FA591ED
:1001D000B491FC01EE58FF4FC591D49161110EC04E
:1001E0009FB7F8948C91E22FE0958E238C93288111
:1001F000E223E8839FBFDF91CF9108958FB7F894F2
:10020000EC91E22BEC938FBFF6CF1F93CF93DF934C
:10021000182FEB0161E00E94D400209739F460E0D0
:10022000812FDF91CF911F910C948800E12FF0E096
:10023000EC55FF4FE491E33039F148F4E130B9F087
:10024000E230E9F0C038D10551F761E0E9CFE7309D
:1002500029F1E83059F1E430A9F7809180008062FB
:1002600080938000D0938B00C0938A0004C084B533
:10027000806884BDC7BDDF91CF911F91089584B57B
:10028000806284BDC8BDF7CF809180008068809374
:100290008000D0938900C0938800EDCF8091B0009A
:1002A00080688093B000C093B300E5CF8091B00028
:1002B00080628093B000C093B400DDCF2FB7F89474
:1002C000609164027091650280916602909167026C
:1002D0002FBF089581E080935802089581E08093B4
:1002E0005502089581E08093540208950895089579
:1002F000AF92BF92CF92DF92EF92FF920F931F9334
:10030000CF93DF936C017B018B01040F151FEB0171
:100310005E01AE18BF08C017D10759F06991D60128
:10032000ED91FC910190F081E02DC6010995892B9A
:1003300079F7C501DF91CF911F910F91FF90EF9059
:10034000DF90CF90BF90AF900895FC01538D448D06
:10035000252F30E0842F90E0821B930B541710F070
:10036000CF96089501970895FC01918D828D98177D
:1003700061F0A28DAE0FBF2FB11D5D968C91928D55
:100380009F5F9F73928F90E008958FEF9FEF089586
:100390000F931F930E945E0160937002709371022D
:1003A000809372029093730288E692E00E94B401F7
:1003B00097FF1DC00E945E010091700210917102B2
:1003C0002091720230917302601B710B820B930BB0
:1003D00000916C0210916D0220916E0230916F02BB
:1003E0006017710782079307F8F28FEF9FEF1F9155
:1003F0000F910895FC01918D828D981731F0828DB7
:10040000E80FF11D858D90E008958FEF9FEF08951F
:10041000FC01918D228D892F90E0805C9F4F821B83
:1004200091098F739927089588E692E00E94080247
:1004300021E0892B09F420E0822F089580E090E0EC
:10044000892B29F00E94140281110C940000089558
:10045000FC01A48DA80FB92FB11DA35ABF4F2C9139
:10046000848D90E001968F739927848FA689B78930
:100470002C93A089B1898C91837080648C93938D27
:10048000848D981306C00288F389E02D80818F7DCA
:1004900080830895EF92FF920F931F93CF93DF9382
:1004A000EC0181E0888F9B8D8C8D98131AC0E889B0
:1004B000F989808185FF15C09FB7F894EE89FF897F
:1004C0006083E889F98980818370806480839FBF1D
:1004D00081E090E0DF91CF911F910F91FF90EF901D
:1004E0000895F62E0B8D10E00F5F1F4F0F7311272D
:1004F000E02E8C8D8E110CC00FB607FCFACFE88968
:10050000F989808185FFF5CFCE010E942802F1CFC5
:10051000EB8DEC0FFD2FF11DE35AFF4FF0829FB7DB
:10052000F8940B8FEA89FB8980818062CFCFCF93CB
:10053000DF93EC01888D8823B9F0AA89BB89E8890B
:10054000F9898C9185FD03C0808186FD0DC00FB6B1
:1005500007FCF7CF8C9185FFF2CF808185FFEDCF2F
:10056000CE010E942802E9CFDF91CF910895CF926A
:10057000DF92EF92FF920F931F93CF93DF936B0164
:100580007A0100910201109103019C01029FC001B8
:10059000039F900D129F900D1124CFEFD0E0BE016C
:1005A0000E944F0D89E00E9405010C9DC0010D9D28
:1005B000900D1C9D900D1124BE010E944F0D8AE0EC
:1005C0000E9405010E9DC0010F9D900D1E9D900D76
:1005D0001124BE010E944F0D8BE0DF91CF911F913E
:1005E0000F91FF90EF90DF90CF900C94050150E0B9
:1005F00040E070E060E08FEF90E00C94B702CF93A2
:10060000C09151024FEF50E06FEF70E08FEF90E03C
:10061000C11106C050E040E070E060E090E080E092
:100620000E94B70281E0C827C0935102CF9108957C
:10063000EF92FF921F93CF93DF93EC018A819A810F
:100640009E7F9A839A819D7F9A83182F117080FFD5
:1006500013C0EF8DF8A1309779F0ADA1BEA114962B
:10066000ED90FC9015971596DC93CE931497099511
:10067000EDA1FEA1F582E482812FDF91CF911F9140
:10068000FF90EF900895CF93DF93EC014B835C8351
:100690006D837E838B819C81AD81BE818F839887A2
:1006A000A987BA870E945E016B877C878D879E87AA
:1006B000DF91CF9108950F931F93CF93DF93FC01A8
:1006C000A5A1B6A1109709F448C0EC01178A108EB5
:1006D000118E128E82818B7F8283058CF68DE02DA8
:1006E0003097B9F18A8181FD34C014960D911C9127
:1006F00015971596DC93CE9314978A8182608A832E
:1007000009959A8180FB90F99A838A818D7F8A83EB
:10071000EDA1FEA1158304838B819C81AD81BE81F7
:100720008F839887A987BA870E945E010F811885F9
:1007300029853A85601B710B820B930B6B877C8735
:100740008D879E878A818170DF91CF911F910F9154
:1007500008958A8181608A83DFCF80E0F5CF0F938F
:10076000CF93DF93EC018EE291E0998388838A81B5
:100770008E7F8A838A818D7F8A838A818B7F8A8319
:100780001B861C861D861E861B821C821D821E8265
:100790001F82188619861A861AA219A21CA21BA2E9
:1007A0001EA21DA21F8A188E198E1A8E3C8F2B8FA7
:1007B0001E8E1D8E18A21F8ECE010E9443038FEF46
:1007C0009FEFDC018F87988BA98BBA8B8B8B9C8BCF
:1007D000AD8BBE8B8DA19EA1892BD9F41092F6030F
:1007E0008FEE93E09EA38DA38091EF039091F00391
:1007F000892BB9F4D093F003C093EF031AA219A286
:100800001CA21BA2D093F203C093F10381E080935A
:10081000F603002379F0CE01DF91CF910F910C9474
:100820005B03E091F103F091F203FAA3E9A3D4A3EF
:10083000C3A3E6CFDF91CF910F910895CF93DF93BC
:10084000EC018EE291E0998388838A8180FF03C066
:10085000CE010E941803EDA1FEA1309789F0178206
:100860001EA21DA2A9A1BAA18BA19CA1109799F4C7
:10087000009749F4118210821382128281E08783EB
:10088000DF91CF910895DC0192961C921E92919770
:1008900091838083F3CF009739F494961C921E9233
:1008A0009397B383A283EACF94969C938E93939766
:1008B0000BA0DCA1C02DBAA3A9A3E0CFFC0101903D
:1008C0000020E9F73197AF01481B590BBC0188E6BE
:1008D00092E00C9478018F929F92AF92BF920F9307
:1008E0001F93CF93DF93CDB7DEB7A1970FB6F894E0
:1008F000DEBF0FBECDBF19A2423008F44AE08E0120
:100900000F5D1F4F842E912CB12CA12CA5019401B9
:100910000E941E0DE62FB901CA01EA30F4F4E05D31
:10092000D801EE938D01232B242B252B79F790E012
:1009300080E0109719F0CD010E945E04A1960FB6D9
:10094000F894DEBF0FBECDBFDF91CF911F910F9105
:10095000BF90AF909F908F900895E95CE1CFCF93C7
:10096000DF934AE00E946B04EC0184E491E00E9472
:100970005E048C0F9D1FDF91CF910895CF93DF937D
:100980000E945E04EC0184E491E00E945E048C0FFE
:100990009D1FDF91CF910895CF93DF9380915202F5
:1009A000909153028230910509F465C044F4009798
:1009B00029F1019709F442C0DF91CF910895833066
:1009C000910509F475C00497B9F750E040E06FEF66
:1009D00070E090E080E00E94B702409108015091E1
:1009E000090160910A0170910B0188EC93E00E946B
:1009F000430310925302109252023AC050E040E07A
:100A000070E060E08FEF90E00E94B702409120011B
:100A100050912101609122017091230188EC93E0B3
:100A20000E94430381E090E090935302809352022E
:100A300086E691E0DF91CF910C94BE0450E040E057
:100A40006FEF70E090E080E00E94B70240910801F3
:100A50005091090160910A0170910B0188EC93E0BB
:100A60000E94430382E090E09093530280935202ED
:100A70008AE691E0DFCF4FEF50E070E060E090E079
:100A800080E00E94B70240910401509105016091FD
:100A900006017091070188EC93E00E94430383E014
:100AA00090E0909353028093520281E791E0C2CF8D
:100AB00080915002882349F14FEF50E070E060E0F0
:100AC00090E080E00E94B7021092500280914E02A6
:100AD00090914F02049754F010924F0210924E02E0
:100AE00084E090E0909353028093520246EA50E0F3
:100AF00060E070E088EC93E00E9443038091500234
:100B00008823C1F087E491E095CFC0914E02D09147
:100B10004F0250E040E070E060E090E080E00E9432
:100B2000B70281E0809350022196D0934F02C09388
:100B30004E02CCCF87E591E07DCFCF93DF93EC01E0
:100B400088EC93E00E94180381EA93E00E94180366
:100B50008AE793E00E941803C230D10501F1C33047
:100B6000D10521F1C130D10599F0109253021092B4
:100B7000520288EC93E00E945B0387E791E00E94B9
:100B8000BE04D0935702C0935602DF91CF910895CF
:100B900081EA93E00E945B0383E891E0F0CF8AE76B
:100BA00093E00E945B0382E991E0E9CF50E040E0EE
:100BB00070E060E090E080E00E94B70280EA91E09F
:100BC000DECF80915802882381F080915602909167
:100BD0005702019799F590E080E00E949D0589EA0F
:100BE00091E00E94BE041092580280915502882321
:100BF00081F08091560290915702029711F590E092
:100C000080E00E949D0582EC91E00E94BE0410925B
:100C1000550280915402882381F080915602909170
:100C20005702039789F490E080E00E949D058AEDC9
:100C300091E00E94BE0410925402089581E090E079
:100C4000CCCF82E090E0DDCF83E090E0EECFCF929A
:100C5000DF92EF92FF9280E480937C0080917A0093
:100C6000806480937A0080917A0086FDFCCFA09109
:100C70007800B091790025EF30E00E94630D2FEFEE
:100C800033E040E050E00E94C80CBA01A901465F81
:100C90005F4F6F4F7F4F509303014093020180914C
:100CA0000001909101018417950761F180EF91E0B7
:100CB0000E945E04C0900201D09003010D2C000C34
:100CC000EE08FF084AE0C701B601F7FE0DC06DE26D
:100CD00088E692E00E944A0266277727CB016C19CA
:100CE0007D098E099F094AE00E946B0484E491E02B
:100CF0000E945E0480910201909103019093010192
:100D000080930001FF90EF90DF90CF900895FC0159
:100D100024813581232B39F421E0FB018081882354
:100D200049F020E007C0808191810E947A0F21E084
:100D3000892BB9F7822F08950F931F93CF93DF93D9
:100D4000EC0188819981009759F02A813B8126170F
:100D5000370730F081E0DF91CF911F910F91089517
:100D60008B016F5F7F4F0E94A90E009759F0998306
:100D700088831B830A832C813D81232B59F7FC0137
:100D80001082E8CF80E0E7CFCF93DF93EC0188813A
:100D90009981009711F00E94200E198218821D82FD
:100DA0001C821B821A82DF91CF910895CF93DF932B
:100DB000EC0170E060E00E949C06811105C0CE014C
:100DC000DF91CF910C94C4061D821C8266E471E011
:100DD00088819981DF91CF910C94830F9F92AF927C
:100DE000BF92CF92DF92EF92FF920F931F93CF9318
:100DF000DF93EC016B015A0179012417350720F4C8
:100E00008B2D5901E42EF82E198218821B821A822A
:100E10001D821C82CE010E94D606D60114960D9129
:100E20001C91A016B10658F5E016F10608F48701EA
:100E3000D601ED91FC911197E00FF11F9080108287
:100E4000ED90FC90EA0CFB1CE114F10471F0F70149
:100E500001900020E9F731975F01AE18BF08B50196
:100E6000CE010E949C06811117C0CE010E94C406CB
:100E7000F60180819181080F191FD8019C92CE0143
:100E8000DF91CF911F910F91FF90EF90DF90CF9066
:100E9000BF90AF909F900895BD82AC82B7018881CA
:100EA00099810E94830FE4CFFC018081918100979A
:100EB00011F00C94200E0895CF93DF93EC010E9463
:100EC0001E04CE01DF91CF910C94200EAF92BF9201
:100ED000CF92DF92EF92FF920F931F93CF93DF9306
:100EE000CDB7DEB762970FB6F894DEBF0FBECDBFA9
:100EF00088E692E00E940802181619060CF094C0C9
:100F00001E861D86188A1F861A8A198ACE010D969A
:100F10000E94D6060E94C80109891A8997FD1CC043
:100F20008A309105C9F089831A820F5F1F4FB8017B
:100F3000CE010D960E949C06882361F32D853E8587
:100F400089899A89BE016F5F7F4F820F931F0E942C
:100F5000830F1A8B098BDECFCD84DE84C114D104BC
:100F600029F076010115110509F070C089899A8967
:100F7000892B09F455C00D851E856AE370E0C80110
:100F80000E946F0F009709F44BC09C01201B310B8E
:100F90008901121613060CF043C050E040E0BE0178
:100FA000635F7F4FCE0107960E94EE0629893A893A
:100FB000A8014F5F5F4FBE01635F7F4FCE01019677
:100FC0000E94EE0666E671E0CE0107960E94870653
:100FD000882309F475C089819A81009709F46CC04F
:100FE0000E94800C60932001709321018093220164
:100FF000909323018DEF91E00E945E0460912001A7
:101000007091210180912201909123010E94AF04EF
:10101000CE0101960E945407CE0107960E94540704
:10102000CE010D960E94540762960FB6F894DEBF6B
:101030000FBECDBFDF91CF911F910F91FF90EF9029
:10104000DF90CF90BF90AF900895750157012FEFBB
:10105000A21AB20AF7018081082E000C990B0E9497
:10106000BC0C892B91F7015011090C0D1D1DF801C5
:101070008081082E000C990B0E94BC0C892B31F04A
:101080000E151F0518F001501109F1CFA8014F5F8F
:101090005F4F4E195F095A8B498BCE14DF0420F441
:1010A000B701C6010E94660FED85FE8589899A8980
:1010B000E80FF91F10825ACF60E070E0CB0192CFA9
:1010C0006AE671E0CE0107960E9487068823F9F050
:1010D00089819A810097B9F00E94800C6093080181
:1010E0007093090180930A0190930B018BE092E0C9
:1010F0000E945E04609108017091090180910A01CB
:1011000090910B0183CF60E070E0CB01E7CF61E706
:1011100071E0CE0107960E9487068823F9F0898145
:101120009A810097B9F00E94800C6093040170933B
:10113000050180930601909307018CE192E00E94E3
:101140005E04609104017091050180910601909107
:1011500007015CCF60E070E0CB01E7CF6CE272E0AA
:10116000CE0107960E948706882309F451CF6CE7C9
:1011700071E0CE0101960E948706882329F090E055
:1011800080E00E949D0544CF68E871E0CE010196A1
:101190000E948706882319F081E090E0F2CF67E98A
:1011A00071E0CE0101960E948706882319F082E043
:1011B00090E0E7CF65EA71E0CE0101960E948706D4
:1011C000882309F425CF83E090E0DBCF1F920F92B4
:1011D0000FB60F9211242F933F938F939F93AF934A
:1011E000BF938091640290916502A0916602B091D4
:1011F00067023091630223E0230F2D3758F50196E3
:10120000A11DB11D20936302809364029093650237
:10121000A0936602B093670280915F029091600292
:10122000A0916102B09162020196A11DB11D80934F
:101230005F0290936002A0936102B0936202BF913B
:10124000AF919F918F913F912F910F900FBE0F9073
:101250001F90189526E8230F0296A11DB11DD2CF2D
:101260001F920F920FB60F9211242F933F934F931B
:101270005F936F937F938F939F93AF93BF93EF93FE
:10128000FF93E0911C01F0911D010995FF91EF91F1
:10129000BF91AF919F918F917F916F915F914F918E
:1012A0003F912F910F900FBE0F901F9018951F9296
:1012B0000F920FB60F9211242F933F934F935F938A
:1012C0006F937F938F939F93AF93BF93EF93FF930E
:1012D000E0911A01F0911B010995FF91EF91BF91E7
:1012E000AF919F918F917F916F915F914F913F91BE
:1012F0002F910F900FBE0F901F9018951F920F9275
:101300000FB60F9211242F933F934F935F936F93D8
:101310007F938F939F93AF93BF93EF93FF9388E651
:1013200092E00E942802FF91EF91BF91AF919F91AF
:101330008F917F916F915F914F913F912F910F907E
:101340000FBE0F901F9018951F920F920FB60F921D
:1013500011242F938F939F93EF93FF93E091780243
:10136000F09179028081E0917E02F0917F0282FD0E
:101370001BC09081809181028F5F8F7320918202C8
:10138000821741F0E0918102F0E0E859FD4F958F1E
:1013900080938102FF91EF919F918F912F910F90F8
:1013A0000FBE0F901F9018958081F4CF1F920F925F
:1013B0000FB60F9211242F933F934F935F936F9328
:1013C0007F938F939F93AF93BF93CF93EF93FF93AD
:1013D00099B1C0915B02C09580915E028923C823B8
:1013E00090935B02C4FF05C0E0911E01F0911F01C4
:1013F0000995C5FF05C0E0910C01F0910D0109951B
:10140000C6FF05C0E0910E01F0910F010995C7FFDD
:1014100005C0E0911001F09111010995C0FF05C0D0
:10142000E0911201F09113010995C1FF05C0E0910F
:101430001401F09115010995C2FF05C0E091160154
:10144000F09117010995C3FF05C0E0911801F091D3
:1014500019010995FF91EF91CF91BF91AF919F91A4
:101460008F917F916F915F914F913F912F910F904D
:101470000FBE0F901F9018950F93E8E6F2E01382CD
:10148000128288EE93E0A0E0B0E084839583A68387
:10149000B78386E391E09183808385EC90E0958724
:1014A000848784EC90E09787868780EC90E0918B2E
:1014B000808B81EC90E0938B828B82EC90E0958B1B
:1014C000848B86EC90E0978B868B118E128E138E18
:1014D000148EEFEEF3E017821182108213821282D3
:1014E00015821482168281E08783409120015091F9
:1014F0002101609122017091230100E02CEC34E085
:1015000088EC93E00E94AF0327EF32E044E650E01E
:1015100060E070E081EA93E00E94AF032FEF32E0D9
:1015200044EF51E060E070E08AE793E00E94AF038F
:1015300001E021EE35E044E650E060E070E083E554
:1015400093E00E94AF0327E236E044E650E060E01B
:1015500070E08CE293E00E94AF0326E637E042E3BE
:1015600050E060E070E085E093E00E94AF030F91EF
:101570000895789484B5826084BD84B5816084BD0B
:1015800085B5826085BD85B5816085BD80916E0021
:10159000816080936E001092810080918100826052
:1015A000809381008091810081608093810080918F
:1015B00080008160809380008091B100846080937E
:1015C000B1008091B00081608093B00080917A007A
:1015D000846080937A0080917A00826080937A00A0
:1015E00080917A00816080937A0080917A0080688F
:1015F00080937A001092C10061E089E00E94D400DB
:1016000061E08AE00E94D40061E08BE00E94D40097
:1016100060E083E00E94D40060E082E00E94D40099
:1016200060E084E00E94D40060E08EE00E94D4007C
:101630008AE691E090931D0180931C0180916900DE
:101640008C6080936900E99A8EE691E090931B018B
:1016500080931A0180916900836080936900E89A01
:1016600082E791E090931F0180931E0180915E02BA
:10167000806180935E0289B180935B0280916D00EE
:10168000806180936D008091680084608093680021
:10169000E0917802F091790282E08083E091740217
:1016A000F09175021082E0917602F09177028FEC52
:1016B000808310928002E0917C02F0917D0286E0AE
:1016C0008083E0917A02F0917B0280818061808347
:1016D000E0917A02F0917B02808188608083E091C2
:1016E0007A02F0917B02808180688083E0917A02A7
:1016F000F0917B0280818F7D808381E392E00E9464
:10170000BE0490E080E00E949D05C0E0D0E08091A2
:10171000EF039091F0039093F4038093F3031092FE
:10172000F7031092F8031092F9031092FA03109243
:10173000FB031092FC031092FD031092FE03109223
:10174000FF03109200041092010410920204809191
:10175000F603882309F4B1C08091F5038111ADC06F
:10176000E091F303F091F403309709F4A6C080915F
:10177000FB039091FC03A091FD03B091FE03019641
:10178000A11DB11D8093FB039093FC03A093FD0367
:10179000B093FE0303A114A1828180FF1EC080913B
:1017A000F7039091F803A091F903B091FA03019621
:1017B000A11DB11D8093F7039093F803A093F90343
:1017C000B093FA0387859089A189B289892B8A2BE6
:1017D0008B2B41F4CF010E9418031093F403009364
:1017E000F303BACF0E945E01E091F303F091F4039A
:1017F000438054806580768083849484A584B684F5
:10180000C780D084E184F284DC01CB018819990976
:10181000AA09BB098C159D05AE05BF05F0F28785A9
:101820009089A189B289181619061A061B065CF45C
:1018300087859089A189B2890197A109B109878714
:10184000908BA18BB28B8789908DA18DB28D0196E3
:10185000A11DB11D878B908FA18FB28F8385948539
:10186000A585B685C780D084E184F2848C0D9D1D4A
:10187000AE1DBF1D83879487A587B6874782508694
:1018800061867286038CF48DE02D309709F4A5CF24
:1018900009958091FF0390910004A0910104B091FB
:1018A00002040196A11DB11D8093FF0390930004D3
:1018B000A0930104B093020490CF209709F427CF9E
:1018C0000E941402882309F422CF0E9400001FCF37
:1018D00085E093E00E941E048CE293E00E941E04C7
:1018E00083E593E00E941E048AE793E00E941E04B1
:1018F00081EA93E00E941E0488EC93E00C941E049D
:101900001F93FC0199278827BC01E894119110329C
:10191000E9F3193010F01E30C8F31B3251F01D32BC
:1019200049F4689406C00E94A70C610F711D811DC7
:10193000911D119110531A30B0F33EF4909580959B
:10194000709561957F4F8F4F9F4F1F910895592F2D
:10195000482F372F262F660F771F881F991F660F76
:10196000771F881F991F620F731F841F951F660FB3
:10197000771F881F991F089591110C94C50C803210
:1019800019F089508550C8F7089599278827089538
:10199000052E97FB1EF400940E94DF0C57FD07D024
:1019A0000E941E0D07FC03D04EF40C94DF0C5095E2
:1019B0004095309521953F4F4F4F5F4F089590953B
:1019C0008095709561957F4F8F4F9F4F08952F920F
:1019D0003F924F925F926F927F928F929F92AF92BF
:1019E000BF92CF92DF92EF92FF920F931F93CF930C
:1019F000DF93CDB7DEB7CA1BDB0B0FB6F894DEBFA3
:101A00000FBECDBF09942A88398848885F846E84C8
:101A10007D848C849B84AA84B984C884DF80EE8012
:101A2000FD800C811B81AA81B981CE0FD11D0FB61B
:101A3000F894DEBF0FBECDBFED010895A1E21A2ECE
:101A4000AA1BBB1BFD010DC0AA1FBB1FEE1FFF1F62
:101A5000A217B307E407F50720F0A21BB30BE40BB2
:101A6000F50B661F771F881F991F1A9469F76095F9
:101A70007095809590959B01AC01BD01CF010895B3
:101A8000A29FB001B39FC001A39F700D811D1124BF
:101A9000911DB29F700D811D1124911D089597FB1A
:101AA000072E16F4009407D077FD09D00E946A0D26
:101AB00007FC05D03EF4909581959F4F0895709551
:101AC00061957F4F08950E94400DB7FF0895821BD6
:101AD000930B0895AA1BBB1B51E107C0AA1FBB1F94
:101AE000A617B70710F0A61BB70B881F991F5A95AA
:101AF000A9F780959095BC01CD010895EE0FFF1FC9
:101B00000590F491E02D09940F931F93CF93DF93E9
:101B10008230910510F482E090E0E0910504F091AC
:101B2000060430E020E0B0E0A0E0309799F4211501
:101B3000310509F44AC0281B390B24303105D8F58A
:101B40008A819B816115710589F1FB0193838283F1
:101B5000FE0111C04081518102811381481759074C
:101B6000E0F04817590799F4109761F012960C931A
:101B7000129713961C933296CF01DF91CF911F914C
:101B80000F9108950093050410930604F4CF2115D6
:101B9000310551F04217530738F0A901DB019A01D2
:101BA000BD01DF01F801C1CFEF01F9CF9093060429
:101BB00080930504CDCFFE01E20FF31F8193919333
:101BC0002250310939832883D7CF209103043091E3
:101BD0000404232B41F420912601309127013093F6
:101BE0000404209303042091240130912501211540
:101BF000310541F42DB73EB740912801509129019C
:101C0000241B350BE0910304F0910404E217F30761
:101C1000A0F42E1B3F0B2817390778F0AC014E5F5C
:101C20005F4F2417350748F04E0F5F1F5093040491
:101C300040930304819391939FCFF0E0E0E09CCF29
:101C4000CF93DF930097E9F0FC0132971382128261
:101C5000A0910504B0910604ED0130E020E010975A
:101C6000A1F420813181820F931F209103043091D0
:101C700004042817390709F061C0F0930404E093C5
:101C80000304DF91CF910895EA01CE17DF07E8F54D
:101C90004A815B819E0141155105B1F7E901FB8342
:101CA000EA8349915991C40FD51FEC17FD0761F4E0
:101CB000808191810296840F951FE9019983888321
:101CC000828193819B838A83F0E0E0E012968D917C
:101CD0009C9113970097B9F52D913C911197CD01E7
:101CE0000296820F931F2091030430910404281759
:101CF000390739F6309751F5109206041092050411
:101D0000B0930404A0930304BCCFD383C283408167
:101D10005181840F951FC817D90761F44E5F5F4F3B
:101D200088819981480F591F518340838A819B8103
:101D3000938382832115310509F0B0CFF093060417
:101D4000E09305049ECFFD01DC01C0CF1382128217
:101D5000D7CFB0E0A0E0EFEAFEE00C94E90C8C01F4
:101D6000009751F4CB010E94840D8C01C801CDB7BE
:101D7000DEB7E0E10C94050DFC01E60FF71F9C01B6
:101D800022503109E217F30708F49DC0D901CD9123
:101D9000DC911197C617D70798F0C530D10530F3FD
:101DA000CE0104978617970708F3C61BD70B229717
:101DB000C193D1936D937C93CF010E94200ED6CF17
:101DC0005B01AC1ABD0A4C018C0E9D1EA09105044E
:101DD000B0910604512C412CF12CE12C109731F5D7
:101DE00080910304909104048815990509F05CC062
:101DF0004616570608F058C080912401909125019D
:101E0000009741F48DB79EB7409128015091290168
:101E1000841B950BE817F90708F055C0F0930404EC
:101E2000E0930304F90171836083A0CF8D919C91AD
:101E3000119712966C90129713967C901397A81591
:101E4000B90559F56C0142E0C40ED11CCA14DB047B
:101E500020F1AC014A195B09DA011296159780F05E
:101E60006282738251834083D9016D937C93E11424
:101E7000F10471F0D7011396FC93EE93129776CF8D
:101E800022968C0F9D1FF90191838083F301EFCF80
:101E9000F0930604E093050469CF4816590608F448
:101EA0002C017D01D3019ACFCB010E94840D7C01CE
:101EB000009749F0AE01B8010E94660FC8010E9468
:101EC000200E870153CF10E000E050CFFB01DC0172
:101ED00002C001900D9241505040D8F70895FC0186
:101EE0008191861721F08823D9F799270895319792
:101EF000CF010895FB01DC018D9101908019011043
:101F0000D9F3990B0895FB01DC0101900D9200209B
:101F1000E1F7089510E0CDE5D0E004C0FE010E9495
:0E1F20007E0D2196CE35D107C9F7F894FFCF7C
:101F2E00FFFFFF00D0070000F401000076017601EC
:101F3E0076017601760176017601770177017601D9
:101F4E00D0070000000007048000000000001E04FF
:101F5E005C07000000004A027801A5019702080202
:101F6E00B401FA010D0A00475245454E5F424C49F5
:101F7E004E4B5F4F464600475245454E5F424C49D9
:101F8E004E4B5F4F4E005245440059454C4C4F57F7
:101F9E0000475245454E004D4F44453A4E4F524D27
:101FAE00414C004D4F44453A454D455247454E43F1
:101FBE0059004D4F44453A424C494E4B494E47000D
:101FCE004D4F44453A4F464600456D657267656E06
:101FDE00637920627574746F6E20707265737365A9
:101FEE006400426C696E6B696E6720627574746F03
:101FFE006E207072657373656400546F67676C65ED
:10200E0020627574746F6E207072657373656400F0
:10201E004272696768746E6573733A200052454464
:10202E005F4455524154494F4E3A0059454C4C4F1E
:10203E00575F4455524154494F4E3A004752454519
:10204E004E5F4455524154494F4E3A004D4F444510
:10205E000054726166666963204C69676874205328
:0E206E00797374656D2053746172746564003B
:00000001FF
