:100000000C945E000C948F090C9468090C94860083
:100010000C9486000C940E0A0C9486000C948600B6
:100020000C9486000C9486000C9486000C94860038
:100030000C9486000C9486000C9486000C94860028
:100040000C941E090C9486000C94DC090C94B609DF
:100050000C9486000C9486000C9486000C94860008
:100060000C9486000C9486000000000024002700F9
:100070002A0000000000250028002B0004040404CE
:100080000404040402020202020203030303030342
:10009000010204081020408001020408102001021F
:1000A00004081020000000080002010000030407FB
:1000B0000000000000000000740AA00C11241FBE04
:1000C000CFEFD8E0DEBFCDBF12E0A0E0B1E0EEE9B7
:1000D000FFE102C005900D92AA33B107D9F723E0E2
:1000E000AAE3B2E001C01D92AB3FB207E1F710E016
:1000F000CDE5D0E004C02197FE010E94B60DCC35BD
:10010000D107C9F70E94F10A0C94C20F0C940000A9
:1001100090E0FC01EC55FF4F2491FC01E057FF4FAC
:100120003491FC01E458FF4FE491EE23C9F02223FF
:1001300039F0233001F1A8F4213019F1223029F1EE
:10014000F0E0EE0FFF1FEE58FF4FA591B4918FB76F
:10015000F894EC91611126C030953E233C938FBFFB
:1001600008952730A9F02830C9F0243049F780914C
:1001700080008F7D03C0809180008F778093800006
:10018000DFCF84B58F7784BDDBCF84B58F7DFBCF88
:100190008091B0008F778093B000D2CF8091B00073
:1001A0008F7DF9CF3E2BDACFCF93DF9390E0FC0128
:1001B000E057FF4F249184589F4FFC01849188237E
:1001C000C9F090E0880F991FFC01E859FF4FA591F5
:1001D000B491FC01EE58FF4FC591D49161110DC04F
:1001E0009FB7F8948C91209582238C938881282343
:1001F00028839FBFDF91CF910895623051F49FB75C
:10020000F8943C91822F809583238C93E8812E2B48
:10021000EFCF8FB7F894EC912E2B2C938FBFEACFB2
:100220001F93CF93DF93182FEB0161E00E94D4005E
:10023000209739F460E0812FDF91CF911F910C94CA
:100240008800E12FF0E0EC55FF4FE491E33039F105
:1002500048F4E130B9F0E230E9F0C038D10551F7A7
:1002600061E0E9CFE73029F1E83059F1E430A9F74E
:1002700080918000806280938000D0938B00C09337
:100280008A0004C084B5806884BDC7BDDF91CF916A
:100290001F91089584B5806284BDC8BDF7CF809159
:1002A0008000806880938000D0938900C09388008C
:1002B000EDCF8091B00080688093B000C093B30010
:1002C000E5CF8091B00080628093B000C093B4000D
:1002D000DDCF0F931F93CF93DF9300914B021091CB
:1002E0004C022091420230914302029FC001039FC1
:1002F000900D129F900D1124CFEFD0E0BE010E940F
:10030000870D89E00E941001209140023091410246
:10031000029FC001039F900D129F900D1124BE01FA
:100320000E94870D8AE00E94100120913E023091C8
:100330003F02029FC001039F900D129F900D112458
:10034000BE010E94870D8BE0DF91CF911F910F912D
:100350000C9410012FB7F8946091580270915902D3
:1003600080915A0290915B022FBF089581E08093A3
:100370004A02089581E080934702089581E08093C6
:100380004602089508950895AF92BF92CF92DF92EA
:10039000EF92FF920F931F93CF93DF936C017B013A
:1003A0008B01040F151FEB015E01AE18BF08C017CB
:1003B000D10759F06991D601ED91FC910190F0813E
:1003C000E02DC6010995892B79F7C501DF91CF9101
:1003D0001F910F91FF90EF90DF90CF90BF90AF9063
:1003E0000895FC01538D448D252F30E0842F90E03B
:1003F000821B930B541710F0CF9608950197089520
:10040000FC01918D828D981761F0A28DAE0FBF2FE8
:10041000B11D5D968C91928D9F5F9F73928F90E03E
:1004200008958FEF9FEF08950F931F930E94AA01E5
:1004300060936402709365028093660290936702F2
:100440008CE592E00E94000297FF1DC00E94AA0165
:10045000009164021091650220916602309167025A
:10046000601B710B820B930B009160021091610273
:10047000209162023091630260177107820793072F
:10048000F8F28FEF9FEF1F910F910895FC01918D6E
:10049000828D981731F0828DE80FF11D858D90E0E7
:1004A00008958FEF9FEF0895FC01918D228D892F84
:1004B00090E0805C9F4F821B91098F73992708956C
:1004C0008CE592E00E94540221E0892B09F420E09F
:1004D000822F089580E090E0892B29F00E9460022D
:1004E00081110C9400000895FC01A48DA80FB92F70
:1004F000B11DA35ABF4F2C91848D90E001968F734C
:100500009927848FA689B7892C93A089B1898C916A
:10051000837080648C93938D848D981306C00288B9
:10052000F389E02D80818F7D80830895EF92FF9283
:100530000F931F93CF93DF93EC0181E0888F9B8D06
:100540008C8D98131AC0E889F989808185FF15C0C0
:100550009FB7F894EE89FF896083E889F9898081E3
:100560008370806480839FBF81E090E0DF91CF91B2
:100570001F910F91FF90EF900895F62E0B8D10E0D4
:100580000F5F1F4F0F731127E02E8C8D8E110CC043
:100590000FB607FCFACFE889F989808185FFF5CF8E
:1005A000CE010E947402F1CFEB8DEC0FFD2FF11DF7
:1005B000E35AFF4FF0829FB7F8940B8FEA89FB89CB
:1005C00080818062CFCFCF93DF93EC01888D882329
:1005D000B9F0AA89BB89E889F9898C9185FD03C0A6
:1005E000808186FD0DC00FB607FCF7CF8C9185FF8B
:1005F000F2CF808185FFEDCFCE010E947402E9CF5A
:10060000DF91CF910895EF92FF921F93CF93DF93E5
:10061000EC018A819A819E7F9A839A819D7F9A8339
:10062000182F117080FF13C0EF8DF8A1309779F06B
:10063000ADA1BEA11496ED90FC9015971596DC9394
:10064000CE9314970995EDA1FEA1F582E482812F46
:10065000DF91CF911F91FF90EF900895CF93DF939B
:10066000EC014B835C836D837E838B819C81AD81A8
:10067000BE818F839887A987BA870E94AA016B875A
:100680007C878D879E87DF91CF9108950F931F936D
:10069000CF93DF93FC01A5A1B6A1109709F448C040
:1006A000EC01178A108E118E128E82818B7F8283CD
:1006B000058CF68DE02D3097B9F18A8181FD34C02B
:1006C00014960D911C9115971596DC93CE93149763
:1006D0008A8182608A8309959A8180FB90F99A8346
:1006E0008A818D7F8A83EDA1FEA1158304838B818E
:1006F0009C81AD81BE818F839887A987BA870E942C
:10070000AA010F81188529853A85601B710B820B20
:10071000930B6B877C878D879E878A818170DF91A1
:10072000CF911F910F9108958A8181608A83DFCFD5
:1007300080E0F5CF0F93CF93DF93EC018AE291E055
:10074000998388838A818E7F8A838A818D7F8A8339
:100750008A818B7F8A831B861C861D861E861B8250
:100760001C821D821E821F82188619861A861AA272
:1007700019A21CA21BA21EA21DA21F8A188E198ECE
:100780001A8E3C8F2B8F1E8E1D8E18A21F8ECE01AF
:100790000E942E038FEF9FEFDC018F87988BA98B30
:1007A000BA8B8B8B9C8BAD8BBE8B8DA19EA1892B25
:1007B000D9F41092EA0383EE93E09EA38DA3809177
:1007C000E3039091E403892BB9F4D093E403C0933D
:1007D000E3031AA219A21CA21BA2D093E603C093A2
:1007E000E50381E08093EA03002379F0CE01DF91F5
:1007F000CF910F910C944603E091E503F091E6034D
:10080000FAA3E9A3D4A3C3A3E6CFDF91CF910F91BD
:100810000895CF93DF93EC018AE291E09983888376
:100820008A8180FF03C0CE010E940303EDA1FEA1D7
:10083000309789F017821EA21DA2A9A1BAA18BA18F
:100840009CA1109799F4009749F4118210821382A9
:10085000128281E08783DF91CF910895DC01929627
:100860001C921E92919791838083F3CF009739F465
:1008700094961C921E929397B383A283EACF949688
:100880009C938E9393970BA0DCA1C02DBAA3A9A330
:10089000E0CFFC0101900020E9F73197AF01481B40
:1008A000590BBC018CE592E00C94C4018F929F928D
:1008B000AF92BF920F931F93CF93DF93CDB7DEB765
:1008C000A1970FB6F894DEBF0FBECDBF19A242307C
:1008D00008F44AE08E010F5D1F4F842E912CB12C3D
:1008E000A12CA50194010E94560DE62FB901CA0161
:1008F000EA30F4F4E05DD801EE938D01232B242B34
:10090000252B79F790E080E0109719F0CD010E9437
:100910004904A1960FB6F894DEBF0FBECDBFDF919C
:10092000CF911F910F91BF90AF909F908F9008959E
:10093000E95CE1CFCF93DF934AE00E945604EC01DB
:1009400080E491E00E9449048C0F9D1FDF91CF91BC
:100950000895CF93DF930E944904EC0180E491E075
:100960000E9449048C0F9D1FDF91CF9108958091C3
:100970004402909145028230910509F454C02CF450
:10098000009759F0019771F108958330910509F4AA
:100990006BC0049709F4AAC008958FEF90E090937C
:1009A0004302809342021092410210924002109240
:1009B0003F0210923E0283E491E00E94A90440911C
:1009C0001C0150911D0160911E0170911F018CEB63
:1009D00093E00E942E0381E090E090934502809383
:1009E0004402089510924302109242028FEF90E069
:1009F000909341028093400210923F0210923E0277
:100A000087E491E00E94A9044091040150910501FE
:100A100060910601709107018CEB93E00E942E0318
:100A200082E090E0DACF10924302109242021092DC
:100A30004102109240028FEF90E090933F0280932A
:100A40003E028EE491E00E94A90440910001509181
:100A5000010160910201709103018CEB93E00E940F
:100A60002E0383E090E0B9CF80913C0210924302C4
:100A7000109242021092410210924002882311F11A
:100A80008FEF90E090933F0280933E028EE491E0DE
:100A90000E94A90410923C0280913A0290913B027C
:100AA000019690933B0280933A0280913A02909192
:100AB0003B0203979CF010923B0210923A0284E0B2
:100AC00090E08BCF10923F0210923E0284E591E0BD
:100AD0000E94A90481E080933C02E7CF46EA50E0FF
:100AE00060E070E08CEB93E00C942E0310924302D4
:100AF000109242028FEF90E0909341028093400267
:100B000010923F0210923E0287E491E00E94A904F5
:100B10004091040150910501609106017091070117
:100B20008CEB93E00E942E03109245021092440237
:100B3000089580913D028823C9F08FEF90E0909353
:100B4000430280934202909341028093400290932B
:100B50003F0280933E0281E691E00E94A9048091C9
:100B60003D0291E0892780933D020895109243024F
:100B700010924202109241021092400210923F02E3
:100B800010923E0284E591E0E8CFCF93DF93EC0131
:100B90008CEB93E00E94030385E993E00E9403033A
:100BA000C230D10571F1C330D10591F1C130D10509
:100BB00099F010924502109244028CEB93E00E944F
:100BC000460381E791E00E94A904D0934902C093B3
:100BD0004802DF91CF9108958FEF90E09093430208
:100BE00080934202109241021092400210923F0202
:100BF00010923E028DE791E00E94A90483E491E007
:100C0000E2CF85E993E00E9446038CE891E0DBCFD8
:100C1000109243021092420210924102109240023E
:100C200010923F0210923E028AE991E00E94A904CC
:100C300084E591E0C8CF80914A02882381F083EA5D
:100C400091E00E94A9048091480290914902019785
:100C500079F590E080E00E94C50510924A028091EB
:100C60004702882381F08CEB91E00E94A9048091D7
:100C70004802909149020297F1F490E080E00E94CE
:100C8000C5051092470280914602882381F084EDC9
:100C900091E00E94A9048091480290914902039733
:100CA00069F490E080E00E94C50510924602089524
:100CB00081E090E0D0CF82E090E0E1CF83E090E06F
:100CC000F2CFCF92DF92EF92FF9280E480937C008C
:100CD00080917A00806480937A0080917A0086FD0A
:100CE000FCCFA0917800B09179002FEF30E00E9406
:100CF0009B0D2FEF33E040E050E00E94000D80910B
:100D00004B0290914C02B901681B790BCB0177FF24
:100D100003C0919581959109039764F130934C023A
:100D200020934B028AEE91E00E944904C0904B024E
:100D3000D0904C020D2C000CEE08FF084AE0C701D1
:100D4000B601F7FE0DC06DE28CE592E00E949602BE
:100D500066277727CB016C197D098E099F094AE028
:100D60000E94560480E491E0FF90EF90DF90CF90D6
:100D70000C944904FF90EF90DF90CF900895FC0110
:100D800024813581232B39F421E0FB0180818823E4
:100D900049F020E007C0808191810E94B20F21E0DC
:100DA000892BB9F7822F08950F931F93CF93DF9369
:100DB000EC0188819981009759F02A813B8126179F
:100DC000370730F081E0DF91CF911F910F910895A7
:100DD0008B016F5F7F4F0E94E10E009759F099835E
:100DE00088831B830A832C813D81232B59F7FC01C7
:100DF0001082E8CF80E0E7CFCF93DF93EC018881CA
:100E00009981009711F00E94580E198218821D8254
:100E10001C821B821A82DF91CF910895CF93DF93BA
:100E2000EC0170E060E00E94D406811105C0CE01A3
:100E3000DF91CF910C94FC061D821C8262E471E06C
:100E400088819981DF91CF910C94BB0F9F92AF92D3
:100E5000BF92CF92DF92EF92FF920F931F93CF93A7
:100E6000DF93EC016B015A0179012417350720F457
:100E70008B2D5901E42EF82E198218821B821A82BA
:100E80001D821C82CE010E940E07D60114960D9180
:100E90001C91A016B10658F5E016F10608F487017A
:100EA000D601ED91FC911197E00FF11F9080108217
:100EB000ED90FC90EA0CFB1CE114F10471F0F701D9
:100EC00001900020E9F731975F01AE18BF08B50126
:100ED000CE010E94D406811117C0CE010E94FC06EB
:100EE000F60180819181080F191FD8019C92CE01D3
:100EF000DF91CF911F910F91FF90EF90DF90CF90F6
:100F0000BF90AF909F900895BD82AC82B701888159
:100F100099810E94BB0FE4CFFC01808191810097F1
:100F200011F00C94580E0895CF93DF93EC010E94BA
:100F30000904CE01DF91CF910C94580EAF92BF926D
:100F4000CF92DF92EF92FF920F931F93CF93DF9395
:100F5000CDB7DEB762970FB6F894DEBF0FBECDBF38
:100F60008CE592E00E945402181619060CF094C009
:100F70001E861D86188A1F861A8A198ACE010D962A
:100F80000E940E070E94140209891A8997FD1CC04D
:100F90008A309105C9F089831A820F5F1F4FB8010B
:100FA000CE010D960E94D406882361F32D853E85DF
:100FB00089899A89BE016F5F7F4F820F931F0E94BC
:100FC000BB0F1A8B098BDECFCD84DE84C114D10414
:100FD00029F076010115110509F070C089899A89F7
:100FE000892B09F455C00D851E856AE370E0C801A0
:100FF0000E94A70F009709F44BC09C01201B310BE6
:101000008901121613060CF043C050E040E0BE0107
:10101000635F7F4FCE0107960E94260729893A8990
:10102000A8014F5F5F4FBE01635F7F4FCE01019606
:101030000E94260763E471E0CE0107960E94BF0676
:10104000882309F475C089819A81009709F46CC0DE
:101050000E94B80C60931C0170931D0180931E01C7
:1010600090931F0187EF91E00E94490460911C0159
:1010700070911D0180911E0190911F010E949A04A0
:10108000CE0101960E948C07CE0107960E948C0724
:10109000CE010D960E948C0762960FB6F894DEBFC3
:1010A0000FBECDBFDF91CF911F910F91FF90EF90B9
:1010B000DF90CF90BF90AF900895750157012FEF4B
:1010C000A21AB20AF7018081082E000C990B0E9427
:1010D000F40C892B91F7015011090C0D1D1DF8011D
:1010E0008081082E000C990B0E94F40C892B31F0A2
:1010F0000E151F0518F001501109F1CFA8014F5F1F
:101100005F4F4E195F095A8B498BCE14DF0420F4D0
:10111000B701C6010E949E0FED85FE8589899A89D7
:10112000E80FF91F10825ACF60E070E0CB0192CF38
:1011300067E471E0CE0107960E94BF068823F9F0AC
:1011400089819A810097B9F00E94B80C60930401DC
:1011500070930501809306019093070185E092E06A
:101160000E9449046091040170910501809106017B
:101170009091070183CF60E070E0CB01E7CF6EE490
:1011800071E0CE0107960E94BF068823F9F089819D
:101190009A810097B9F00E94B80C60930001709397
:1011A0000101809302019093030186E192E00E9485
:1011B00049046091000170910101809102019091B8
:1011C00003015CCF60E070E0CB01E7CF66E272E044
:1011D000CE0107960E94BF06882309F451CF66E727
:1011E00071E0CE0101960E94BF06882329F090E0AD
:1011F00080E00E94C50544CF62E871E0CE0101960F
:101200000E94BF06882319F081E090E0F2CF61E9E7
:1012100071E0CE0101960E94BF06882319F082E09A
:1012200090E0E7CF6FE971E0CE0101960E94BF0622
:10123000882309F425CF83E090E0DBCF1F920F9243
:101240000FB60F9211242F933F938F939F93AF93D9
:10125000BF938091580290915902A0915A02B09187
:101260005B023091570223E0230F2D3758F501968A
:10127000A11DB11D209357028093580290935902EB
:10128000A0935A02B0935B02809153029091540252
:10129000A0915502B09156020196A11DB11D8093F7
:1012A000530290935402A0935502B0935602BF91FB
:1012B000AF919F918F913F912F910F900FBE0F9003
:1012C0001F90189526E8230F0296A11DB11DD2CFBD
:1012D0001F920F920FB60F9211242F933F934F93AB
:1012E0005F936F937F938F939F93AF93BF93EF938E
:1012F000FF93E0911801F09119010995FF91EF9189
:10130000BF91AF919F918F917F916F915F914F911D
:101310003F912F910F900FBE0F901F9018951F9225
:101320000F920FB60F9211242F933F934F935F9319
:101330006F937F938F939F93AF93BF93EF93FF939D
:10134000E0911601F09117010995FF91EF91BF917E
:10135000AF919F918F917F916F915F914F913F914D
:101360002F910F900FBE0F901F9018951F920F9204
:101370000FB60F9211242F933F934F935F936F9368
:101380007F938F939F93AF93BF93EF93FF938CE5DE
:1013900092E00E947402FF91EF91BF91AF919F91F3
:1013A0008F917F916F915F914F913F912F910F900E
:1013B0000FBE0F901F9018951F920F920FB60F92AD
:1013C00011242F938F939F93EF93FF93E0916C02DF
:1013D000F0916D028081E0917202F091730282FDC2
:1013E0001BC09081809175028F5F8F732091760270
:1013F000821741F0E0917502F0E0E45AFD4F958FBD
:1014000080937502FF91EF919F918F912F910F9093
:101410000FBE0F901F9018958081F4CF1F920F92EE
:101420000FB60F9211242F933F934F935F936F93B7
:101430007F938F939F93AF93BF93CF93EF93FF933C
:1014400099B1C0914F02C095809152028923C8235F
:1014500090934F02C4FF05C0E0911A01F0911B0167
:101460000995C5FF05C0E0910801F09109010995B2
:10147000C6FF05C0E0910A01F0910B010995C7FF75
:1014800005C0E0910C01F0910D010995C0FF05C068
:10149000E0910E01F0910F010995C1FF05C0E091A7
:1014A0001001F09111010995C2FF05C0E0911201F0
:1014B000F09113010995C3FF05C0E0911401F0916B
:1014C00015010995FF91EF91CF91BF91AF919F9138
:1014D0008F917F916F915F914F913F912F910F90DD
:1014E0000FBE0F901F9018950F93ECE5F2E013825A
:1014F000128288EE93E0A0E0B0E084839583A68317
:10150000B78382E391E09183808385EC90E09587B7
:10151000848784EC90E09787868780EC90E0918BBD
:10152000808B81EC90E0938B828B82EC90E0958BAA
:10153000848B86EC90E0978B868B118E128E138EA7
:10154000148EE3EEF3E0178211821082138212826E
:1015500015821482168281E0878340911C0150918C
:101560001D0160911E0170911F0100E027EB34E026
:101570008CEB93E00E949A0329E935E044EF51E0B7
:1015800060E070E085E993E00E949A0301E02BE1BE
:1015900036E044E150E060E070E08EE693E00E94C7
:1015A0009A0321E636E044E150E060E070E087E431
:1015B00093E00E949A032EE937E044E150E060E0B6
:1015C00070E080E293E00E949A0329E631E044E172
:1015D00050E060E070E089EF92E00E949A030F9182
:1015E0000895789484B5826084BD84B5816084BD9B
:1015F00085B5826085BD85B5816085BD80916E00B1
:10160000816080936E0010928100809181008260E1
:10161000809381008091810081608093810080911E
:1016200080008160809380008091B100846080930D
:10163000B1008091B00081608093B00080917A0009
:10164000846080937A0080917A00826080937A002F
:1016500080917A00816080937A0080917A0080681E
:1016600080937A001092C10061E089E00E94D4006A
:1016700061E08AE00E94D40061E08BE00E94D40027
:1016800062E082E00E94D40062E083E00E94D40025
:1016900062E084E00E94D40060E08EE00E94D4000A
:1016A00086EB91E090931701809316018091690079
:1016B000836080936900E89A8AEB91E09093190126
:1016C00080931801809169008C6080936900E99A89
:1016D0008EEB91E090931B0180931A01809152024E
:1016E00080618093520289B180934F0280916D0096
:1016F000806180936D0080916800846080936800B1
:10170000E0916C02F0916D0282E08083E0916802CA
:10171000F09169021082E0916A02F0916B028FEC05
:10172000808310927402E0917002F091710286E061
:101730008083E0916E02F0916F02808180618083EE
:10174000E0916E02F0916F02808188608083E09169
:101750006E02F0916F02808180688083E0916E025A
:10176000F0916F0280818F7D80838BE292E00E94F6
:10177000A90490E080E00E94C505C0E0D0E080911F
:10178000E3039091E4039093E8038093E7031092BE
:10179000EB031092EC031092ED031092EE03109203
:1017A000EF031092F0031092F1031092F2031092E3
:1017B000F3031092F4031092F5031092F603809154
:1017C000EA03882309F4B1C08091E9038111ADC017
:1017D000E091E703F091E803309709F4A6C0809107
:1017E000EF039091F003A091F103B091F203019601
:1017F000A11DB11D8093EF039093F003A093F1031B
:10180000B093F20303A114A1828180FF1EC08091D6
:10181000EB039091EC03A091ED03B091EE030196E0
:10182000A11DB11D8093EB039093EC03A093ED03F6
:10183000B093EE0387859089A189B289892B8A2B81
:101840008B2B41F4CF010E9403031093E803009314
:10185000E703BACF0E94AA01E091E703F091E80301
:10186000438054806580768083849484A584B68484
:10187000C780D084E184F284DC01CB018819990906
:10188000AA09BB098C159D05AE05BF05F0F2878539
:101890009089A189B289181619061A061B065CF4EC
:1018A00087859089A189B2890197A109B1098787A4
:1018B000908BA18BB28B8789908DA18DB28D019673
:1018C000A11DB11D878B908FA18FB28F83859485C9
:1018D000A585B685C780D084E184F2848C0D9D1DDA
:1018E000AE1DBF1D83879487A587B6874782508624
:1018F00061867286038CF48DE02D309709F4A5CFB4
:1019000009958091F3039091F403A091F503B091B0
:10191000F6030196A11DB11D8093F3039093F40388
:10192000A093F503B093F60390CF209709F427CF47
:101930000E946002882309F422CF0E9400001FCF7A
:1019400089EF92E00E94090480E293E00E9409047A
:1019500087E493E00E9409048EE693E00E94090464
:1019600085E993E00E9409048CEB93E00C94090450
:101970001F93FC0199278827BC01E894119110322C
:10198000E9F3193010F01E30C8F31B3251F01D324C
:1019900049F4689406C00E94DF0C610F711D811D1F
:1019A000911D119110531A30B0F33EF4909580952B
:1019B000709561957F4F8F4F9F4F1F910895592FBD
:1019C000482F372F262F660F771F881F991F660F06
:1019D000771F881F991F620F731F841F951F660F43
:1019E000771F881F991F089591110C94FD0C803268
:1019F00019F089508550C8F70895992788270895C8
:101A0000052E97FB1EF400940E94170D57FD07D07A
:101A10000E94560D07FC03D04EF40C94170D509500
:101A20004095309521953F4F4F4F5F4F08959095CA
:101A30008095709561957F4F8F4F9F4F08952F929E
:101A40003F924F925F926F927F928F929F92AF924E
:101A5000BF92CF92DF92EF92FF920F931F93CF939B
:101A6000DF93CDB7DEB7CA1BDB0B0FB6F894DEBF32
:101A70000FBECDBF09942A88398848885F846E8458
:101A80007D848C849B84AA84B984C884DF80EE80A2
:101A9000FD800C811B81AA81B981CE0FD11D0FB6AB
:101AA000F894DEBF0FBECDBFED010895A1E21A2E5E
:101AB000AA1BBB1BFD010DC0AA1FBB1FEE1FFF1FF2
:101AC000A217B307E407F50720F0A21BB30BE40B42
:101AD000F50B661F771F881F991F1A9469F7609589
:101AE0007095809590959B01AC01BD01CF01089543
:101AF000A29FB001B39FC001A39F700D811D11244F
:101B0000911DB29F700D811D1124911D089597FBA9
:101B1000072E16F4009407D077FD09D00E94A20D7D
:101B200007FC05D03EF4909581959F4F08957095E0
:101B300061957F4F08950E94780DB7FF0895821B2D
:101B4000930B0895AA1BBB1B51E107C0AA1FBB1F23
:101B5000A617B70710F0A61BB70B881F991F5A9539
:101B6000A9F780959095BC01CD010895EE0FFF1F58
:101B70000590F491E02D09940F931F93CF93DF9379
:101B80008230910510F482E090E0E091F903F09149
:101B9000FA0330E020E0B0E0A0E0309799F421159E
:101BA000310509F44AC0281B390B24303105D8F51A
:101BB0008A819B816115710589F1FB019383828381
:101BC000FE0111C0408151810281138148175907DC
:101BD000E0F04817590799F4109761F012960C93AA
:101BE000129713961C933296CF01DF91CF911F91DC
:101BF0000F9108950093F9031093FA03F4CF211580
:101C0000310551F04217530738F0A901DB019A0161
:101C1000BD01DF01F801C1CFEF01F9CF9093FA03C5
:101C20008093F903CDCFFE01E20FF31F81939193CF
:101C30002250310939832883D7CF2091F70330917F
:101C4000F803232B41F4209122013091230130939A
:101C5000F8032093F70320912001309121012115F1
:101C6000310541F42DB73EB7409124015091250133
:101C7000241B350BE091F703F091F803E217F3070B
:101C8000A0F42E1B3F0B2817390778F0AC014E5FEC
:101C90005F4F2417350748F04E0F5F1F5093F8032E
:101CA0004093F703819391939FCFF0E0E0E09CCFC6
:101CB000CF93DF930097E9F0FC01329713821282F1
:101CC000A091F903B091FA03ED0130E020E0109704
:101CD000A1F420813181820F931F2091F70330916D
:101CE000F8032817390709F061C0F093F803E0936F
:101CF000F703DF91CF910895EA01CE17DF07E8F5EA
:101D00004A815B819E0141155105B1F7E901FB83D1
:101D1000EA8349915991C40FD51FEC17FD0761F46F
:101D2000808191810296840F951FE90199838883B0
:101D3000828193819B838A83F0E0E0E012968D910B
:101D40009C9113970097B9F52D913C911197CD0176
:101D50000296820F931F2091F7033091F803281702
:101D6000390739F6309751F51092FA031092F903BA
:101D7000B093F803A093F703BCCFD383C283408111
:101D80005181840F951FC817D90761F44E5F5F4FCB
:101D900088819981480F591F518340838A819B8193
:101DA000938382832115310509F0B0CFF093FA03B4
:101DB000E093F9039ECFFD01DC01C0CF13821282B4
:101DC000D7CFB0E0A0E0E7EEFEE00C94210D8C014F
:101DD000009751F4CB010E94BC0D8C01C801CDB716
:101DE000DEB7E0E10C943D0DFC01E60FF71F9C010E
:101DF00022503109E217F30708F49DC0D901CD91B3
:101E0000DC911197C617D70798F0C530D10530F38C
:101E1000CE0104978617970708F3C61BD70B2297A6
:101E2000C193D1936D937C93CF010E94580ED6CF6E
:101E30005B01AC1ABD0A4C018C0E9D1EA091F903EA
:101E4000B091FA03512C412CF12CE12C109731F573
:101E50008091F7039091F8038815990509F05CC00B
:101E60004616570608F058C0809120019091210134
:101E7000009741F48DB79EB7409124015091250100
:101E8000841B950BE817F90708F055C0F093F80389
:101E9000E093F703F90171836083A0CF8D919C914A
:101EA000119712966C90129713967C901397A81521
:101EB000B90559F56C0142E0C40ED11CCA14DB040B
:101EC00020F1AC014A195B09DA011296159780F0EE
:101ED0006282738251834083D9016D937C93E114B4
:101EE000F10471F0D7011396FC93EE93129776CF1D
:101EF00022968C0F9D1FF90191838083F301EFCF10
:101F0000F093FA03E093F90369CF4816590608F4F1
:101F10002C017D01D3019ACFCB010E94BC0D7C0125
:101F2000009749F0AE01B8010E949E0FC8010E94BF
:101F3000580E870153CF10E000E050CFFB01DC01C9
:101F400002C001900D9241505040D8F70895FC0115
:101F50008191861721F08823D9F799270895319721
:101F6000CF010895FB01DC018D91019080190110D2
:101F7000D9F3990B0895FB01DC0101900D9200202B
:101F8000E1F7089510E0CDE5D0E004C0FE010E9425
:0E1F9000B60D2196CE35D107C9F7F894FFCFD4
:101F9E00D0070000F4010000C201C201C201C2015B
:101FAE00C201C201C201C301C301C201D0070000B8
:101FBE000000FB03800000000000090494070000ED
:101FCE0000009602C401F101E3025402000246022F
:101FDE000D0A005245440059454C4C4F570047528C
:101FEE0045454E00414C4C5F4C4544735F4F464651
:101FFE0000424C494E4B494E475F414C4C5F4F4E51
:10200E00004D4F44453A4E4F524D414C004D4F44BA
:10201E00453A454D455247454E4359004D4F44456F
:10202E003A424C494E4B494E47004D4F44453A4F6C
:10203E00464600456D657267656E637920627574FC
:10204E00746F6E207072657373656400426C696E96
:10205E006B696E6720627574746F6E207072657333
:10206E00736564004F4E2F4F464620627574746F31
:10207E006E2070726573736564004272696768746E
:10208E006E6573733A20005245445F445552415475
:10209E00494F4E3A0059454C4C4F575F44555241AB
:1020AE0054494F4E3A00475245454E5F44555241B2
:1020BE0054494F4E3A004D4F444500536572696185
:0A20CE006C20737461727465640085
:00000001FF
