:100000000C9463000C948B000C948B000C948B006C
:100010000C948B000C948B000C948B000C948B0034
:100020000C948B000C948B000C948B000C948B0024
:100030000C948B000C948B000C948B000C948B0014
:100040000C9456090C948B000C94C6090C94A009CE
:100050000C948B000C948B000C948B000C948B00F4
:100060000C948B000C948B000000000024002700EF
:100070002A0000000000250028002B0000000000DE
:1000800023002600290004040404040404040202DA
:100090000202020203030303030301020408102007
:1000A0004080010204081020010204081020000012
:1000B0000008000201000003040700000000000027
:1000C0000000F809F40B11241FBECFEFD8E0DEBF0B
:1000D000CDBF11E0A0E0B1E0E6E4FEE102C0059092
:1000E0000D92A23FB107D9F723E0A2EFB1E001C022
:1000F0001D92A93AB207E1F710E0C2E6D0E004C0D1
:100100002197FE010E940A0DC136D107C9F70E944E
:10011000750A0C94160F0C940000833081F028F4BB
:10012000813099F08230A9F008958730A9F08830A5
:10013000C9F08430B1F4809180008F7D03C080913C
:1001400080008F7780938000089584B58F7784BD79
:10015000089584B58F7DFBCF8091B0008F77809319
:10016000B00008958091B0008F7DF9CFCF93DF93D9
:10017000282F30E0F901E255FF4F8491F901E6564E
:10018000FF4FD491F901EA57FF4FC491CC23A1F05E
:1001900081110E948D00EC2FF0E0EE0FFF1FE4585C
:1001A000FF4FA591B491EC91ED2381E090E009F42B
:1001B00080E0DF91CF91089580E090E0FACF1F9327
:1001C000CF93DF93282F30E0F901E255FF4F849160
:1001D000F901E656FF4FD491F901EA57FF4FC49158
:1001E000CC23A9F0162F81110E948D00EC2FF0E096
:1001F000EE0FFF1FEE58FF4FA591B4918FB7F89403
:10020000EC91111108C0D095DE23DC938FBFDF91F4
:10021000CF911F910895DE2BF8CFCF93DF9390E01D
:10022000FC01E656FF4F24918A579F4FFC018491B1
:100230008823C9F090E0880F991FFC01E859FF4F0F
:10024000A591B491FC01EE58FF4FC591D491611175
:100250000DC09FB7F8948C91209582238C93888150
:10026000282328839FBFDF91CF910895623051F4F6
:100270009FB7F8943C91822F809583238C93E881DB
:100280002E2BEFCF8FB7F894EC912E2B2C938FBFA2
:10029000EACF1F93CF93DF93182FEB0161E00E9409
:1002A0000D01209739F460E0812FDF91CF911F91EC
:1002B0000C94DF00E12FF0E0E255FF4FE491E330D2
:1002C00039F148F4E130B9F0E230E9F0C038D10555
:1002D00051F761E0E9CFE73029F1E83059F1E43036
:1002E000A9F780918000806280938000D0938B007A
:1002F000C0938A0004C084B5806884BDC7BDDF9107
:10030000CF911F91089584B5806284BDC8BDF7CF99
:1003100080918000806880938000D0938900C09392
:100320008800EDCF8091B00080688093B000C093CA
:10033000B300E5CF8091B00080628093B000C0939D
:10034000B400DDCF2FB7F8946091060270910702D8
:1003500080910802909109022FBF0895AF92BF9239
:10036000CF92DF92EF92FF920F931F93CF93DF9381
:100370006C017B018B01040F151FEB015E01AE18B0
:10038000BF08C017D10759F06991D601ED91FC91D2
:100390000190F081E02DC6010995892B79F7C501FF
:1003A000DF91CF911F910F91FF90EF90DF90CF9051
:1003B000BF90AF900895FC01538D448D252F30E000
:1003C000842F90E0821B930B541710F0CF96089562
:1003D00001970895FC01918D828D981761F0A28D8F
:1003E000AE0FBF2FB11D5D968C91928D9F5F9F7355
:1003F000928F90E008958FEF9FEF08950F931F93D2
:100400000E94A2016093120270931302809314025F
:10041000909315028AE092E00E94EA0197FF1DC0C6
:100420000E94A20100911202109113022091140265
:1004300030911502601B710B820B930B00910E0221
:1004400010910F0220911002309111026017710774
:1004500082079307F8F28FEF9FEF1F910F91089596
:10046000FC01918D828D981731F0828DE80FF11D7E
:10047000858D90E008958FEF9FEF0895FC01918D99
:10048000228D892F90E0805C9F4F821B91098F7392
:10049000992708958AE092E00E943E0221E0892B8C
:1004A00009F420E0822F089580E090E0892B29F064
:1004B0000E944A0281110C9400000895FC01A48D51
:1004C000A80FB92FB11DA35ABF4F2C91848D90E076
:1004D00001968F739927848FA689B7892C93A08959
:1004E000B1898C91837080648C93938D848D9813E3
:1004F00006C00288F389E02D80818F7D8083089576
:10050000EF92FF920F931F93CF93DF93EC0181E063
:10051000888F9B8D8C8D98131AC0E889F98980810A
:1005200085FF15C09FB7F894EE89FF896083E8893D
:10053000F98980818370806480839FBF81E090E02F
:10054000DF91CF911F910F91FF90EF900895F62EBC
:100550000B8D10E00F5F1F4F0F731127E02E8C8D56
:100560008E110CC00FB607FCFACFE889F98980819B
:1005700085FFF5CFCE010E945E02F1CFEB8DEC0F2F
:10058000FD2FF11DE35AFF4FF0829FB7F8940B8FB8
:10059000EA89FB8980818062CFCFCF93DF93EC0122
:1005A000888D8823B9F0AA89BB89E889F9898C915B
:1005B00085FD03C0808186FD0DC00FB607FCF7CF17
:1005C0008C9185FFF2CF808185FFEDCFCE010E9417
:1005D0005E02E9CFDF91CF910895CF92DF92EF9243
:1005E000FF920F931F93CF93DF936B017A010091DA
:1005F0000001109101019C01029FC001039F900D19
:10060000129F900D1124CFEFD0E0BE010E94DB0CB1
:1006100087E10E9449010C9DC0010D9D900D1C9D1C
:10062000900D1124BE010E94DB0C88E10E9449015B
:100630000E9DC0010F9D900D1E9D900D1124BE01B9
:100640000E94DB0C89E1DF91CF911F910F91FF9008
:10065000EF90DF90CF900C94490150E040E070E0C3
:1006600060E08FEF90E00C94ED02CF93C091F50124
:100670004FEF50E06FEF70E08FEF90E0C11106C0D8
:1006800050E040E070E060E090E080E00E94ED0229
:1006900081E0C827C093F501CF910895EF92FF92B2
:1006A0001F93CF93DF93EC018A819A819E7F9A8377
:1006B0009A819D7F9A83182F117080FF13C0EF8D50
:1006C000F8A1309779F0ADA1BEA11496ED90FC9001
:1006D00015971596DC93CE9314970995EDA1FEA17D
:1006E000F582E482812FDF91CF911F91FF90EF90EF
:1006F0000895CF93DF93EC014B835C836D837E83FE
:100700008B819C81AD81BE818F839887A987BA87B1
:100710000E94A2016B877C878D879E87DF91CF9196
:1007200008950F931F93CF93DF93FC01A5A1B6A16A
:10073000109709F448C0EC01178A108E118E128EA2
:1007400082818B7F8283058CF68DE02D3097B9F105
:100750008A8181FD34C014960D911C9115971596D0
:10076000DC93CE9314978A8182608A8309959A815B
:1007700080FB90F99A838A818D7F8A83EDA1FEA107
:10078000158304838B819C81AD81BE818F83988783
:10079000A987BA870E94A2010F81188529853A8509
:1007A000601B710B820B930B6B877C878D879E87F9
:1007B0008A818170DF91CF911F910F9108958A8175
:1007C00081608A83DFCF80E0F5CF0F93CF93DF93F3
:1007D000EC0188E191E0998388838A818E7F8A8306
:1007E0008A818D7F8A838A818B7F8A831B861C8680
:1007F0001D861E861B821C821D821E821F821886F9
:1008000019861A861AA219A21CA21BA21EA21DA238
:100810001F8A188E198E1A8E3C8F2B8F1E8E1D8E5E
:1008200018A21F8ECE010E9479038FEF9FEFDC018B
:100830008F87988BA98BBA8B8B8B9C8BAD8BBE8B48
:100840008DA19EA1892BD9F41092980381E993E0A0
:100850009EA38DA38091910390919203892BB9F46B
:10086000D0939203C09391031AA219A21CA21BA2B7
:10087000D0939403C093930381E080939803002363
:1008800079F0CE01DF91CF910F910C949103E0911B
:100890009303F0919403FAA3E9A3D4A3C3A3E6CFEF
:1008A000DF91CF910F910895CF93DF93EC0188E111
:1008B00091E0998388838A8180FF03C0CE010E94E2
:1008C0004E03EDA1FEA1309789F017821EA21DA252
:1008D000A9A1BAA18BA19CA1109799F4009749F402
:1008E000118210821382128281E08783DF91CF917F
:1008F0000895DC0192961C921E92919791838083B9
:10090000F3CF009739F494961C921E929397B38379
:10091000A283EACF94969C938E9393970BA0DCA12D
:10092000C02DBAA3A9A3E0CFFC0101900020E9F7F4
:100930003197AF01481B590BBC018AE092E00C943F
:10094000AE018F929F92AF92BF920F931F93CF935E
:10095000DF93CDB7DEB7A1970FB6F894DEBF0FBE19
:10096000CDBF19A2423008F44AE08E010F5D1F4F3F
:10097000842E912CB12CA12CA50194010E94AA0CCB
:10098000E62FB901CA01EA30F4F4E05DD801EE9334
:100990008D01232B242B252B79F790E080E01097F5
:1009A00019F0CD010E949404A1960FB6F894DEBF11
:1009B0000FBECDBFDF91CF911F910F91BF90AF9030
:1009C0009F908F900895E95CE1CFCF93DF934AE049
:1009D0000E94A104EC018EE291E00E9494048C0F2D
:1009E0009D1FDF91CF910895CF93DF930E949404D0
:1009F000EC018EE291E00E9494048C0F9D1FDF9128
:100A0000CF910895CF93DF938091F6019091F701F4
:100A10008230910509F465C044F4009729F10197EB
:100A200009F442C0DF91CF9108958330910509F414
:100A300075C00497B9F750E040E06FEF70E090E0C8
:100A400080E00E94ED024091060150910701609103
:100A50000801709109018AE693E00E9479031092DF
:100A6000F7011092F6013AC050E040E070E060E01B
:100A70008FEF90E00E94ED0240910A0150910B012E
:100A800060910C0170910D018AE693E00E94790358
:100A900081E090E09093F7018093F60180E591E08A
:100AA000DF91CF910C94F40450E040E06FEF70E0E0
:100AB00090E080E00E94ED02409106015091070114
:100AC00060910801709109018AE693E00E94790320
:100AD00082E090E09093F7018093F60184E591E045
:100AE000DFCF4FEF50E070E060E090E080E00E94E8
:100AF000ED02409102015091030160910401709157
:100B000005018AE693E00E94790383E090E09093E8
:100B1000F7018093F6018BE591E0C2CF8091F4015B
:100B2000882349F14FEF50E070E060E090E080E012
:100B30000E94ED021092F4018091F2019091F30174
:100B4000039754F01092F3011092F20184E090E0C8
:100B50009093F7018093F60146EA50E060E070E080
:100B60008AE693E00E9479038091F4018823C1F022
:100B700081E391E095CFC091F201D091F30150E073
:100B800040E070E060E090E080E00E94ED0281E0F3
:100B90008093F4012196D093F301C093F201CCCF5E
:100BA00081E491E07DCFCF93DF932091F8013091E4
:100BB000F90128173907D9F0EC018AE693E00E9481
:100BC0004E0383E493E00E944E038CE193E00E9485
:100BD0004E03C130D105D9F068F0C230D105F1F033
:100BE000C330D10511F1D093F901C093F801DF9121
:100BF000CF9108951092F7011092F6018AE693E0E2
:100C00000E94910381E691E00E94F404ECCF83E41A
:100C100093E00E9491038DE691E0F6CF8CE193E0A2
:100C20000E9491038CE791E0EFCF50E040E070E04C
:100C300060E090E080E00E94ED028AE891E0E4CF7D
:100C40004F925F926F927F92AF92BF92CF92DF925C
:100C5000EF92FF920F931F93CF93DF9385E10E9452
:100C6000B6005C0111E0892B09F410E084E10E94D8
:100C7000B6006C01D1E0892B09F4D0E083E10E9439
:100C8000B6007C01C1E0892B09F4C0E000910002AC
:100C9000011308C08091FF018D1304C08091FE01F3
:100CA0008C1751F00E94A2016093FA017093FB012E
:100CB0008093FC019093FD010E94A2014090FA01F3
:100CC0005090FB016090FC017090FD016419750962
:100CD00086099709633371058105910510F1AB28E9
:100CE00031F0011104C081E090E00E94D305CD28CD
:100CF00041F08091FF01811104C082E090E00E94E8
:100D0000D305EF2871F08091FE0181110AC0809116
:100D1000F8019091F9010397C9F490E080E00E94F6
:100D2000D30510930002D093FF01C093FE01DF9121
:100D3000CF911F910F91FF90EF90DF90CF90BF90D8
:100D4000AF907F906F905F904F90089583E090E018
:100D5000E6CFCF92DF92EF92FF9280E480937C0007
:100D600080917A00806480937A0080917A0086FD79
:100D7000FCCFA0917800B091790025EF30E00E947F
:100D8000EF0C2FEF33E040E050E00E94540C265F60
:100D90003F4F4F4F5F4F309301012093000183E994
:100DA00091E00E949404C0900001D09001010D2CAC
:100DB000000CEE08FF084AE0C701B601F7FE0DC0BF
:100DC0006DE28AE092E00E94800266277727CB01DD
:100DD0006C197D098E099F094AE00E94A1048EE2E8
:100DE00091E0FF90EF90DF90CF900C949404FC0181
:100DF00024813581232B39F421E0FB018081882374
:100E000049F020E007C0808191810E94060F21E017
:100E1000892BB9F7822F08950F931F93CF93DF93F8
:100E2000EC0188819981009759F02A813B8126172E
:100E3000370730F081E0DF91CF911F910F91089536
:100E40008B016F5F7F4F0E94350E009759F0998399
:100E500088831B830A832C813D81232B59F7FC0156
:100E60001082E8CF80E0E7CFCF93DF93EC01888159
:100E70009981009711F00E94AC0D198218821D8291
:100E80001C821B821A82DF91CF910895CF93DF934A
:100E9000EC0170E060E00E940C07811105C0CE01FA
:100EA000DF91CF910C9434071D821C8260E371E0C6
:100EB00088819981DF91CF910C940F0F9F92AF920F
:100EC000BF92CF92DF92EF92FF920F931F93CF9337
:100ED000DF93EC016B015A0179012417350720F4E7
:100EE0008B2D5901E42EF82E198218821B821A824A
:100EF0001D821C82CE010E944607D60114960D91D8
:100F00001C91A016B10658F5E016F10608F4870109
:100F1000D601ED91FC911197E00FF11F90801082A6
:100F2000ED90FC90EA0CFB1CE114F10471F0F70168
:100F300001900020E9F731975F01AE18BF08B501B5
:100F4000CE010E940C07811117C0CE010E94340708
:100F5000F60180819181080F191FD8019C92CE0162
:100F6000DF91CF911F910F91FF90EF90DF90CF9085
:100F7000BF90AF909F900895BD82AC82B7018881E9
:100F800099810E940F0FE4CFFC018081918100972D
:100F900011F00C94AC0D0895CF93DF93EC010E94F7
:100FA0005404CE01DF91CF910C94AC0DAF92BF925F
:100FB000CF92DF92EF92FF920F931F93CF93DF9325
:100FC000CDB7DEB762970FB6F894DEBF0FBECDBFC8
:100FD0008AE092E00E943E02181619060CF094C0B6
:100FE0001E861D86188A1F861A8A198ACE010D96BA
:100FF0000E9446070E94FE0109891A8997FD1CC0BC
:101000008A309105C9F089831A820F5F1F4FB8019A
:10101000CE010D960E940C07882361F32D853E8535
:1010200089899A89BE016F5F7F4F820F931F0E944B
:101030000F0F1A8B098BDECFCD84DE84C114D1044F
:1010400029F076010115110509F070C089899A8986
:10105000892B09F455C00D851E856AE370E0C8012F
:101060000E94FB0E009709F44BC09C01201B310B22
:101070008901121613060CF043C050E040E0BE0197
:10108000635F7F4FCE0107960E945E0729893A89E8
:10109000A8014F5F5F4FBE01635F7F4FCE01019696
:1010A0000E945E0760E571E0CE0107960E94F70698
:1010B000882309F475C089819A81009709F46CC06E
:1010C0000E940C0C60930A0170930B0180930C0139
:1010D00090930D0180EA91E00E94940460910A01CE
:1010E00070910B0180910C0190910D010E94E5041B
:1010F000CE0101960E94C407CE0107960E94C40744
:10110000CE010D960E94C40762960FB6F894DEBF1A
:101110000FBECDBFDF91CF911F910F91FF90EF9048
:10112000DF90CF90BF90AF900895750157012FEFDA
:10113000A21AB20AF7018081082E000C990B0E94B6
:10114000480C892B91F7015011090C0D1D1DF80158
:101150008081082E000C990B0E94480C892B31F0DD
:101160000E151F0518F001501109F1CFA8014F5FAE
:101170005F4F4E195F095A8B498BCE14DF0420F460
:10118000B701C6010E94F20EED85FE8589899A8914
:10119000E80FF91F10825ACF60E070E0CB0192CFC8
:1011A00064E571E0CE0107960E94F7068823F9F006
:1011B00089819A810097B9F00E940C0C6093060116
:1011C0007093070180930801909309018EEA91E0E2
:1011D0000E949404609106017091070180910801BA
:1011E0009091090183CF60E070E0CB01E7CF6BE520
:1011F00071E0CE0107960E94F7068823F9F08981F5
:101200009A810097B9F00E940C0C609302017093D0
:10121000030180930401909305018FEB91E00E94FC
:1012200094046091020170910301809104019091F6
:1012300005015CCF60E070E0CB01E7CF6FEC71E0BF
:10124000CE0107960E94F706882309F451CF66E67F
:1012500071E0CE0101960E94F706882329F090E004
:1012600080E00E94D30544CF62E771E0CE01019691
:101270000E94F706882319F081E090E0F2CF61E840
:1012800071E0CE0101960E94F706882319F082E0F2
:1012900090E0E7CF6FE871E0CE0101960E94F7067B
:1012A000882309F425CF83E090E0DBCF1F920F92D3
:1012B0000FB60F9211242F933F938F939F93AF9369
:1012C000BF938091060290910702A0910802B0910D
:1012D00009023091050223E0230F2D3758F50196BE
:1012E000A11DB11D20930502809306029093070271
:1012F000A0930802B093090280910102909102022A
:10130000A0910302B09104020196A11DB11D80932A
:10131000010290930202A0930302B0930402BF91D2
:10132000AF919F918F913F912F910F900FBE0F9092
:101330001F90189526E8230F0296A11DB11DD2CF4C
:101340001F920F920FB60F9211242F933F934F933A
:101350005F936F937F938F939F93AF93BF93EF931D
:10136000FF938AE092E00E945E02FF91EF91BF91AD
:10137000AF919F918F917F916F915F914F913F912D
:101380002F910F900FBE0F901F9018951F920F92E4
:101390000FB60F9211242F938F939F93EF93FF9388
:1013A000E0911A02F0911B028081E0912002F091FD
:1013B000210282FD1BC09081809123028F5F8F7379
:1013C00020912402821741F0E0912302F0E0E65FD1
:1013D000FD4F958F80932302FF91EF919F918F9105
:1013E0002F910F900FBE0F901F9018958081F4CF12
:1013F0000F93EAE0F2E01382128288EE93E0A0E01D
:10140000B0E084839583A683B78380E291E09183E3
:10141000808385EC90E09587848784EC90E09787C3
:10142000868780EC90E0918B808B81EC90E0938BB1
:10143000828B82EC90E0958B848B86EC90E0978B8E
:10144000868B118E128E138E148EE1E9F3E01782D3
:10145000118210821382128215821482168281E018
:10146000878340910A0150910B0160910C017091AA
:101470000D0100E022E035E08AE693E00E94E503FA
:101480002DE233E044E650E060E070E083E493E076
:101490000E94E50325E333E044EF51E060E070E0B3
:1014A0008CE193E00E94E50301E020E236E042E3B4
:1014B00050E060E070E085EF92E00E94E50329EAE9
:1014C00036E044E650E060E070E08EEC92E00E948E
:1014D000E50326ED37E044E650E060E070E087EA9F
:1014E00092E00E94E5030F910895789484B582609C
:1014F00084BD84B5816084BD85B5826085BD85B5B8
:10150000816085BD80916E00816080936E00109235
:1015100081008091810082608093810080918100B0
:101520008160809381008091800081608093800041
:101530008091B10084608093B1008091B00081609F
:101540008093B00080917A00846080937A008091CB
:101550007A00826080937A0080917A008160809323
:101560007A0080917A00806880937A001092C1009E
:1015700061E087E10E940D0161E088E10E940D01B8
:1015800061E089E10E940D0162E085E10E940D01A8
:1015900062E084E10E940D0162E083E10E940D019E
:1015A00060E08EE00E940D01E0911A02F0911B02B2
:1015B00082E08083E0911602F09117021082E091A0
:1015C0001802F09119028FEC808310922202E091B0
:1015D0001E02F0911F0286E08083E0911C02F091D0
:1015E0001D02808180618083E0911C02F0911D02C8
:1015F000808188608083E0911C02F0911D028081CF
:1016000080688083E0911C02F0911D0280818F7DB3
:10161000808384ED91E00E94F40490E080E00E94D9
:10162000D305C0E0D0E08091910390919203909314
:101630009603809395031092990310929A03109247
:101640009B0310929C0310929D0310929E03109294
:101650009F031092A0031092A1031092A203109274
:10166000A3031092A40380919803882309F4B1C0C6
:10167000809197038111ADC0E0919503F09196039D
:10168000309709F4A6C080919D0390919E03A0918C
:101690009F03B091A0030196A11DB11D80939D03EE
:1016A00090939E03A0939F03B093A00303A114A162
:1016B000828180FF1EC08091990390919A03A0912E
:1016C0009B03B0919C030196A11DB11D80939903CA
:1016D00090939A03A0939B03B0939C038785908972
:1016E000A189B289892B8A2B8B2B41F4CF010E94CF
:1016F0004E031093960300939503BACF0E94A20164
:10170000E0919503F0919603438054806580768044
:1017100083849484A584B684C780D084E184F284D1
:10172000DC01CB0188199909AA09BB098C159D0513
:10173000AE05BF05F0F287859089A189B289181698
:1017400019061A061B065CF487859089A189B2895F
:101750000197A109B1098787908BA18BB28B8789EB
:10176000908DA18DB28D0196A11DB11D878B908F9B
:10177000A18FB28F83859485A585B685C780D084D7
:10178000E184F2848C0D9D1DAE1DBF1D838794875F
:10179000A587B6874782508661867286038CF48D52
:1017A000E02D309709F4A5CF09958091A103909180
:1017B000A203A091A303B091A4030196A11DB11DA2
:1017C0008093A1039093A203A093A303B093A403D7
:1017D00090CF209709F427CF0E944A02882309F46A
:1017E00022CF0E9400001FCF87EA92E00E9454049B
:1017F0008EEC92E00E94540485EF92E00E94540423
:101800008CE193E00E94540483E493E00E9454042A
:101810008AE693E00C9454041F93FC0199278827CF
:10182000BC01E89411911032E9F3193010F01E3028
:10183000C8F31B3251F01D3249F4689406C00E946F
:10184000330C610F711D811D911D119110531A30C0
:10185000B0F33EF490958095709561957F4F8F4FD2
:101860009F4F1F910895592F482F372F262F660F0E
:10187000771F881F991F660F771F881F991F620F98
:10188000731F841F951F660F771F881F991F089568
:1018900091110C94510C803219F089508550C8F781
:1018A0000895992788270895052E97FB1EF4009424
:1018B0000E946B0C57FD07D00E94AA0C07FC03D0B6
:1018C0004EF40C946B0C50954095309521953F4FFC
:1018D0004F4F5F4F089590958095709561957F4F1C
:1018E0008F4F9F4F08952F923F924F925F926F922A
:1018F0007F928F929F92AF92BF92CF92DF92EF92A0
:10190000FF920F931F93CF93DF93CDB7DEB7CA1B20
:10191000DB0B0FB6F894DEBF0FBECDBF09942A884B
:10192000398848885F846E847D848C849B84AA84F3
:10193000B984C884DF80EE80FD800C811B81AA8180
:10194000B981CE0FD11D0FB6F894DEBF0FBECDBF4B
:10195000ED010895A1E21A2EAA1BBB1BFD010DC0CB
:10196000AA1FBB1FEE1FFF1FA217B307E407F5074F
:1019700020F0A21BB30BE40BF50B661F771F881F2B
:10198000991F1A9469F760957095809590959B01C1
:10199000AC01BD01CF010895A29FB001B39FC0016A
:1019A000A39F700D811D1124911DB29F700D811D8B
:1019B0001124911D089597FB072E16F4009407D06B
:1019C00077FD09D00E94F60C07FC05D03EF49095F7
:1019D00081959F4F0895709561957F4F08950E945E
:1019E000CC0CB7FF0895821B930B0895AA1BBB1B59
:1019F00051E107C0AA1FBB1FA617B70710F0A61B0F
:101A0000B70B881F991F5A95A9F780959095BC012F
:101A1000CD010895EE0FFF1F0590F491E02D09947C
:101A20000F931F93CF93DF938230910510F482E0E0
:101A300090E0E091A703F091A80330E020E0B0E04F
:101A4000A0E0309799F42115310509F44AC0281B0C
:101A5000390B24303105D8F58A819B8161157105D8
:101A600089F1FB0193838283FE0111C04081518182
:101A70000281138148175907E0F04817590799F474
:101A8000109761F012960C93129713961C9332964E
:101A9000CF01DF91CF911F910F9108950093A7037C
:101AA0001093A803F4CF2115310551F042175307C5
:101AB00038F0A901DB019A01BD01DF01F801C1CFB6
:101AC000EF01F9CF9093A8038093A703CDCFFE0138
:101AD000E20FF31F819391932250310939832883B8
:101AE000D7CF2091A5033091A603232B41F4209159
:101AF0001001309111013093A6032093A50320918A
:101B00000E0130910F012115310541F42DB73EB77B
:101B10004091120150911301241B350BE091A50354
:101B2000F091A603E217F307A0F42E1B3F0B281732
:101B3000390778F0AC014E5F5F4F2417350748F046
:101B40004E0F5F1F5093A6034093A503819391937B
:101B50009FCFF0E0E0E09CCFCF93DF930097E9F0D8
:101B6000FC01329713821282A091A703B091A803BF
:101B7000ED0130E020E01097A1F420813181820F47
:101B8000931F2091A5033091A6032817390709F068
:101B900061C0F093A603E093A503DF91CF91089570
:101BA000EA01CE17DF07E8F54A815B819E01411506
:101BB0005105B1F7E901FB83EA8349915991C40FBB
:101BC000D51FEC17FD0761F4808191810296840F87
:101BD000951FE90199838883828193819B838A83FE
:101BE000F0E0E0E012968D919C9113970097B9F583
:101BF0002D913C911197CD010296820F931F209158
:101C0000A5033091A6032817390739F6309751F507
:101C10001092A8031092A703B093A603A093A50364
:101C2000BCCFD383C28340815181840F951FC817D5
:101C3000D90761F44E5F5F4F88819981480F591F22
:101C4000518340838A819B8193838283211531054F
:101C500009F0B0CFF093A803E093A7039ECFFD0156
:101C6000DC01C0CF13821282D7CFB0E0A0E0EBE35B
:101C7000FEE00C94750C8C01009751F4CB010E948E
:101C8000100D8C01C801CDB7DEB7E0E10C94910CCA
:101C9000FC01E60FF71F9C0122503109E217F30700
:101CA00008F49DC0D901CD91DC911197C617D707D3
:101CB00098F0C530D10530F3CE0104978617970709
:101CC00008F3C61BD70B2297C193D1936D937C93D6
:101CD000CF010E94AC0DD6CF5B01AC1ABD0A4C01FE
:101CE0008C0E9D1EA091A703B091A803512C412CEE
:101CF000F12CE12C109731F58091A5039091A6036A
:101D00008815990509F05CC04616570608F058C0BA
:101D100080910E0190910F01009741F48DB79EB70D
:101D20004091120150911301841B950BE817F9079C
:101D300008F055C0F093A603E093A503F901718361
:101D40006083A0CF8D919C91119712966C90129701
:101D500013967C901397A815B90559F56C0142E0CC
:101D6000C40ED11CCA14DB0420F1AC014A195B0972
:101D7000DA011296159780F0628273825183408354
:101D8000D9016D937C93E114F10471F0D70113969E
:101D9000FC93EE93129776CF22968C0F9D1FF9013C
:101DA00091838083F301EFCFF093A803E093A7031F
:101DB00069CF4816590608F42C017D01D3019ACF4A
:101DC000CB010E94100D7C01009749F0AE01B801D3
:101DD0000E94F20EC8010E94AC0D870153CF10E0A3
:101DE00000E050CFFB01DC0102C001900D92415098
:101DF0005040D8F70895FC018191861721F088237F
:101E0000D9F7992708953197CF010895FB01DC0197
:101E10008D91019080190110D9F3990B0895FB0160
:101E2000DC0101900D920020E1F7089510E0C2E678
:101E3000D0E004C0FE010E940A0D2196C336D107EE
:061E4000C9F7F894FFCF82
:101E4600FF00D0070000F4010000D00700000000EA
:101E5600A9038000000000005404CC070000000025
:101E66008002AE01DB01CD023E02EA0130020D0A1C
:101E760000475245454E5F424C494E4B5F4F4646E2
:101E860000475245454E5F424C494E4B5F4F4E0010
:101E96005245440059454C4C4F5700475245454E14
:101EA600004D4F44453A4E4F524D414C004D4F4424
:101EB600453A454D455247454E4359004D4F4445D9
:101EC6003A424C494E4B494E47004D4F44453A4FD6
:101ED6004646004272696768746E6573733A2000FD
:101EE6005245445F4455524154494F4E3A00594574
:101EF6004C4C4F575F4455524154494F4E3A004758
:101F06005245454E5F4455524154494F4E3A004D55
:101F16004F44450054726166666963204C69676880
:101F2600742053797374656D20537461727465649B
:021F36000000A9
:00000001FF
