:100000000C945E000C949E090C9477090C94860065
:100010000C9486000C941D0A0C9486000C948600A7
:100020000C9486000C9486000C9486000C94860038
:100030000C9486000C9486000C9486000C94860028
:100040000C942D090C9486000C94EB090C94C509B2
:100050000C9486000C9486000C9486000C94860008
:100060000C9486000C9486000000000024002700F9
:100070002A0000000000250028002B0004040404CE
:100080000404040402020202020203030303030342
:10009000010204081020408001020408102001021F
:1000A00004081020000000080002010000030407FB
:1000B0000000000000000000830AB90C11241FBEDC
:1000C000CFEFD8E0DEBFCDBF12E0A0E0B1E0E8EDB9
:1000D000FFE102C005900D92AA35B107D9F724E0DF
:1000E000AAE5B2E001C01D92A034B207E1F710E02A
:1000F000CDE5D0E004C02197FE010E94D30DCC35A0
:10010000D107C9F70E940A0B0C94DF0F0C94000072
:100110008FEF90E0909363028093620210926102ED
:100120001092600210925F0210925E02089590E0B9
:10013000FC01EC55FF4F2491FC01E057FF4F349137
:10014000FC01E458FF4FE491EE23C9F0222339F07B
:10015000233001F1A8F4213019F1223029F1F0E027
:10016000EE0FFF1FEE58FF4FA591B4918FB7F89493
:10017000EC91611126C030953E233C938FBF0895CA
:100180002730A9F02830C9F0243049F78091800049
:100190008F7D03C0809180008F7780938000DFCFB8
:1001A00084B58F7784BDDBCF84B58F7DFBCF809105
:1001B000B0008F778093B000D2CF8091B0008F7D58
:1001C000F9CF3E2BDACFCF93DF9390E0FC01E057DD
:1001D000FF4F249184589F4FFC0184918823C9F0DC
:1001E00090E0880F991FFC01E859FF4FA591B49149
:1001F000FC01EE58FF4FC591D49161110DC09FB71E
:10020000F8948C91209582238C93888128232883CD
:100210009FBFDF91CF910895623051F49FB7F8945A
:100220003C91822F809583238C93E8812E2BEFCFF6
:100230008FB7F894EC912E2B2C938FBFEACF1F939E
:10024000CF93DF93182FEB0161E00E94E30020972A
:1002500039F460E0812FDF91CF911F910C949700CA
:10026000E12FF0E0EC55FF4FE491E33039F148F431
:10027000E130B9F0E230E9F0C038D10551F761E082
:10028000E9CFE73029F1E83059F1E430A9F780915E
:100290008000806280938000D0938B00C0938A009E
:1002A00004C084B5806884BDC7BDDF91CF911F9124
:1002B000089584B5806284BDC8BDF7CF8091800069
:1002C000806880938000D0938900C0938800EDCF30
:1002D0008091B00080688093B000C093B300E5CFF8
:1002E0008091B00080628093B000C093B400DDCFF5
:1002F0000F931F93CF93DF930091000110910101A1
:100300002091620230916302029FC001039F900D11
:10031000129F900D1124CFEFD0E0BE010E94A40DDA
:1003200089E00E941F012091600230916102029FCA
:10033000C001039F900D129F900D1124BE010E94D9
:10034000A40D8AE00E941F0120915E0230915F029D
:10035000029FC001039F900D129F900D1124BE01BA
:100360000E94A40D8BE0DF91CF911F910F910C940F
:100370001F012FB7F89460917602709177028091F7
:100380007802909179022FBF089581E080936A02EC
:10039000089581E080936702089581E0809366026A
:1003A000089508950895AF92BF92CF92DF92EF9291
:1003B000FF920F931F93CF93DF936C017B018B010F
:1003C000040F151FEB015E01AE18BF08C017D1075F
:1003D00059F06991D601ED91FC910190F081E02DE9
:1003E000C6010995892B79F7C501DF91CF911F913E
:1003F0000F91FF90EF90DF90CF90BF90AF90089556
:10040000FC01538D448D252F30E0842F90E0821B1A
:10041000930B541710F0CF96089501970895FC019F
:10042000918D828D981761F0A28DAE0FBF2FB11DF7
:100430005D968C91928D9F5F9F73928F90E008954F
:100440008FEF9FEF08950F931F930E94B901609360
:1004500082027093830280938402909385028AE7DC
:1004600092E00E940F0297FF1DC00E94B901009107
:100470008202109183022091840230918502601BD8
:10048000710B820B930B00917E0210917F022091E1
:100490008002309181026017710782079307F8F29A
:1004A0008FEF9FEF1F910F910895FC01918D828D29
:1004B000981731F0828DE80FF11D858D90E0089539
:1004C0008FEF9FEF0895FC01918D228D892F90E091
:1004D000805C9F4F821B91098F73992708958AE74B
:1004E00092E00E94630221E0892B09F420E0822F30
:1004F000089580E090E0892B29F00E946F0281111D
:100500000C9400000895FC01A48DA80FB92FB11D13
:10051000A35ABF4F2C91848D90E001968F73992739
:10052000848FA689B7892C93A089B1898C91837017
:1005300080648C93938D848D981306C00288F38910
:10054000E02D80818F7D80830895EF92FF920F933D
:100550001F93CF93DF93EC0181E0888F9B8D8C8D6F
:1005600098131AC0E889F989808185FF15C09FB763
:10057000F894EE89FF896083E889F9898081837026
:10058000806480839FBF81E090E0DF91CF911F91D5
:100590000F91FF90EF900895F62E0B8D10E00F5FF6
:1005A0001F4F0F731127E02E8C8D8E110CC00FB6CC
:1005B00007FCFACFE889F989808185FFF5CFCE0164
:1005C0000E948302F1CFEB8DEC0FFD2FF11DE35A5A
:1005D000FF4FF0829FB7F8940B8FEA89FB898081E7
:1005E0008062CFCFCF93DF93EC01888D8823B9F061
:1005F000AA89BB89E889F9898C9185FD03C080812E
:1006000086FD0DC00FB607FCF7CF8C9185FFF2CFAA
:10061000808185FFEDCFCE010E948302E9CFDF917B
:10062000CF910895EF92FF921F93CF93DF93EC0148
:100630008A819A819E7F9A839A819D7F9A83182FBF
:10064000117080FF13C0EF8DF8A1309779F0ADA144
:10065000BEA11496ED90FC9015971596DC93CE9361
:1006600014970995EDA1FEA1F582E482812FDF9117
:10067000CF911F91FF90EF900895CF93DF93EC01FE
:100680004B835C836D837E838B819C81AD81BE8136
:100690008F839887A987BA870E94B9016B877C8767
:1006A0008D879E87DF91CF9108950F931F93CF93EE
:1006B000DF93FC01A5A1B6A1109709F448C0EC0195
:1006C000178A108E118E128E82818B7F8283058C09
:1006D000F68DE02D3097B9F18A8181FD34C01496F2
:1006E0000D911C9115971596DC93CE9314978A81E2
:1006F00082608A8309959A8180FB90F99A838A8126
:100700008D7F8A83EDA1FEA1158304838B819C815B
:10071000AD81BE818F839887A987BA870E94B9016E
:100720000F81188529853A85601B710B820B930B0D
:100730006B877C878D879E878A818170DF91CF91BF
:100740001F910F9108958A8181608A83DFCF80E0B5
:10075000F5CF0F93CF93DF93EC018CE291E0998377
:1007600088838A818E7F8A838A818D7F8A838A812A
:100770008B7F8A831B861C861D861E861B821C829D
:100780001D821E821F82188619861A861AA219A235
:100790001CA21BA21EA21DA21F8A188E198E1A8EC1
:1007A0003C8F2B8F1E8E1D8E18A21F8ECE010E9495
:1007B0003D038FEF9FEFDC018F87988BA98BBA8B5E
:1007C0008B8B9C8BAD8BBE8B8DA19EA1892BD9F47D
:1007D00010922F0488E294E09EA38DA380912804B8
:1007E00090912904892BB9F4D0932904C09328044B
:1007F0001AA219A21CA21BA2D0932B04C0932A04F4
:1008000081E080932F04002379F0CE01DF91CF9116
:100810000F910C945503E0912A04F0912B04FAA354
:10082000E9A3D4A3C3A3E6CFDF91CF910F9108959D
:10083000CF93DF93EC018CE291E0998388838A81E6
:1008400080FF03C0CE010E941203EDA1FEA13097EC
:1008500089F017821EA21DA2A9A1BAA18BA19CA1F9
:10086000109799F4009749F4118210821382128232
:1008700081E08783DF91CF910895DC0192961C92ED
:100880001E92919791838083F3CF009739F49496C9
:100890001C921E929397B383A283EACF94969C9363
:1008A0008E9393970BA0DCA1C02DBAA3A9A3E0CF90
:1008B000FC0101900020E9F73197AF01481B590B6B
:1008C000BC018AE792E00C94D3018F929F92AF9281
:1008D000BF920F931F93CF93DF93CDB7DEB7A1974E
:1008E0000FB6F894DEBF0FBECDBF19A2423008F498
:1008F0004AE08E010F5D1F4F842E912CB12CA12C4C
:10090000A50194010E94730DE62FB901CA01EA30D6
:10091000F4F4E05DD801EE938D01232B242B252BDD
:1009200079F790E080E0109719F0CD010E9458040B
:10093000A1960FB6F894DEBF0FBECDBFDF91CF9169
:100940001F910F91BF90AF909F908F900895E95C99
:10095000E1CFCF93DF934AE00E946504EC0182E48B
:1009600091E00E9458048C0F9D1FDF91CF91089554
:10097000CF93DF930E945804EC0182E491E00E943F
:1009800058048C0F9D1FDF91CF91089580916402D0
:10099000909165028230910509F454C02CF40097BF
:1009A00059F0019771F108958330910509F46BC0F6
:1009B000049709F4AAC008958FEF90E09093630222
:1009C00080936202109261021092600210925F02A4
:1009D00010925E0285E491E00E94B80440911E01ED
:1009E00050911F01609120017091210181E094E0FC
:1009F0000E943D0381E090E0909365028093640241
:100A0000089510926302109262028FEF90E090932B
:100A100061028093600210925F0210925E0289E48C
:100A200091E00E94B8044091060150910701609145
:100A300008017091090181E094E00E943D0382E089
:100A400090E0DACF1092630210926202109261027B
:100A5000109260028FEF90E090935F0280935E02AD
:100A600080E591E00E94B804409102015091030199
:100A7000609104017091050181E094E00E943D03C2
:100A800083E090E0B9CF80915C02109263021092F3
:100A900062021092610210926002882311F18FEFBE
:100AA00090E090935F0280935E0280E591E00E9467
:100AB000B80410925C0280915A0290915B020196F8
:100AC00090935B0280935A0280915A0290915B024C
:100AD00003979CF010925B0210925A0284E090E01F
:100AE0008BCF10925F0210925E0286E591E00E9429
:100AF000B80481E080935C02E7CF46EA50E060E012
:100B000070E081E094E00C943D0310926302109237
:100B100062028FEF90E090936102809360021092E6
:100B20005F0210925E0289E491E00E94B804409155
:100B3000060150910701609108017091090181E05F
:100B400094E00E943D0310926502109264020895A1
:100B500080915D028823C9F08FEF90E0909363024B
:100B600080936202909361028093600290935F028F
:100B700080935E0283E691E00E94B80480915D025A
:100B800091E0892780935D0208951092630210928C
:100B90006202109261021092600210925F02109243
:100BA0005E0286E591E0E8CFCF93DF93EC0181E030
:100BB00094E00E9412038AED93E00E94120383EBFB
:100BC00093E00E941203C230D10521F1C330D10558
:100BD00041F1C130D10599F0109265021092640282
:100BE00081E094E00E94550383E791E00E94B804FD
:100BF000D0936902C0936802DF91CF9108958AED86
:100C000093E00E9455038FE791E00E94B80485E4C9
:100C100091E0ECCF83EB93E00E9455038EE891E0E6
:100C2000E5CF10926302109262021092610210925C
:100C3000600210925F0210925E028CE991E00E94C5
:100C4000B80486E591E0D2CF80916A02882381F0D2
:100C500085EA91E00E94B80480916802909169024F
:100C6000019779F590E080E00E94D40510926A0225
:100C700080916702882381F08EEB91E00E94B80496
:100C800080916802909169020297F1F490E080E00F
:100C90000E94D4051092670280916602882381F039
:100CA00086ED91E00E94B8048091680290916902FB
:100CB000039769F490E080E00E94D40510926602E8
:100CC000089581E090E0D0CF82E090E0E1CF83E032
:100CD00090E0F2CFCF92DF92EF92FF9280E4809388
:100CE0007C0080917A00806480937A0080917A0001
:100CF00086FDFCCFA0917800B09179002FEF30E015
:100D00000E94B80D2FEF33E040E050E00E941D0D2F
:100D10008091000190910101B901681B790BCB0111
:100D200077FF03C0919581959109039764F1309302
:100D30000101209300018CEE91E00E945804C090C4
:100D40000001D09001010D2C000CEE08FF084AE0D4
:100D5000C701B601F7FE0DC06DE28AE792E00E947E
:100D6000A50266277727CB016C197D098E099F099B
:100D70004AE00E94650482E491E0FF90EF90DF90EA
:100D8000CF900C945804FF90EF90DF90CF9008958F
:100D9000FC0124813581232B39F421E0FB01808182
:100DA000882349F020E007C0808191810E94CF0F05
:100DB00021E0892BB9F7822F08950F931F93CF93CA
:100DC000DF93EC0188819981009759F02A813B815A
:100DD0002617370730F081E0DF91CF911F910F91F7
:100DE00008958B016F5F7F4F0E94FE0E009759F0B0
:100DF000998388831B830A832C813D81232B59F798
:100E0000FC011082E8CF80E0E7CFCF93DF93EC01C5
:100E100088819981009711F00E94750E19821882BD
:100E20001D821C821B821A82DF91CF910895CF937D
:100E3000DF93EC0170E060E00E94DD06811105C0E7
:100E4000CE01DF91CF910C9405071D821C8264E4D2
:100E500071E088819981DF91CF910C94D80F9F9296
:100E6000AF92BF92CF92DF92EF92FF920F931F93B8
:100E7000CF93DF93EC016B015A01790124173507F9
:100E800020F48B2D5901E42EF82E198218821B8232
:100E90001A821D821C82CE010E941707D601149669
:100EA0000D911C91A016B10658F5E016F10608F454
:100EB0008701D601ED91FC911197E00FF11F908011
:100EC0001082ED90FC90EA0CFB1CE114F10471F02F
:100ED000F70101900020E9F731975F01AE18BF08D4
:100EE000B501CE010E94DD06811117C0CE010E941E
:100EF0000507F60180819181080F191FD8019C9286
:100F0000CE01DF91CF911F910F91FF90EF90DF9075
:100F1000CF90BF90AF909F900895BD82AC82B701F3
:100F2000888199810E94D80FE4CFFC018081918152
:100F3000009711F00C94750E0895CF93DF93EC0198
:100F40000E941804CE01DF91CF910C94750EAF92E0
:100F5000BF92CF92DF92EF92FF920F931F93CF93A6
:100F6000DF93CDB7DEB762970FB6F894DEBF0FBE42
:100F7000CDBF8AE792E00E946302181619060CF0B2
:100F800094C01E861D86188A1F861A8A198ACE0169
:100F90000D960E9417070E94230209891A8997FD5E
:100FA0001CC08A309105C9F089831A820F5F1F4FD8
:100FB000B801CE010D960E94DD06882361F32D85D0
:100FC0003E8589899A89BE016F5F7F4F820F931F8B
:100FD0000E94D80F1A8B098BDECFCD84DE84C1141A
:100FE000D10429F076010115110509F070C0898935
:100FF0009A89892B09F455C00D851E856AE370E036
:10100000C8010E94C40F009709F44BC09C01201B2B
:10101000310B8901121613060CF043C050E040E07A
:10102000BE01635F7F4FCE0107960E942F0729897B
:101030003A89A8014F5F5F4FBE01635F7F4FCE01CA
:1010400001960E942F0765E471E0CE0107960E9489
:10105000C806882309F475C089819A81009709F42C
:101060006CC00E94D50C60931E0170931F01809389
:1010700020019093210189EF91E00E945804609132
:101080001E0170911F0180912001909121010E9409
:10109000A904CE0101960E949507CE0107960E94F1
:1010A0009507CE010D960E94950762960FB6F894AB
:1010B000DEBF0FBECDBFDF91CF911F910F91FF908B
:1010C000EF90DF90CF90BF90AF90089575015701DA
:1010D0002FEFA21AB20AF7018081082E000C990B9B
:1010E0000E94110D892B91F7015011090C0D1D1D46
:1010F000F8018081082E000C990B0E94110D892B9C
:1011000031F00E151F0518F001501109F1CFA8019B
:101110004F5F5F4F4E195F095A8B498BCE14DF0426
:1011200020F4B701C6010E94BB0FED85FE858989B9
:101130009A89E80FF91F10825ACF60E070E0CB0166
:1011400092CF69E471E0CE0107960E94C806882319
:10115000F9F089819A810097B9F00E94D50C6093CB
:10116000060170930701809308019093090187E0BD
:1011700092E00E94580460910601709107018091ED
:1011800008019091090183CF60E070E0CB01E7CFC7
:1011900060E571E0CE0107960E94C8068823F9F049
:1011A00089819A810097B9F00E94D50C6093020161
:1011B00070930301809304019093050188E192E00C
:1011C0000E94580460910201709103018091040112
:1011D000909105015CCF60E070E0CB01E7CF68E261
:1011E00072E0CE0107960E94C806882399F168E74D
:1011F00071E0CE0101960E94C806882329F090E094
:1012000080E00E94D40545CF64E871E0CE010196EC
:101210000E94C806882319F081E090E0F2CF63E9CC
:1012200071E0CE0101960E94C806882319F082E081
:1012300090E0E7CF61EA71E0CE0101960E94C80616
:10124000882319F083E090E0DCCF8DE292E00E94E9
:10125000B8041FCF8AE392E0FACF1F920F920FB625
:101260000F9211242F933F938F939F93AF93BF932C
:101270008091760290917702A0917802B0917902E4
:101280003091750223E0230F2D3758F50196A11DEB
:10129000B11D209375028093760290937702A093FC
:1012A0007802B09379028091710290917202A091BC
:1012B0007302B09174020196A11DB11D8093710259
:1012C00090937202A0937302B0937402BF91AF9196
:1012D0009F918F913F912F910F900FBE0F901F9074
:1012E000189526E8230F0296A11DB11DD2CF1F929B
:1012F0000F920FB60F9211242F933F934F935F934A
:101300006F937F938F939F93AF93BF93EF93FF93CD
:10131000E0911A01F0911B010995FF91EF91BF91A6
:10132000AF919F918F917F916F915F914F913F917D
:101330002F910F900FBE0F901F9018951F920F9234
:101340000FB60F9211242F933F934F935F936F9398
:101350007F938F939F93AF93BF93EF93FF93E0910E
:101360001801F09119010995FF91EF91BF91AF918B
:101370009F918F917F916F915F914F913F912F91AD
:101380000F900FBE0F901F9018951F920F920FB6DF
:101390000F9211242F933F934F935F936F937F93FB
:1013A0008F939F93AF93BF93EF93FF938AE792E05E
:1013B0000E948302FF91EF91BF91AF919F918F9116
:1013C0007F916F915F914F913F912F910F900FBE41
:1013D0000F901F9018951F920F920FB60F92112425
:1013E0002F938F939F93EF93FF93E0918A02F09155
:1013F0008B028081E0919002F091910282FD1BC0EE
:101400009081809193028F5F8F7320919402821755
:1014100041F0E0919302F0E0E658FD4F958F809304
:101420009302FF91EF919F918F912F910F900FBE9B
:101430000F901F9018958081F4CF1F920F920FB6D6
:101440000F9211242F933F934F935F936F937F934A
:101450008F939F93AF93BF93CF93EF93FF9399B1E4
:10146000C0916D02C095809170028923C82390932A
:101470006D02C4FF05C0E0911C01F0911D010995AA
:10148000C5FF05C0E0910A01F0910B010995C6FF67
:1014900005C0E0910C01F0910D010995C7FF05C051
:1014A000E0910E01F0910F010995C0FF05C0E09198
:1014B0001001F09111010995C1FF05C0E0911201E1
:1014C000F09113010995C2FF05C0E0911401F0915C
:1014D00015010995C3FF05C0E0911601F0911701B0
:1014E0000995FF91EF91CF91BF91AF919F918F910E
:1014F0007F916F915F914F913F912F910F900FBE10
:101500000F901F9018950F93EAE7F2E01382128272
:1015100088EE93E0A0E0B0E084839583A683B78350
:1015200084E391E09183808385EC90E095878487C4
:1015300084EC90E09787868780EC90E0918B808B9D
:1015400081EC90E0938B828B82EC90E0958B848B86
:1015500086EC90E0978B868B118E128E138E148EF4
:10156000E8E2F4E01782118210821382128215825F
:101570001482168281E0878340911E0150911F01E1
:10158000609120017091210100E026EC34E081E0BF
:1015900094E00E94A90328E830E044E650E060E0CF
:1015A00070E08AED93E00E94A90328EA35E044EF59
:1015B00051E060E070E083EB93E00E94A90301E05A
:1015C00024E236E042E350E060E070E08CE893E033
:1015D0000E94A9032AE636E042E350E060E070E0B2
:1015E00085E693E00E94A90327EA37E042E350E052
:1015F00060E070E08EE393E00E94A90328E731E009
:1016000044E150E060E070E087E193E00E94A903CC
:101610000F910895789484B5826084BD84B581600B
:1016200084BD85B5826085BD85B5816085BD8091AD
:101630006E00816080936E00109281008091810025
:10164000826080938100809181008160809381001D
:10165000809180008160809380008091B1008460DF
:101660008093B1008091B00081608093B000809140
:101670007A00846080937A0080917A0082608093FF
:101680007A0080917A00816080937A0080917A005C
:10169000806880937A001092C10061E089E00E9426
:1016A000E30061E08AE00E94E30061E08BE00E94D9
:1016B000E30062E082E00E94E30062E083E00E94D7
:1016C000E30062E084E00E94E30060E08EE00E94BC
:1016D000E30085EC91E090931901809318018091CB
:1016E0006900836080936900E89A89EC91E09093A7
:1016F0001B0180931A01809169008C6080936900BE
:10170000E99A8DEC91E090931D0180931C018091EA
:10171000700280618093700289B180936D02809124
:101720006D00806180936D0080916800846080937B
:101730006800E0918A02F0918B0282E08083E09160
:101740008602F09187021082E0918802F09189026E
:101750008FEC808310929202E0918E02F0918F02C2
:1017600086E08083E0918C02F0918D02808180611F
:101770008083E0918C02F0918D028081886080836B
:10178000E0918C02F0918D02808180688083E091ED
:101790008C02F0918D0280818F7D80838AE492E0BB
:1017A0000E94B80490E080E00E94D405C0E0D0E040
:1017B000809128049091290490932D0480932C0407
:1017C00010923004109231041092320410923304BB
:1017D000109234041092350410923604109237049B
:1017E000109238041092390410923A0410923B047B
:1017F00080912F04882309F4B1C080912E048111B7
:10180000ADC0E0912C04F0912D04309709F4A6C0EE
:101810008091340490913504A0913604B09137043E
:101820000196A11DB11D8093340490933504A093BB
:101830003604B093370403A114A1828180FF1EC037
:101840008091300490913104A0913204B09133041E
:101850000196A11DB11D8093300490933104A09393
:101860003204B093330487859089A189B289892B8A
:101870008A2B8B2B41F4CF010E94120310932D046D
:1018800000932C04BACF0E94B901E0912C04F0918E
:101890002D04438054806580768083849484A5845D
:1018A000B684C780D084E184F284DC01CB0188193E
:1018B0009909AA09BB098C159D05AE05BF05F0F273
:1018C00087859089A189B289181619061A061B0600
:1018D0005CF487859089A189B2890197A109B10932
:1018E0008787908BA18BB28B8789908DA18DB28DCC
:1018F0000196A11DB11D878B908FA18FB28F83851B
:101900009485A585B685C780D084E184F2848C0D4A
:101910009D1DAE1DBF1D83879487A587B68747820F
:10192000508661867286038CF48DE02D309709F421
:10193000A5CF09958091380490913904A0913A047B
:10194000B0913B040196A11DB11D80933804909382
:101950003904A0933A04B0933B0490CF209709F444
:1019600027CF0E946F02882309F422CF0E94000033
:101970001FCF87E193E00E9418048EE393E00E945A
:10198000180485E693E00E9418048CE893E00E9416
:10199000180483EB93E00E9418048AED93E00E9400
:1019A000180481E094E00C9418041F93FC0199271B
:1019B0008827BC01E89411911032E9F3193010F036
:1019C0001E30C8F31B3251F01D3249F4689406C032
:1019D0000E94FC0C610F711D811D911D119110530E
:1019E0001A30B0F33EF490958095709561957F4FD5
:1019F0008F4F9F4F1F910895592F482F372F262F14
:101A0000660F771F881F991F660F771F881F991F02
:101A1000620F731F841F951F660F771F881F991F02
:101A2000089591110C941A0D803219F08950855047
:101A3000C8F70895992788270895052E97FB1EF467
:101A400000940E94340D57FD07D00E94730D07FCCF
:101A500003D04EF40C94340D50954095309521955B
:101A60003F4F4F4F5F4F08959095809570956195CA
:101A70007F4F8F4F9F4F08952F923F924F925F92CB
:101A80006F927F928F929F92AF92BF92CF92DF928E
:101A9000EF92FF920F931F93CF93DF93CDB7DEB7F3
:101AA000CA1BDB0B0FB6F894DEBF0FBECDBF099487
:101AB0002A88398848885F846E847D848C849B84DE
:101AC000AA84B984C884DF80EE80FD800C811B81EC
:101AD000AA81B981CE0FD11D0FB6F894DEBF0FBE1B
:101AE000CDBFED010895A1E21A2EAA1BBB1BFD017B
:101AF0000DC0AA1FBB1FEE1FFF1FA217B307E407ED
:101B0000F50720F0A21BB30BE40BF50B661F771F44
:101B1000881F991F1A9469F7609570958095909524
:101B20009B01AC01BD01CF010895A29FB001B39FFD
:101B3000C001A39F700D811D1124911DB29F700DD6
:101B4000811D1124911D089597FB072E16F4009412
:101B500007D077FD09D00E94BF0D07FC05D03EF4E9
:101B6000909581959F4F0895709561957F4F089549
:101B70000E94950DB7FF0895821B930B0895AA1B31
:101B8000BB1B51E107C0AA1FBB1FA617B70710F068
:101B9000A61BB70B881F991F5A95A9F7809590959A
:101BA000BC01CD010895EE0FFF1F0590F491E02DCB
:101BB00009940F931F93CF93DF938230910510F414
:101BC00082E090E0E0913E04F0913F0430E020E0BC
:101BD000B0E0A0E0309799F42115310509F44AC02E
:101BE000281B390B24303105D8F58A819B8161157A
:101BF000710589F1FB0193838283FE0111C040814D
:101C000051810281138148175907E0F0481759079D
:101C100099F4109761F012960C93129713961C93F7
:101C20003296CF01DF91CF911F910F9108950093CC
:101C30003E0410933F04F4CF2115310551F04217B3
:101C4000530738F0A901DB019A01BD01DF01F8015A
:101C5000C1CFEF01F9CF90933F0480933E04CDCFE5
:101C6000FE01E20FF31F81939193225031093983D2
:101C70002883D7CF20913C0430913D04232B41F49D
:101C8000209124013091250130933D0420933C04A0
:101C900020912201309123012115310541F42DB706
:101CA0003EB74091260150912701241B350BE0914E
:101CB0003C04F0913D04E217F307A0F42E1B3F0B08
:101CC0002817390778F0AC014E5F5F4F24173507AE
:101CD00048F04E0F5F1F50933D0440933C048193A6
:101CE00091939FCFF0E0E0E09CCFCF93DF930097FC
:101CF000E9F0FC01329713821282A0913E04B09168
:101D00003F04ED0130E020E01097A1F42081318103
:101D1000820F931F20913C0430913D04281739070E
:101D200009F061C0F0933D04E0933C04DF91CF9152
:101D30000895EA01CE17DF07E8F54A815B819E012D
:101D400041155105B1F7E901FB83EA8349915991A6
:101D5000C40FD51FEC17FD0761F4808191810296B5
:101D6000840F951FE90199838883828193819B83E6
:101D70008A83F0E0E0E012968D919C911397009792
:101D8000B9F52D913C911197CD010296820F931FC9
:101D900020913C0430913D042817390739F63097DB
:101DA00051F510923F0410923E04B0933D04A0936D
:101DB0003C04BCCFD383C28340815181840F951FE3
:101DC000C817D90761F44E5F5F4F88819981480F2A
:101DD000591F518340838A819B819383828321157C
:101DE000310509F0B0CFF0933F04E0933E049ECF5D
:101DF000FD01DC01C0CF13821282D7CFB0E0A0E09A
:101E0000E4E0FFE00C943E0D8C01009751F4CB010F
:101E10000E94D90D8C01C801CDB7DEB7E0E10C946A
:101E20005A0DFC01E60FF71F9C0122503109E21701
:101E3000F30708F49DC0D901CD91DC911197C61725
:101E4000D70798F0C530D10530F3CE010497861737
:101E5000970708F3C61BD70B2297C193D1936D93B5
:101E60007C93CF010E94750ED6CF5B01AC1ABD0AE0
:101E70004C018C0E9D1EA0913E04B0913F04512C4C
:101E8000412CF12CE12C109731F580913C0490917C
:101E90003D048815990509F05CC04616570608F000
:101EA00058C08091220190912301009741F48DB791
:101EB0009EB74091260150912701841B950BE8178E
:101EC000F90708F055C0F0933D04E0933C04F90194
:101ED00071836083A0CF8D919C91119712966C9025
:101EE000129713967C901397A815B90559F56C01B4
:101EF00042E0C40ED11CCA14DB0420F1AC014A1923
:101F00005B09DA011296159780F062827382518321
:101F10004083D9016D937C93E114F10471F0D701F2
:101F20001396FC93EE93129776CF22968C0F9D1FFB
:101F3000F90191838083F301EFCFF0933F04E093A5
:101F40003E0469CF4816590608F42C017D01D301DF
:101F50009ACFCB010E94D90D7C01009749F0AE01C8
:101F6000B8010E94BB0FC8010E94750E870153CFB4
:101F700010E000E050CFFB01DC0102C001900D92A7
:101F800041505040D8F70895FC018191861721F007
:101F90008823D9F7992708953197CF010895FB0138
:101FA000DC018D91019080190110D9F3990B0895EE
:101FB000FB01DC0101900D920020E1F7089510E093
:101FC000CDE5D0E004C0FE010E94D30D2196CE35B0
:081FD000D107C9F7F894FFCF17
:101FD800FF00D0070000F4010000D101D101D101B8
:101FE800D101D101D101D101D201D201D101D00752
:101FF80000000000400480000000000018049D0755
:1020080000000000A502D3010002F20263020F02E1
:1020180055020D0A005245440059454C4C4F570093
:10202800475245454E00414C4C5F4C4544735F4F09
:10203800464600424C494E4B494E475F414C4C5F27
:102048004F4E004D4F44453A4E4F524D414C004D76
:102058004F44453A454D455247454E4359004D4F2B
:1020680044453A424C494E4B494E47004D4F444532
:102078003A4F464600456D657267656E6379206222
:102088007574746F6E207072657373656400426C4A
:10209800696E6B696E6720627574746F6E207072FA
:1020A800657373656400546F67676C652062757447
:1020B800746F6E207072657373656400427269672D
:1020C80068746E6573733A20005245445F445552F4
:1020D8004154494F4E3A0059454C4C4F575F44556F
:1020E800524154494F4E3A00475245454E5F445578
:1020F800524154494F4E3A004D4F444500496E767F
:10210800616C6964206D6F646500496E76616C6905
:102118006420636F6D6D616E640053657269616CF4
:0A2128002073746172746564000096
:00000001FF
