:100000000C945E000C945F090C9438090C948600E3
:100010000C9486000C94DE090C9486000C948600E7
:100020000C9486000C9486000C9486000C94860038
:100030000C9486000C9486000C9486000C94860028
:100040000C94EE080C9486000C94AC090C94860970
:100050000C9486000C9486000C9486000C94860008
:100060000C9486000C9486000000000024002700F9
:100070002A0000000000250028002B0004040404CE
:100080000404040402020202020203030303030342
:10009000010204081020408001020408102001021F
:1000A00004081020000000080002010000030407FB
:1000B0000000000000000000440A700C11241FBE64
:1000C000CFEFD8E0DEBFCDBF12E0A0E0B1E0EEE3BD
:1000D000FFE102C005900D92AA36B107D9F724E0DE
:1000E000AAE6B2E001C01D92A332B207E1F710E028
:1000F000CDE5D0E004C02197FE010E94860DCC35ED
:10010000D107C9F70E94C10A0C94920F0C94000009
:1001100090E0FC01EC55FF4F2491FC01E057FF4FAC
:100120003491FC01E458FF4FE491EE23C9F02223FF
:1001300039F0233001F1A8F4213019F1223029F1EE
:10014000F0E0EE0FFF1FEE58FF4FA591B4918FB76F
:10015000F894EC91611126C030953E233C938FBFFB
:1001600008952730A9F02830C9F0243049F780914C
:1001700080008F7D03C0809180008F778093800006
:10018000DFCF84B58F7784BDDBCF84B58F7DFBCF88
:100190008091B0008F778093B000D2CF8091B00073
:1001A0008F7DF9CF3E2BDACFCF93DF9390E0FC0128
:1001B000E057FF4F249184589F4FFC01849188237E
:1001C000D1F090E0880F991FFC01E859FF4FA591ED
:1001D000B491FC01EE58FF4FC591D49161110EC04E
:1001E0009FB7F8948C91E22FE0958E238C93288111
:1001F000E223E8839FBFDF91CF9108958FB7F894F2
:10020000EC91E22BEC938FBFF6CF1F93CF93DF934C
:10021000182FEB0161E00E94D400209739F460E0D0
:10022000812FDF91CF911F910C948800E12FF0E096
:10023000EC55FF4FE491E33039F148F4E130B9F087
:10024000E230E9F0C038D10551F761E0E9CFE7309D
:1002500029F1E83059F1E430A9F7809180008062FB
:1002600080938000D0938B00C0938A0004C084B533
:10027000806884BDC7BDDF91CF911F91089584B57B
:10028000806284BDC8BDF7CF809180008068809374
:100290008000D0938900C0938800EDCF8091B0009A
:1002A00080688093B000C093B300E5CF8091B00028
:1002B00080628093B000C093B400DDCF2FB7F89474
:1002C00060918002709181028091820290918302FC
:1002D0002FBF089581E080937402089581E0809398
:1002E0007102089581E08093700208950895089541
:1002F000AF92BF92CF92DF92EF92FF920F931F9334
:10030000CF93DF936C017B018B01040F151FEB0171
:100310005E01AE18BF08C017D10759F06991D60128
:10032000ED91FC910190F081E02DC6010995892B9A
:1003300079F7C501DF91CF911F910F91FF90EF9059
:10034000DF90CF90BF90AF900895FC01538D448D06
:10035000252F30E0842F90E0821B930B541710F070
:10036000CF96089501970895FC01918D828D98177D
:1003700061F0A28DAE0FBF2FB11D5D968C91928D55
:100380009F5F9F73928F90E008958FEF9FEF089586
:100390000F931F930E945E0160938C0270938D02F5
:1003A00080938E0290938F0284E892E00E94B401C1
:1003B00097FF1DC00E945E0100918C0210918D027A
:1003C00020918E0230918F02601B710B820B930B78
:1003D000009188021091890220918A0230918B024B
:1003E0006017710782079307F8F28FEF9FEF1F9155
:1003F0000F910895FC01918D828D981731F0828DB7
:10040000E80FF11D858D90E008958FEF9FEF08951F
:10041000FC01918D228D892F90E0805C9F4F821B83
:1004200091098F739927089584E892E00E94080249
:1004300021E0892B09F420E0822F089580E090E0EC
:10044000892B29F00E94140281110C940000089558
:10045000FC01A48DA80FB92FB11DA35ABF4F2C9139
:10046000848D90E001968F739927848FA689B78930
:100470002C93A089B1898C91837080648C93938D27
:10048000848D981306C00288F389E02D80818F7DCA
:1004900080830895EF92FF920F931F93CF93DF9382
:1004A000EC0181E0888F9B8D8C8D98131AC0E889B0
:1004B000F989808185FF15C09FB7F894EE89FF897F
:1004C0006083E889F98980818370806480839FBF1D
:1004D00081E090E0DF91CF911F910F91FF90EF901D
:1004E0000895F62E0B8D10E00F5F1F4F0F7311272D
:1004F000E02E8C8D8E110CC00FB607FCFACFE88968
:10050000F989808185FFF5CFCE010E942802F1CFC5
:10051000EB8DEC0FFD2FF11DE35AFF4FF0829FB7DB
:10052000F8940B8FEA89FB8980818062CFCFCF93CB
:10053000DF93EC01888D8823B9F0AA89BB89E8890B
:10054000F9898C9185FD03C0808186FD0DC00FB6B1
:1005500007FCF7CF8C9185FFF2CF808185FFEDCF2F
:10056000CE010E942802E9CFDF91CF910895CF926A
:10057000DF92EF92FF920F931F93CF93DF936B0164
:100580007A0100910201109103019C01029FC001B8
:10059000039F900D129F900D1124CFEFD0E0BE016C
:1005A0000E94570D89E00E9405010C9DC0010D9D20
:1005B000900D1C9D900D1124BE010E94570D8AE0E4
:1005C0000E9405010E9DC0010F9D900D1E9D900D76
:1005D0001124BE010E94570D8BE0DF91CF911F9136
:1005E0000F91FF90EF90DF90CF900C94050150E0B9
:1005F00040E070E060E08FEF90E00C94B702EF9283
:10060000FF921F93CF93DF93EC018A819A819E7FA3
:100610009A839A819D7F9A83182F117080FF13C04F
:10062000EF8DF8A1309779F0ADA1BEA11496ED90B1
:10063000FC9015971596DC93CE9314970995EDA130
:10064000FEA1F582E482812FDF91CF911F91FF906F
:10065000EF900895CF93DF93EC014B835C836D8320
:100660007E838B819C81AD81BE818F839887A98792
:10067000BA870E945E016B877C878D879E87DF919A
:10068000CF9108950F931F93CF93DF93FC01A5A102
:10069000B6A1109709F448C0EC01178A108E118E8C
:1006A000128E82818B7F8283058CF68DE02D3097B0
:1006B000B9F18A8181FD34C014960D911C91159772
:1006C0001596DC93CE9314978A8182608A8309956C
:1006D0009A8180FB90F99A838A818D7F8A83EDA12C
:1006E000FEA1158304838B819C81AD81BE818F83A4
:1006F0009887A987BA870E945E010F81188529858E
:100700003A85601B710B820B930B6B877C878D87FF
:100710009E878A818170DF91CF911F910F910895FB
:100720008A8181608A83DFCF80E0F5CF0F93CF93FA
:10073000DF93EC018EE291E0998388838A818E7F3A
:100740008A838A818D7F8A838A818B7F8A831B86B5
:100750001C861D861E861B821C821D821E821F8295
:10076000188619861A861AA219A21CA21BA21EA2FA
:100770001DA21F8A188E198E1A8E3C8F2B8F1E8EEB
:100780001D8E18A21F8ECE010E942A038FEF9FEFAD
:10079000DC018F87988BA98BBA8B8B8B9C8BAD8B55
:1007A000BE8B8DA19EA1892BD9F4109212048BE0EF
:1007B00094E09EA38DA380910B0490910C04892B4F
:1007C000B9F4D0930C04C0930B041AA219A21CA272
:1007D0001BA2D0930E04C0930D0481E080931204F9
:1007E000002379F0CE01DF91CF910F910C94420359
:1007F000E0910D04F0910E04FAA3E9A3D4A3C3A3DE
:10080000E6CFDF91CF910F910895CF93DF93EC0165
:100810008EE291E0998388838A8180FF03C0CE01B4
:100820000E94FF02EDA1FEA1309789F017821EA25F
:100830001DA2A9A1BAA18BA19CA1109799F4009720
:1008400049F4118210821382128281E08783DF9142
:10085000CF910895DC0192961C921E9291979183FC
:100860008083F3CF009739F494961C921E9293974D
:10087000B383A283EACF94969C938E9393970BA015
:10088000DCA1C02DBAA3A9A3E0CFFC0101900020F8
:10089000E9F73197AF01481B590BBC0184E892E09E
:1008A0000C9478018F929F92AF92BF920F931F93F7
:1008B000CF93DF93CDB7DEB7A1970FB6F894DEBF25
:1008C0000FBECDBF19A2423008F44AE08E010F5D81
:1008D0001F4F842E912CB12CA12CA50194010E94B4
:1008E000260DE62FB901CA01EA30F4F4E05DD80123
:1008F000EE938D01232B242B252B79F790E080E0BC
:10090000109719F0CD010E944504A1960FB6F894F6
:10091000DEBF0FBECDBFDF91CF911F910F91BF9072
:10092000AF909F908F900895E95CE1CFCF93DF93D4
:100930004AE00E945204EC0184E491E00E944504E4
:100940008C0F9D1FDF91CF910895CF93DF930E946D
:100950004504EC0184E491E00E9445048C0F9D1F46
:10096000DF91CF91089580916E0290916F02823055
:10097000910509F448C02CF4009759F0019741F112
:1009800008958330910509F459C0049709F496C07D
:10099000089550E040E070E060E08FEF90E00E944A
:1009A000B70287E491E00E94A50440912001509194
:1009B0002101609122017091230184EE93E00E9455
:1009C0002A0381E090E090936F0280936E02089575
:1009D00050E040E06FEF70E090E080E00E94B702EE
:1009E0008BE491E00E94A504409108015091090117
:1009F00060910A0170910B0184EE93E00E942A033A
:100A000082E090E0E0CF4FEF50E070E060E090E0F7
:100A100080E00E94B70282E591E00E94A504409127
:100A2000040150910501609106017091070184EE67
:100A300093E00E942A0383E090E0C5CF80916C028E
:100A4000882321F14FEF50E070E060E090E080E01B
:100A50000E94B70282E591E00E94A50410926C0208
:100A600080916A0290916B02019690936B02809341
:100A70006A0280916A0290916B020397BCF0109217
:100A80006B0210926A0284E090E09DCF50E040E05B
:100A900070E060E090E080E00E94B70288E591E0BD
:100AA0000E94A50481E080936C02E3CF46EA50E007
:100AB00060E070E084EE93E00C942A0350E040E0A4
:100AC0006FEF70E090E080E00E94B7028BE491E06D
:100AD0000E94A504409108015091090160910A010A
:100AE00070910B0184EE93E00E942A0310926F0232
:100AF00010926E02089580916D02882399F04FEF55
:100B000050E06FEF70E08FEF90E00E94B70285E653
:100B100091E00E94A50480916D0291E08927809365
:100B20006D02089550E040E070E060E090E080E009
:100B30000E94B70288E591E0ECCFCF93DF93EC0100
:100B400084EE93E00E94FF028DEB93E00E94FF028F
:100B500086E993E00E94FF02C230D10521F1C33043
:100B6000D10541F1C130D10599F010926F02109278
:100B70006E0284EE93E00E94420385E791E00E94BA
:100B8000A504D0937302C0937202DF91CF910895B0
:100B90008DEB93E00E94420381E891E00E94A5045E
:100BA00087E491E0ECCF86E993E00E94420380E97C
:100BB00091E0E5CF50E040E070E060E090E080E060
:100BC0000E94B7028EE991E00E94A50488E591E0B9
:100BD000D6CF80917402882381F087EA91E00E9449
:100BE000A5048091720290917302019779F590E0CB
:100BF00080E00E949D05109274028091710288230A
:100C000081F080EC91E00E94A504809172029091A5
:100C100073020297F1F490E080E00E949D0510922B
:100C2000710280917002882381F088ED91E00E942A
:100C3000A5048091720290917302039769F490E089
:100C400080E00E949D0510927002089581E090E07E
:100C5000D0CF82E090E0E1CF83E090E0F2CFCF927E
:100C6000DF92EF92FF9280E480937C0080917A0083
:100C7000806480937A0080917A0086FDFCCFA091F9
:100C80007800B09179002FEF30E00E946B0D2FEFCC
:100C900033E040E050E00E94D00C309303012093F9
:100CA000020180910001909101018217930761F187
:100CB0008EEE91E00E944504C0900201D0900301A5
:100CC0000D2C000CEE08FF084AE0C701B601F7FE44
:100CD0000DC06DE284E892E00E944A026627772701
:100CE000CB016C197D098E099F094AE00E945204CC
:100CF00084E491E00E9445048091020190910301F7
:100D00009093010180930001FF90EF90DF90CF90CE
:100D10000895FC0124813581232B39F421E0FB0166
:100D20008081882349F020E007C0808191810E9462
:100D3000820F21E0892BB9F7822F08950F931F931B
:100D4000CF93DF93EC0188819981009759F02A8134
:100D50003B812617370730F081E0DF91CF911F915B
:100D60000F9108958B016F5F7F4F0E94B10E009726
:100D700059F0998388831B830A832C813D81232B1F
:100D800059F7FC011082E8CF80E0E7CFCF93DF93E3
:100D9000EC0188819981009711F00E94280E198238
:100DA00018821D821C821B821A82DF91CF910895C6
:100DB000CF93DF93EC0170E060E00E949E0681110A
:100DC00005C0CE01DF91CF910C94C6061D821C8216
:100DD00066E471E088819981DF91CF910C948B0F4B
:100DE0009F92AF92BF92CF92DF92EF92FF920F93BA
:100DF0001F93CF93DF93EC016B015A017901241704
:100E0000350720F48B2D5901E42EF82E1982188213
:100E10001B821A821D821C82CE010E94D806D60136
:100E200014960D911C91A016B10658F5E016F10626
:100E300008F48701D601ED91FC911197E00FF11FA5
:100E400090801082ED90FC90EA0CFB1CE114F10400
:100E500071F0F70101900020E9F731975F01AE18BA
:100E6000BF08B501CE010E949E06811117C0CE01B8
:100E70000E94C606F60180819181080F191FD801D2
:100E80009C92CE01DF91CF911F910F91FF90EF9037
:100E9000DF90CF90BF90AF909F900895BD82AC82BD
:100EA000B701888199810E948B0FE4CFFC0180817A
:100EB0009181009711F00C94280E0895CF93DF9341
:100EC000EC010E940504CE01DF91CF910C94280E15
:100ED000AF92BF92CF92DF92EF92FF920F931F9348
:100EE000CF93DF93CDB7DEB762970FB6F894DEBF2E
:100EF0000FBECDBF84E892E00E94080218161906C2
:100F00000CF094C01E861D86188A1F861A8A198ABC
:100F1000CE010D960E94D8060E94C80109891A893F
:100F200097FD1CC08A309105C9F089831A820F5F32
:100F30001F4FB801CE010D960E949E06882361F3D3
:100F40002D853E8589899A89BE016F5F7F4F820F0B
:100F5000931F0E948B0F1A8B098BDECFCD84DE840A
:100F6000C114D10429F076010115110509F070C0F2
:100F700089899A89892B09F455C00D851E856AE3F4
:100F800070E0C8010E94770F009709F44BC09C01E4
:100F9000201B310B8901121613060CF043C050E0E0
:100FA00040E0BE01635F7F4FCE0107960E94F006CE
:100FB00029893A89A8014F5F5F4FBE01635F7F4F68
:100FC000CE0101960E94F00667E471E0CE0107961B
:100FD0000E948906882309F475C089819A81009747
:100FE00009F46CC00E94880C609320017093210169
:100FF00080932201909323018BEF91E00E9445049E
:101000006091200170912101809122019091230132
:101010000E949604CE0101960E945607CE010796C3
:101020000E945607CE010D960E94560762960FB693
:10103000F894DEBF0FBECDBFDF91CF911F910F910E
:10104000FF90EF90DF90CF90BF90AF900895750123
:1010500057012FEFA21AB20AF7018081082E000C67
:10106000990B0E94C40C892B91F7015011090C0DAA
:101070001D1DF8018081082E000C990B0E94C40CE4
:10108000892B31F00E151F0518F001501109F1CF11
:10109000A8014F5F5F4F4E195F095A8B498BCE14E1
:1010A000DF0420F4B701C6010E946E0FED85FE85B6
:1010B00089899A89E80FF91F10825ACF60E070E0A1
:1010C000CB0192CF6BE471E0CE0107960E948906B6
:1010D0008823F9F089819A810097B9F00E94880CE1
:1010E000609308017093090180930A0190930B01AA
:1010F00089E092E00E944504609108017091090125
:1011000080910A0190910B0183CF60E070E0CB01E8
:10111000E7CF62E571E0CE0107960E948906882339
:10112000F9F089819A810097B9F00E94880C609348
:1011300004017093050180930601909307018AE1F1
:1011400092E00E9445046091040170910501809134
:101150000601909107015CCF60E070E0CB01E7CF22
:101160006AE272E0CE0107960E948906882399F10F
:101170006AE771E0CE0101960E948906882329F072
:1011800090E080E00E949D0545CF66E871E0CE01C9
:1011900001960E948906882319F081E090E0F2CF41
:1011A00065E971E0CE0101960E948906882319F055
:1011B00082E090E0E7CF63EA71E0CE0101960E9401
:1011C0008906882319F083E090E0DCCF8FE292E07B
:1011D0000E94A5041FCF8CE392E0FACF1F920F92DA
:1011E0000FB60F9211242F933F938F939F93AF933A
:1011F000BF938091800290918102A0918202B09170
:10120000830230917F0223E0230F2D3758F501969A
:10121000A11DB11D20937F028093800290938102D3
:10122000A0938202B093830280917B0290917C0212
:10123000A0917D02B0917E020196A11DB11D809307
:101240007B0290937C02A0937D02B0937E02BF91BB
:10125000AF919F918F913F912F910F900FBE0F9063
:101260001F90189526E8230F0296A11DB11DD2CF1D
:101270001F920F920FB60F9211242F933F934F930B
:101280005F936F937F938F939F93AF93BF93EF93EE
:10129000FF93E0911C01F0911D010995FF91EF91E1
:1012A000BF91AF919F918F917F916F915F914F917E
:1012B0003F912F910F900FBE0F901F9018951F9286
:1012C0000F920FB60F9211242F933F934F935F937A
:1012D0006F937F938F939F93AF93BF93EF93FF93FE
:1012E000E0911A01F0911B010995FF91EF91BF91D7
:1012F000AF919F918F917F916F915F914F913F91AE
:101300002F910F900FBE0F901F9018951F920F9264
:101310000FB60F9211242F933F934F935F936F93C8
:101320007F938F939F93AF93BF93EF93FF9384E843
:1013300092E00E942802FF91EF91BF91AF919F919F
:101340008F917F916F915F914F913F912F910F906E
:101350000FBE0F901F9018951F920F920FB60F920D
:1013600011242F938F939F93EF93FF93E091940217
:10137000F09195028081E0919A02F0919B0282FDAA
:101380001BC0908180919D028F5F8F7320919E0280
:10139000821741F0E0919D02F0E0EC57FD4F958FF0
:1013A00080939D02FF91EF919F918F912F910F90CC
:1013B0000FBE0F901F9018958081F4CF1F920F924F
:1013C0000FB60F9211242F933F934F935F936F9318
:1013D0007F938F939F93AF93BF93CF93EF93FF939D
:1013E00099B1C0917702C09580917A028923C82370
:1013F00090937702C4FF05C0E0911E01F0911F0198
:101400000995C5FF05C0E0910C01F0910D0109950A
:10141000C6FF05C0E0910E01F0910F010995C7FFCD
:1014200005C0E0911001F09111010995C0FF05C0C0
:10143000E0911201F09113010995C1FF05C0E091FF
:101440001401F09115010995C2FF05C0E091160144
:10145000F09117010995C3FF05C0E0911801F091C3
:1014600019010995FF91EF91CF91BF91AF919F9194
:101470008F917F916F915F914F913F912F910F903D
:101480000FBE0F901F9018950F93E4E8F2E01382BF
:10149000128288EE93E0A0E0B0E084839583A68377
:1014A000B78386E391E09183808385EC90E0958714
:1014B000848784EC90E09787868780EC90E0918B1E
:1014C000808B81EC90E0938B828B82EC90E0958B0B
:1014D000848B86EC90E0978B868B118E128E138E08
:1014E000148EEBE0F4E017821182108213821282D4
:1014F00015821482168281E08783409120015091E9
:101500002101609122017091230100E023EB34E07E
:1015100084EE93E00E94960327EF32E044E650E029
:1015200060E070E08DEB93E00E9496032BE735E0DE
:1015300044EF51E060E070E086E993E00E9496039A
:1015400001E029EE35E044E650E060E070E08FE62F
:1015500093E00E9496032FE236E044E650E060E01C
:1015600070E088E493E00E94960328E637E042E3C7
:1015700050E060E070E081E293E00E9496030F91FA
:101580000895789484B5826084BD84B5816084BDFB
:1015900085B5826085BD85B5816085BD80916E0011
:1015A000816080936E001092810080918100826042
:1015B000809381008091810081608093810080917F
:1015C00080008160809380008091B100846080936E
:1015D000B1008091B00081608093B00080917A006A
:1015E000846080937A0080917A00826080937A0090
:1015F00080917A00816080937A0080917A0080687F
:1016000080937A001092C10061E089E00E94D400CA
:1016100061E08AE00E94D40061E08BE00E94D40087
:1016200060E083E00E94D40060E082E00E94D40089
:1016300060E084E00E94D40060E08EE00E94D4006C
:101640008AE691E090931D0180931C0180916900CE
:101650008C6080936900E99A8EE691E090931B017B
:1016600080931A0180916900836080936900E89AF1
:1016700082E791E090931F0180931E0180917A028E
:10168000806180937A0289B18093770280916D00A6
:10169000806180936D008091680084608093680011
:1016A000E0919402F091950282E08083E0919002B3
:1016B000F09191021082E0919202F09193028FECEE
:1016C000808310929C02E0919802F091990286E04A
:1016D0008083E0919602F0919702808180618083FF
:1016E000E0919602F0919702808188608083E0917A
:1016F0009602F0919702808180688083E091960243
:10170000F091970280818F7D80838CE492E00E942B
:10171000A50490E080E00E949D05C0E0D0E08091AB
:101720000B0490910C049093100480930F0410927A
:1017300013041092140410921504109216041092BF
:101740001704109218041092190410921A0410929F
:101750001B0410921C0410921D0410921E04809110
:101760001204882309F4B1C0809111048111ADC025
:10177000E0910F04F0911004309709F4A6C0809115
:10178000170490911804A0911904B0911A040196BD
:10179000A11DB11D8093170490931804A093190400
:1017A000B0931A0403A114A1828180FF1EC080910E
:1017B000130490911404A0911504B091160401969D
:1017C000A11DB11D8093130490931404A0931504DC
:1017D000B093160487859089A189B289892B8A2BB9
:1017E0008B2B41F4CF010E94FF0210931004009351
:1017F0000F04BACF0E945E01E0910F04F091100433
:10180000438054806580768083849484A584B684E4
:10181000C780D084E184F284DC01CB018819990966
:10182000AA09BB098C159D05AE05BF05F0F2878599
:101830009089A189B289181619061A061B065CF44C
:1018400087859089A189B2890197A109B109878704
:10185000908BA18BB28B8789908DA18DB28D0196D3
:10186000A11DB11D878B908FA18FB28F8385948529
:10187000A585B685C780D084E184F2848C0D9D1D3A
:10188000AE1DBF1D83879487A587B6874782508684
:1018900061867286038CF48DE02D309709F4A5CF14
:1018A000099580911B0490911C04A0911D04B09196
:1018B0001E040196A11DB11D80931B0490931C046E
:1018C000A0931D04B0931E0490CF209709F427CF56
:1018D0000E941402882309F422CF0E9400001FCF27
:1018E00081E293E00E94050488E493E00E940504ED
:1018F0008FE693E00E94050486E993E00E940504C8
:101900008DEB93E00E94050484EE93E00C940504B3
:101910001F93FC0199278827BC01E894119110328C
:10192000E9F3193010F01E30C8F31B3251F01D32AC
:1019300049F4689406C00E94AF0C610F711D811DAF
:10194000911D119110531A30B0F33EF4909580958B
:10195000709561957F4F8F4F9F4F1F910895592F1D
:10196000482F372F262F660F771F881F991F660F66
:10197000771F881F991F620F731F841F951F660FA3
:10198000771F881F991F089591110C94CD0C8032F8
:1019900019F089508550C8F7089599278827089528
:1019A000052E97FB1EF400940E94E70C57FD07D00C
:1019B0000E94260D07FC03D04EF40C94E70C5095C2
:1019C0004095309521953F4F4F4F5F4F089590952B
:1019D0008095709561957F4F8F4F9F4F08952F92FF
:1019E0003F924F925F926F927F928F929F92AF92AF
:1019F000BF92CF92DF92EF92FF920F931F93CF93FC
:101A0000DF93CDB7DEB7CA1BDB0B0FB6F894DEBF92
:101A10000FBECDBF09942A88398848885F846E84B8
:101A20007D848C849B84AA84B984C884DF80EE8002
:101A3000FD800C811B81AA81B981CE0FD11D0FB60B
:101A4000F894DEBF0FBECDBFED010895A1E21A2EBE
:101A5000AA1BBB1BFD010DC0AA1FBB1FEE1FFF1F52
:101A6000A217B307E407F50720F0A21BB30BE40BA2
:101A7000F50B661F771F881F991F1A9469F76095E9
:101A80007095809590959B01AC01BD01CF010895A3
:101A9000A29FB001B39FC001A39F700D811D1124AF
:101AA000911DB29F700D811D1124911D089597FB0A
:101AB000072E16F4009407D077FD09D00E94720D0E
:101AC00007FC05D03EF4909581959F4F0895709541
:101AD00061957F4F08950E94480DB7FF0895821BBE
:101AE000930B0895AA1BBB1B51E107C0AA1FBB1F84
:101AF000A617B70710F0A61BB70B881F991F5A959A
:101B0000A9F780959095BC01CD010895EE0FFF1FB8
:101B10000590F491E02D09940F931F93CF93DF93D9
:101B20008230910510F482E090E0E0912104F09180
:101B3000220430E020E0B0E0A0E0309799F42115D5
:101B4000310509F44AC0281B390B24303105D8F57A
:101B50008A819B816115710589F1FB0193838283E1
:101B6000FE0111C04081518102811381481759073C
:101B7000E0F04817590799F4109761F012960C930A
:101B8000129713961C933296CF01DF91CF911F913C
:101B90000F9108950093210410932204F4CF21158E
:101BA000310551F04217530738F0A901DB019A01C2
:101BB000BD01DF01F801C1CFEF01F9CF90932204FD
:101BC00080932104CDCFFE01E20FF31F8193919307
:101BD0002250310939832883D7CF20911F043091B7
:101BE0002004232B41F420912601309127013093CA
:101BF000200420931F0420912401309125012115F8
:101C0000310541F42DB73EB740912801509129018B
:101C1000241B350BE0911F04F0912004E217F30719
:101C2000A0F42E1B3F0B2817390778F0AC014E5F4C
:101C30005F4F2417350748F04E0F5F1F5093200465
:101C400040931F04819391939FCFF0E0E0E09CCFFD
:101C5000CF93DF930097E9F0FC0132971382128251
:101C6000A0912104B0912204ED0130E020E0109712
:101C7000A1F420813181820F931F20911F043091A4
:101C800020042817390709F061C0F0932004E0937D
:101C90001F04DF91CF910895EA01CE17DF07E8F521
:101CA0004A815B819E0141155105B1F7E901FB8332
:101CB000EA8349915991C40FD51FEC17FD0761F4D0
:101CC000808191810296840F951FE9019983888311
:101CD000828193819B838A83F0E0E0E012968D916C
:101CE0009C9113970097B9F52D913C911197CD01D7
:101CF0000296820F931F20911F0430912004281711
:101D0000390739F6309751F51092220410922104C8
:101D1000B0932004A0931F04BCCFD383C28340811F
:101D20005181840F951FC817D90761F44E5F5F4F2B
:101D300088819981480F591F518340838A819B81F3
:101D4000938382832115310509F0B0CFF0932204EB
:101D5000E09321049ECFFD01DC01C0CF13821282EB
:101D6000D7CFB0E0A0E0E7EBFEE00C94F10C8C01E3
:101D7000009751F4CB010E948C0D8C01C801CDB7A6
:101D8000DEB7E0E10C940D0DFC01E60FF71F9C019E
:101D900022503109E217F30708F49DC0D901CD9113
:101DA000DC911197C617D70798F0C530D10530F3ED
:101DB000CE0104978617970708F3C61BD70B229707
:101DC000C193D1936D937C93CF010E94280ED6CFFF
:101DD0005B01AC1ABD0A4C018C0E9D1EA091210422
:101DE000B0912204512C412CF12CE12C109731F5AB
:101DF00080911F04909120048815990509F05CC01A
:101E00004616570608F058C080912401909125018C
:101E1000009741F48DB79EB7409128015091290158
:101E2000841B950BE817F90708F055C0F0932004C0
:101E3000E0931F04F90171836083A0CF8D919C9181
:101E4000119712966C90129713967C901397A81581
:101E5000B90559F56C0142E0C40ED11CCA14DB046B
:101E600020F1AC014A195B09DA011296159780F04E
:101E70006282738251834083D9016D937C93E11414
:101E8000F10471F0D7011396FC93EE93129776CF7D
:101E900022968C0F9D1FF90191838083F301EFCF70
:101EA000F0932204E093210469CF4816590608F400
:101EB0002C017D01D3019ACFCB010E948C0D7C01B6
:101EC000009749F0AE01B8010E946E0FC8010E9450
:101ED000280E870153CF10E000E050CFFB01DC015A
:101EE00002C001900D9241505040D8F70895FC0176
:101EF0008191861721F08823D9F799270895319782
:101F0000CF010895FB01DC018D9101908019011032
:101F1000D9F3990B0895FB01DC0101900D9200208B
:101F2000E1F7089510E0CDE5D0E004C0FE010E9485
:0E1F3000860D2196CE35D107C9F7F894FFCF64
:101F3E00FFFFFF00D0070000F401000076017601DC
:101F4E0076017601760176017601770177017601C9
:101F5E00D0070000000023048000000000000504EC
:101F6E005E07000000004A027801A50197020802F0
:101F7E00B401FA010D0A005245440059454C4C4F2C
:101F8E005700475245454E00414C4C5F4C454473FB
:101F9E005F4F464600424C494E4B494E475F414CBF
:101FAE004C5F4F4E004D4F44453A4E4F524D414CB3
:101FBE00004D4F44453A454D455247454E43590015
:101FCE004D4F44453A424C494E4B494E47004D4FBA
:101FDE0044453A4F464600456D657267656E6379B6
:101FEE0020627574746F6E20707265737365640011
:101FFE00426C696E6B696E6720627574746F6E20C9
:10200E007072657373656400546F67676C652062E8
:10201E007574746F6E2070726573736564004272AE
:10202E00696768746E6573733A20005245445F4465
:10203E0055524154494F4E3A0059454C4C4F575FFB
:10204E004455524154494F4E3A00475245454E5F12
:10205E004455524154494F4E3A004D4F4445004964
:10206E006E76616C6964206D6F646500496E766191
:10207E006C696420636F6D6D616E6400547261668D
:10208E00666963204C696768742053797374656D53
:0A209E002053746172746564000041
:00000001FF
