:100000000C945E000C9459090C9432090C948600EF
:100010000C9486000C94D8090C9486000C948600ED
:100020000C9486000C9486000C9486000C94860038
:100030000C9486000C9486000C9486000C94860028
:100040000C94E8080C9486000C94A6090C94800982
:100050000C9486000C9486000C9486000C94860008
:100060000C9486000C9486000000000024002700F9
:100070002A0000000000250028002B0004040404CE
:100080000404040402020202020203030303030342
:10009000010204081020408001020408102001021F
:1000A00004081020000000080002010000030407FB
:1000B00000000000000000003E0A6A0C11241FBE70
:1000C000CFEFD8E0DEBFCDBF12E0A0E0B1E0E2E3C9
:1000D000FFE102C005900D92AE38B107D9F724E0D8
:1000E000AEE8B2E001C01D92A734B207E1F710E01C
:1000F000CDE5D0E004C02197FE010E94800DCC35F3
:10010000D107C9F70E94BB0A0C948C0F0C94000015
:1001100090E0FC01EC55FF4F2491FC01E057FF4FAC
:100120003491FC01E458FF4FE491EE23C9F02223FF
:1001300039F0233001F1A8F4213019F1223029F1EE
:10014000F0E0EE0FFF1FEE58FF4FA591B4918FB76F
:10015000F894EC91611126C030953E233C938FBFFB
:1001600008952730A9F02830C9F0243049F780914C
:1001700080008F7D03C0809180008F778093800006
:10018000DFCF84B58F7784BDDBCF84B58F7DFBCF88
:100190008091B0008F778093B000D2CF8091B00073
:1001A0008F7DF9CF3E2BDACFCF93DF9390E0FC0128
:1001B000E057FF4F249184589F4FFC01849188237E
:1001C000D1F090E0880F991FFC01E859FF4FA591ED
:1001D000B491FC01EE58FF4FC591D49161110EC04E
:1001E0009FB7F8948C91E22FE0958E238C93288111
:1001F000E223E8839FBFDF91CF9108958FB7F894F2
:10020000EC91E22BEC938FBFF6CF1F93CF93DF934C
:10021000182FEB0161E00E94D400209739F460E0D0
:10022000812FDF91CF911F910C948800E12FF0E096
:10023000EC55FF4FE491E33039F148F4E130B9F087
:10024000E230E9F0C038D10551F761E0E9CFE7309D
:1002500029F1E83059F1E430A9F7809180008062FB
:1002600080938000D0938B00C0938A0004C084B533
:10027000806884BDC7BDDF91CF911F91089584B57B
:10028000806284BDC8BDF7CF809180008068809374
:100290008000D0938900C0938800EDCF8091B0009A
:1002A00080688093B000C093B300E5CF8091B00028
:1002B00080628093B000C093B400DDCF2FB7F89474
:1002C0006091A4027091A5028091A6029091A7026C
:1002D0002FBF089581E080939802089581E0809374
:1002E0009502089581E080939402089508950895F9
:1002F000AF92BF92CF92DF92EF92FF920F931F9334
:10030000CF93DF936C017B018B01040F151FEB0171
:100310005E01AE18BF08C017D10759F06991D60128
:10032000ED91FC910190F081E02DC6010995892B9A
:1003300079F7C501DF91CF911F910F91FF90EF9059
:10034000DF90CF90BF90AF900895FC01538D448D06
:10035000252F30E0842F90E0821B930B541710F070
:10036000CF96089501970895FC01918D828D98177D
:1003700061F0A28DAE0FBF2FB11D5D968C91928D55
:100380009F5F9F73928F90E008958FEF9FEF089586
:100390000F931F930E945E016093B0027093B102AD
:1003A0008093B2029093B30288EA92E00E94B40173
:1003B00097FF1DC00E945E010091B0021091B10232
:1003C0002091B2023091B302601B710B820B930B30
:1003D0000091AC021091AD022091AE023091AF02BB
:1003E0006017710782079307F8F28FEF9FEF1F9155
:1003F0000F910895FC01918D828D981731F0828DB7
:10040000E80FF11D858D90E008958FEF9FEF08951F
:10041000FC01918D228D892F90E0805C9F4F821B83
:1004200091098F739927089588EA92E00E94080243
:1004300021E0892B09F420E0822F089580E090E0EC
:10044000892B29F00E94140281110C940000089558
:10045000FC01A48DA80FB92FB11DA35ABF4F2C9139
:10046000848D90E001968F739927848FA689B78930
:100470002C93A089B1898C91837080648C93938D27
:10048000848D981306C00288F389E02D80818F7DCA
:1004900080830895EF92FF920F931F93CF93DF9382
:1004A000EC0181E0888F9B8D8C8D98131AC0E889B0
:1004B000F989808185FF15C09FB7F894EE89FF897F
:1004C0006083E889F98980818370806480839FBF1D
:1004D00081E090E0DF91CF911F910F91FF90EF901D
:1004E0000895F62E0B8D10E00F5F1F4F0F7311272D
:1004F000E02E8C8D8E110CC00FB607FCFACFE88968
:10050000F989808185FFF5CFCE010E942802F1CFC5
:10051000EB8DEC0FFD2FF11DE35AFF4FF0829FB7DB
:10052000F8940B8FEA89FB8980818062CFCFCF93CB
:10053000DF93EC01888D8823B9F0AA89BB89E8890B
:10054000F9898C9185FD03C0808186FD0DC00FB6B1
:1005500007FCF7CF8C9185FFF2CF808185FFEDCF2F
:10056000CE010E942802E9CFDF91CF910895CF926A
:10057000DF92EF92FF920F931F93CF93DF936B0164
:100580007A0100910201109103019C01029FC001B8
:10059000039F900D129F900D1124CFEFD0E0BE016C
:1005A0000E94510D89E00E9405010C9DC0010D9D26
:1005B000900D1C9D900D1124BE010E94510D8AE0EA
:1005C0000E9405010E9DC0010F9D900D1E9D900D76
:1005D0001124BE010E94510D8BE0DF91CF911F913C
:1005E0000F91FF90EF90DF90CF900C94050150E0B9
:1005F00040E070E060E08FEF90E00C94B702EF9283
:10060000FF921F93CF93DF93EC018A819A819E7FA3
:100610009A839A819D7F9A83182F117080FF13C04F
:10062000EF8DF8A1309779F0ADA1BEA11496ED90B1
:10063000FC9015971596DC93CE9314970995EDA130
:10064000FEA1F582E482812FDF91CF911F91FF906F
:10065000EF900895CF93DF93EC014B835C836D8320
:100660007E838B819C81AD81BE818F839887A98792
:10067000BA870E945E016B877C878D879E87DF919A
:10068000CF9108950F931F93CF93DF93FC01A5A102
:10069000B6A1109709F448C0EC01178A108E118E8C
:1006A000128E82818B7F8283058CF68DE02D3097B0
:1006B000B9F18A8181FD34C014960D911C91159772
:1006C0001596DC93CE9314978A8182608A8309956C
:1006D0009A8180FB90F99A838A818D7F8A83EDA12C
:1006E000FEA1158304838B819C81AD81BE818F83A4
:1006F0009887A987BA870E945E010F81188529858E
:100700003A85601B710B820B930B6B877C878D87FF
:100710009E878A818170DF91CF911F910F910895FB
:100720008A8181608A83DFCF80E0F5CF0F93CF93FA
:10073000DF93EC018EE291E0998388838A818E7F3A
:100740008A838A818D7F8A838A818B7F8A831B86B5
:100750001C861D861E861B821C821D821E821F8295
:10076000188619861A861AA219A21CA21BA21EA2FA
:100770001DA21F8A188E198E1A8E3C8F2B8F1E8EEB
:100780001D8E18A21F8ECE010E942A038FEF9FEFAD
:10079000DC018F87988BA98BBA8B8B8B9C8BAD8B55
:1007A000BE8B8DA19EA1892BD9F4109236048FE2C5
:1007B00094E09EA38DA380912F0490913004892B07
:1007C000B9F4D0933004C0932F041AA219A21CA22A
:1007D0001BA2D0933204C093310481E0809336048D
:1007E000002379F0CE01DF91CF910F910C94420359
:1007F000E0913104F0913204FAA3E9A3D4A3C3A396
:10080000E6CFDF91CF910F910895CF93DF93EC0165
:100810008EE291E0998388838A8180FF03C0CE01B4
:100820000E94FF02EDA1FEA1309789F017821EA25F
:100830001DA2A9A1BAA18BA19CA1109799F4009720
:1008400049F4118210821382128281E08783DF9142
:10085000CF910895DC0192961C921E9291979183FC
:100860008083F3CF009739F494961C921E9293974D
:10087000B383A283EACF94969C938E9393970BA015
:10088000DCA1C02DBAA3A9A3E0CFFC0101900020F8
:10089000E9F73197AF01481B590BBC0188EA92E098
:1008A0000C9478018F929F92AF92BF920F931F93F7
:1008B000CF93DF93CDB7DEB7A1970FB6F894DEBF25
:1008C0000FBECDBF19A2423008F44AE08E010F5D81
:1008D0001F4F842E912CB12CA12CA50194010E94B4
:1008E000200DE62FB901CA01EA30F4F4E05DD80129
:1008F000EE938D01232B242B252B79F790E080E0BC
:10090000109719F0CD010E944504A1960FB6F894F6
:10091000DEBF0FBECDBFDF91CF911F910F91BF9072
:10092000AF909F908F900895E95CE1CFCF93DF93D4
:100930004AE00E945204EC0184E491E00E944504E4
:100940008C0F9D1FDF91CF910895CF93DF930E946D
:100950004504EC0184E491E00E9445048C0F9D1F46
:10096000DF91CF910895809192029091930282300D
:10097000910509F448C02CF4009759F0019741F112
:1009800008958330910509F459C0049709F496C07D
:10099000089550E040E070E060E08FEF90E00E944A
:1009A000B70287E491E00E94A50440912001509194
:1009B0002101609122017091230188E094E00E945E
:1009C0002A0381E090E0909393028093920208952D
:1009D00050E040E06FEF70E090E080E00E94B702EE
:1009E0008BE491E00E94A504409108015091090117
:1009F00060910A0170910B0188E094E00E942A0343
:100A000082E090E0E0CF4FEF50E070E060E090E0F7
:100A100080E00E94B70282E591E00E94A504409127
:100A2000040150910501609106017091070188E071
:100A300094E00E942A0383E090E0C5CF8091900269
:100A4000882321F14FEF50E070E060E090E080E01B
:100A50000E94B70288E591E00E94A50410929002DE
:100A600080918E0290918F02019690938F028093D5
:100A70008E0280918E0290918F020397BCF01092AB
:100A80008F0210928E0284E090E09DCF50E040E013
:100A900070E060E090E080E00E94B70287E691E0BD
:100AA0000E94A50481E080939002E3CF46EA50E0E3
:100AB00060E070E088E094E00C942A0350E040E0AD
:100AC0006FEF70E090E080E00E94B7028BE491E06D
:100AD0000E94A504409108015091090160910A010A
:100AE00070910B0188E094E00E942A031092930217
:100AF00010929202089580919102882399F04FEF0D
:100B000050E06FEF70E08FEF90E00E94B70287E750
:100B100091E00E94A5048091910291E08927809341
:100B20009102089550E040E070E060E090E080E0E5
:100B30000E94B70287E891E0ECCFCF93DF93EC01FE
:100B400088E094E00E94FF0281EE93E00E94FF02A1
:100B50008AEB93E00E94FF02C230D10521F1C3303D
:100B6000D10541F1C130D10599F010929302109254
:100B7000920288E094E00E94420388E991E00E949A
:100B8000A504D0939702C0939602DF91CF91089568
:100B900081EE93E00E94420384EA91E00E94A50462
:100BA00083EB91E0ECCF8AEB93E00E94420384EC6C
:100BB00091E0E5CF50E040E070E060E090E080E060
:100BC0000E94B70282ED91E00E94A5048BED91E0B6
:100BD000D6CF80919802882381F088EE91E00E9420
:100BE000A5048091960290919702019779F590E083
:100BF00080E00E949D0510929802809195028823C2
:100C000081F081E092E00E94A5048091960290918B
:100C100097020297F1F490E080E00E949D05109207
:100C2000950280919402882381F089E192E00E94EC
:100C3000A5048091960290919702039769F490E041
:100C400080E00E949D0510929402089581E090E05A
:100C5000D0CF82E090E0E1CF83E090E0F2CFCF927E
:100C6000DF92EF92FF9280E480937C0080917A0083
:100C7000806480937A0080917A0086FDFCCFA091F9
:100C80007800B09179002FEF30E00E94650D2FEFD2
:100C900033E040E050E00E94CA0C309303012093FF
:100CA000020180910001909101018217930761F187
:100CB0008FE292E00E944504C0900201D0900301AF
:100CC0000D2C000CEE08FF084AE0C701B601F7FE44
:100CD0000DC06DE288EA92E00E944A0266277727FB
:100CE000CB016C197D098E099F094AE00E945204CC
:100CF00084E491E00E9445048091020190910301F7
:100D00009093010180930001FF90EF90DF90CF90CE
:100D10000895FC0124813581232B39F421E0FB0166
:100D20008081882349F020E007C0808191810E9462
:100D30007C0F21E0892BB9F7822F08950F931F9321
:100D4000CF93DF93EC0188819981009759F02A8134
:100D50003B812617370730F081E0DF91CF911F915B
:100D60000F9108958B016F5F7F4F0E94AB0E00972C
:100D700059F0998388831B830A832C813D81232B1F
:100D800059F7FC011082E8CF80E0E7CFCF93DF93E3
:100D9000EC0188819981009711F00E94220E19823E
:100DA00018821D821C821B821A82DF91CF910895C6
:100DB000CF93DF93EC0170E060E00E949E0681110A
:100DC00005C0CE01DF91CF910C94C6061D821C8216
:100DD00066E471E088819981DF91CF910C94850F51
:100DE0009F92AF92BF92CF92DF92EF92FF920F93BA
:100DF0001F93CF93DF93EC016B015A017901241704
:100E0000350720F48B2D5901E42EF82E1982188213
:100E10001B821A821D821C82CE010E94D806D60136
:100E200014960D911C91A016B10658F5E016F10626
:100E300008F48701D601ED91FC911197E00FF11FA5
:100E400090801082ED90FC90EA0CFB1CE114F10400
:100E500071F0F70101900020E9F731975F01AE18BA
:100E6000BF08B501CE010E949E06811117C0CE01B8
:100E70000E94C606F60180819181080F191FD801D2
:100E80009C92CE01DF91CF911F910F91FF90EF9037
:100E9000DF90CF90BF90AF909F900895BD82AC82BD
:100EA000B701888199810E94850FE4CFFC01808180
:100EB0009181009711F00C94220E0895CF93DF9347
:100EC000EC010E940504CE01DF91CF910C94220E1B
:100ED000AF92BF92CF92DF92EF92FF920F931F9348
:100EE000CF93DF93CDB7DEB762970FB6F894DEBF2E
:100EF0000FBECDBF88EA92E00E94080218161906BC
:100F00000CF094C01E861D86188A1F861A8A198ABC
:100F1000CE010D960E94D8060E94C80109891A893F
:100F200097FD1CC08A309105C9F089831A820F5F32
:100F30001F4FB801CE010D960E949E06882361F3D3
:100F40002D853E8589899A89BE016F5F7F4F820F0B
:100F5000931F0E94850F1A8B098BDECFCD84DE8410
:100F6000C114D10429F076010115110509F070C0F2
:100F700089899A89892B09F455C00D851E856AE3F4
:100F800070E0C8010E94710F009709F44BC09C01EA
:100F9000201B310B8901121613060CF043C050E0E0
:100FA00040E0BE01635F7F4FCE0107960E94F006CE
:100FB00029893A89A8014F5F5F4FBE01635F7F4F68
:100FC000CE0101960E94F00667E471E0CE0107961B
:100FD0000E948906882309F475C089819A81009747
:100FE00009F46CC00E94820C60932001709321016F
:100FF00080932201909323018CE392E00E944504A8
:101000006091200170912101809122019091230132
:101010000E949604CE0101960E945607CE010796C3
:101020000E945607CE010D960E94560762960FB693
:10103000F894DEBF0FBECDBFDF91CF911F910F910E
:10104000FF90EF90DF90CF90BF90AF900895750123
:1010500057012FEFA21AB20AF7018081082E000C67
:10106000990B0E94BE0C892B91F7015011090C0DB0
:101070001D1DF8018081082E000C990B0E94BE0CEA
:10108000892B31F00E151F0518F001501109F1CF11
:10109000A8014F5F5F4F4E195F095A8B498BCE14E1
:1010A000DF0420F4B701C6010E94680FED85FE85BC
:1010B00089899A89E80FF91F10825ACF60E070E0A1
:1010C000CB0192CF6BE471E0CE0107960E948906B6
:1010D0008823F9F089819A810097B9F00E94820CE7
:1010E000609308017093090180930A0190930B01AA
:1010F0008AE492E00E944504609108017091090120
:1011000080910A0190910B0183CF60E070E0CB01E8
:10111000E7CF62E571E0CE0107960E948906882339
:10112000F9F089819A810097B9F00E94820C60934E
:1011300004017093050180930601909307018BE5EC
:1011400092E00E9445046091040170910501809134
:101150000601909107015CCF60E070E0CB01E7CF22
:101160006BE672E0CE0107960E948906882309F497
:1011700051CF6DE971E0CE0101960E948906882366
:1011800029F090E080E00E949D0544CF69EA71E07B
:10119000CE0101960E948906882319F081E090E033
:1011A000F2CF69EC71E0CE0101960E948906882396
:1011B00019F082E090E0E7CF67ED71E0CE01019693
:1011C0000E948906882309F425CF83E090E0DBCFD5
:1011D0001F920F920FB60F9211242F933F938F936C
:1011E0009F93AF93BF938091A4029091A502A09189
:1011F000A602B091A7023091A30223E0230F2D375E
:1012000058F50196A11DB11D2093A3028093A4025D
:101210009093A502A093A602B093A70280919F028B
:101220009091A002A091A102B091A2020196A11DED
:10123000B11D80939F029093A002A093A102B0934E
:10124000A202BF91AF919F918F913F912F910F90EB
:101250000FBE0F901F90189526E8230F0296A11D30
:10126000B11DD2CF1F920F920FB60F9211242F9360
:101270003F934F935F936F937F938F939F93AF931E
:10128000BF93EF93FF93E0911C01F0911D0109952D
:10129000FF91EF91BF91AF919F918F917F916F914E
:1012A0005F914F913F912F910F900FBE0F901F9024
:1012B00018951F920F920FB60F9211242F933F9300
:1012C0004F935F936F937F938F939F93AF93BF934E
:1012D000EF93FF93E0911A01F0911B010995FF91A3
:1012E000EF91BF91AF919F918F917F916F915F919E
:1012F0004F913F912F910F900FBE0F901F90189517
:101300001F920F920FB60F9211242F933F934F937A
:101310005F936F937F938F939F93AF93BF93EF935D
:10132000FF9388EA92E00E942802FF91EF91BF911B
:10133000AF919F918F917F916F915F914F913F916D
:101340002F910F900FBE0F901F9018951F920F9224
:101350000FB60F9211242F938F939F93EF93FF93C8
:10136000E091B802F091B9028081E091BE02F09163
:10137000BF0282FD1BC090818091C1028F5F8F737D
:101380002091C202821741F0E091C102F0E0E855DD
:10139000FD4F958F8093C102FF91EF919F918F91A7
:1013A0002F910F900FBE0F901F9018958081F4CF52
:1013B0001F920F920FB60F9211242F933F934F93CA
:1013C0005F936F937F938F939F93AF93BF93CF93CD
:1013D000EF93FF9399B1C0919B02C09580919E02BB
:1013E0008923C82390939B02C4FF05C0E0911E018E
:1013F000F0911F010995C5FF05C0E0910C01F09126
:101400000D010995C6FF05C0E0910E01F0910F0195
:101410000995C7FF05C0E0911001F09111010995F0
:10142000C0FF05C0E0911201F09113010995C1FFC1
:1014300005C0E0911401F09115010995C2FF05C0A6
:10144000E0911601F09117010995C3FF05C0E091E5
:101450001801F09119010995FF91EF91CF91BF917A
:10146000AF919F918F917F916F915F914F913F913C
:101470002F910F900FBE0F901F9018950F93E8EAD1
:10148000F2E01382128288EE93E0A0E0B0E0848361
:101490009583A683B78386E391E09183808385EC6F
:1014A00090E09587848784EC90E09787868780EC2E
:1014B00090E0918B808B81EC90E0938B828B82EC1F
:1014C00090E0958B848B86EC90E0978B868B118EC9
:1014D000128E138E148EEFE2F4E0178211821082C6
:1014E0001382128215821482168281E087834091D2
:1014F000200150912101609122017091230100E0AF
:1015000023EB34E088E094E00E94960327EF32E07A
:1015100044E650E060E070E081EE93E00E949603C4
:101520002BE735E044EF51E060E070E08AEB93E0B8
:101530000E94960301E029EE35E044E650E060E0C9
:1015400070E083E993E00E9496032FE236E044E6E0
:1015500050E060E070E08CE693E00E94960328E69D
:1015600037E042E350E060E070E085E493E00E9401
:1015700096030F910895789484B5826084BD84B5F4
:10158000816084BD85B5826085BD85B5816085BD7E
:1015900080916E00816080936E0010928100809136
:1015A00081008260809381008091810081608093BE
:1015B0008100809180008160809380008091B100E3
:1015C00084608093B1008091B00081608093B0000E
:1015D00080917A00846080937A0080917A008260A2
:1015E00080937A0080917A00816080937A00809164
:1015F0007A00806880937A001092C10061E089E0EF
:101600000E94D40061E08AE00E94D40061E08BE097
:101610000E94D40060E083E00E94D40060E082E099
:101620000E94D40060E084E00E94D40060E08EE07C
:101630000E94D4008AE691E090931D0180931C01E2
:10164000809169008C6080936900E99A8EE691E050
:1016500090931B0180931A018091690083608093AD
:101660006900E89A82E791E090931F0180931E0140
:1016700080919E02806180939E0289B180939B023B
:1016800080916D00806180936D008091680084601E
:1016900080936800E091B802F091B90282E0808303
:1016A000E091B402F091B5021082E091B602F0919F
:1016B000B7028FEC80831092C002E091BC02F091DF
:1016C000BD0286E08083E091BA02F091BB02808186
:1016D00080618083E091BA02F091BB0280818860D2
:1016E0008083E091BA02F091BB02808180688083A0
:1016F000E091BA02F091BB0280818F7D808380E708
:1017000092E00E94A50490E080E00E949D05C0E068
:10171000D0E080912F049091300490933404809312
:101720003304109237041092380410923904109246
:101730003A0410923B0410923C0410923D04109223
:101740003E0410923F041092400410924104109203
:10175000420480913604882309F4B1C08091350495
:101760008111ADC0E0913304F0913404309709F455
:10177000A6C080913B0490913C04A0913D04B0919F
:101780003E040196A11DB11D80933B0490933C043F
:10179000A0933D04B0933E0403A114A1828180FF75
:1017A0001EC08091370490913804A0913904B09103
:1017B0003A040196A11DB11D80933704909338041B
:1017C000A0933904B0933A0487859089A189B2899E
:1017D000892B8A2B8B2B41F4CF010E94FF0210939F
:1017E000340400933304BACF0E945E01E0913304C5
:1017F000F09134044380548065807680838494849F
:10180000A584B684C780D084E184F284DC01CB0156
:1018100088199909AA09BB098C159D05AE05BF0554
:10182000F0F287859089A189B289181619061A06DF
:101830001B065CF487859089A189B2890197A1096B
:10184000B1098787908BA18BB28B8789908DA18DF1
:10185000B28D0196A11DB11D878B908FA18FB28F84
:1018600083859485A585B685C780D084E184F2847C
:101870008C0D9D1DAE1DBF1D83879487A587B687E0
:101880004782508661867286038CF48DE02D3097F6
:1018900009F4A5CF099580913F0490914004A0914F
:1018A0004104B09142040196A11DB11D80933F04F3
:1018B00090934004A0934104B093420490CF2097AA
:1018C00009F427CF0E941402882309F422CF0E9432
:1018D00000001FCF85E493E00E9405048CE693E0AE
:1018E0000E94050483E993E00E9405048AEB93E0DB
:1018F0000E94050481EE93E00E94050488E094E0D4
:101900000C9405041F93FC0199278827BC01E894D7
:1019100011911032E9F3193010F01E30C8F31B3268
:1019200051F01D3249F4689406C00E94A90C610F61
:10193000711D811D911D119110531A30B0F33EF4A9
:1019400090958095709561957F4F8F4F9F4F1F9118
:101950000895592F482F372F262F660F771F881F7E
:10196000991F660F771F881F991F620F731F841FAF
:10197000951F660F771F881F991F089591110C946A
:10198000C70C803219F089508550C8F708959927FF
:1019900088270895052E97FB1EF400940E94E10C01
:1019A00057FD07D00E94200D07FC03D04EF40C9485
:1019B000E10C50954095309521953F4F4F4F5F4F2B
:1019C000089590958095709561957F4F8F4F9F4FAB
:1019D00008952F923F924F925F926F927F928F92D3
:1019E0009F92AF92BF92CF92DF92EF92FF920F93AE
:1019F0001F93CF93DF93CDB7DEB7CA1BDB0B0FB6B8
:101A0000F894DEBF0FBECDBF09942A883988488874
:101A10005F846E847D848C849B84AA84B984C8840A
:101A2000DF80EE80FD800C811B81AA81B981CE0F01
:101A3000D11D0FB6F894DEBF0FBECDBFED010895E6
:101A4000A1E21A2EAA1BBB1BFD010DC0AA1FBB1FC2
:101A5000EE1FFF1FA217B307E407F50720F0A21B34
:101A6000B30BE40BF50B661F771F881F991F1A94A1
:101A700069F760957095809590959B01AC01BD01CB
:101A8000CF010895A29FB001B39FC001A39F700D25
:101A9000811D1124911DB29F700D811D1124911D76
:101AA000089597FB072E16F4009407D077FD09D010
:101AB0000E946C0D07FC05D03EF4909581959F4FD8
:101AC0000895709561957F4F08950E94420DB7FF6C
:101AD0000895821B930B0895AA1BBB1B51E107C0FD
:101AE000AA1FBB1FA617B70710F0A61BB70B881FAE
:101AF000991F5A95A9F780959095BC01CD0108953D
:101B0000EE0FFF1F0590F491E02D09940F931F93A2
:101B1000CF93DF938230910510F482E090E0E09162
:101B20004504F091460430E020E0B0E0A0E03097BA
:101B300099F42115310509F44AC0281B390B2430CA
:101B40003105D8F58A819B816115710589F1FB0109
:101B500093838283FE0111C04081518102811381F0
:101B600048175907E0F04817590799F4109761F0A2
:101B700012960C93129713961C933296CF01DF9115
:101B8000CF911F910F91089500934504109346043F
:101B9000F4CF2115310551F04217530738F0A90150
:101BA000DB019A01BD01DF01F801C1CFEF01F9CFDF
:101BB0009093460480934504CDCFFE01E20FF31FBE
:101BC000819391932250310939832883D7CF209173
:101BD000430430914404232B41F420912601309199
:101BE0002701309344042093430420912401309131
:101BF00025012115310541F42DB73EB7409128014B
:101C000050912901241B350BE0914304F0914404C9
:101C1000E217F307A0F42E1B3F0B2817390778F0C3
:101C2000AC014E5F5F4F2417350748F04E0F5F1F22
:101C30005093440440934304819391939FCFF0E0E9
:101C4000E0E09CCFCF93DF930097E9F0FC0132975F
:101C500013821282A0914504B0914604ED0130E058
:101C600020E01097A1F420813181820F931F2091F1
:101C70004304309144042817390709F061C0F093F8
:101C80004404E0934304DF91CF910895EA01CE1715
:101C9000DF07E8F54A815B819E0141155105B1F7E7
:101CA000E901FB83EA8349915991C40FD51FEC17D1
:101CB000FD0761F4808191810296840F951FE901EF
:101CC00099838883828193819B838A83F0E0E0E01B
:101CD00012968D919C9113970097B9F52D913C9197
:101CE0001197CD010296820F931F209143043091EA
:101CF00044042817390739F6309751F510924604F5
:101D000010924504B0934404A0934304BCCFD38302
:101D1000C28340815181840F951FC817D90761F490
:101D20004E5F5F4F88819981480F591F51834083CF
:101D30008A819B81938382832115310509F0B0CF7D
:101D4000F0934604E09345049ECFFD01DC01C0CF33
:101D500013821282D7CFB0E0A0E0E1EBFEE00C945A
:101D6000EB0C8C01009751F4CB010E94860D8C0185
:101D7000C801CDB7DEB7E0E10C94070DFC01E60F1A
:101D8000F71F9C0122503109E217F30708F49DC0A8
:101D9000D901CD91DC911197C617D70798F0C530BE
:101DA000D10530F3CE0104978617970708F3C61BB9
:101DB000D70B2297C193D1936D937C93CF010E944F
:101DC000220ED6CF5B01AC1ABD0A4C018C0E9D1EB3
:101DD000A0914504B0914604512C412CF12CE12CEA
:101DE000109731F58091430490914404881599052A
:101DF00009F05CC04616570608F058C080912401CF
:101E000090912501009741F48DB79EB7409128012C
:101E100050912901841B950BE817F90708F055C06C
:101E2000F0934404E0934304F90171836083A0CFED
:101E30008D919C91119712966C90129713967C90AD
:101E40001397A815B90559F56C0142E0C40ED11CD1
:101E5000CA14DB0420F1AC014A195B09DA011296BD
:101E6000159780F06282738251834083D9016D930C
:101E70007C93E114F10471F0D7011396FC93EE9377
:101E8000129776CF22968C0F9D1FF9019183808344
:101E9000F301EFCFF0934604E093450469CF481671
:101EA000590608F42C017D01D3019ACFCB010E9481
:101EB000860D7C01009749F0AE01B8010E94680FC1
:101EC000C8010E94220E870153CF10E000E050CFDE
:101ED000FB01DC0102C001900D9241505040D8F747
:101EE0000895FC018191861721F08823D9F799275D
:101EF00008953197CF010895FB01DC018D91019088
:101F000080190110D9F3990B0895FB01DC010190B0
:101F10000D920020E1F7089510E0CDE5D0E004C077
:101F2000FE010E94800D2196CE35D107C9F7F894A5
:021F3000FFCFE1
:101F3200FFFFFF00D0070000F401000076017601E8
:101F420076017601760176017601770177017601D5
:101F5200D0070000000047048000000000000504D4
:101F62005E07000000004A027801A50197020802FC
:101F7200B401FA010D0A005245440059454C4C4F38
:101F82005700475245454E00475245454E5F424C29
:101F9200494E4B5F4F4E00475245454E5F424C49BA
:101FA2004E4B5F4F464600424C494E4B494E475FAF
:101FB200414C4C5F4F4E00424C494E4B494E475F9D
:101FC200414C4C5F4F4646004D4F44453A4E4F52AE
:101FD2004D414C004D4F44453A454D455247454EC3
:101FE200435900454D455247454E43595F5245447A
:101FF2005F4F4E004D4F44453A424C494E4B494E7D
:1020020047004D4F44453A4F464600416C6C5F4C89
:102012004544735F4F464600456D657267656E6362
:102022007920627574746F6E207072657373656463
:1020320000426C696E6B696E6720627574746F6EB4
:10204200207072657373656400546F67676C6520F6
:10205200627574746F6E207072657373656400428A
:1020620072696768746E6573733A20005245445F03
:102072004455524154494F4E3A0059454C4C4F57E2
:102082005F4455524154494F4E3A00475245454EDE
:102092005F4455524154494F4E3A004D4F4445001A
:1020A20054726166666963204C696768742053796B
:0E20B2007374656D2053746172746564000070
:00000001FF
