:100000000C945E000C9498090C9471090C94860071
:100010000C9486000C94170A0C9486000C948600AD
:100020000C9486000C9486000C9486000C94860038
:100030000C9486000C9486000C9486000C94860028
:100040000C9427090C9486000C94E5090C94BF09C4
:100050000C9486000C9486000C9486000C94860008
:100060000C9486000C9486000000000024002700F9
:100070002A0000000000250028002B0004040404CE
:100080000404040402020202020203030303030342
:10009000010204081020408001020408102001021F
:1000A00004081020000000080002010000030407FB
:1000B00000000000000000007D0AB30C11241FBEE8
:1000C000CFEFD8E0DEBFCDBF12E0A0E0B1E0ECECB6
:1000D000FFE102C005900D92AC33B107D9F724E0DF
:1000E000ACE3B2E001C01D92A232B207E1F710E02A
:1000F000CDE5D0E004C02197FE010E94CD0DCC35A6
:10010000D107C9F70E94040B0C94D90F0C9400007E
:100110008FEF90E090934502809344021092430247
:10012000109242021092410210924002089590E013
:10013000FC01EC55FF4F2491FC01E057FF4F349137
:10014000FC01E458FF4FE491EE23C9F0222339F07B
:10015000233001F1A8F4213019F1223029F1F0E027
:10016000EE0FFF1FEE58FF4FA591B4918FB7F89493
:10017000EC91611126C030953E233C938FBF0895CA
:100180002730A9F02830C9F0243049F78091800049
:100190008F7D03C0809180008F7780938000DFCFB8
:1001A00084B58F7784BDDBCF84B58F7DFBCF809105
:1001B000B0008F778093B000D2CF8091B0008F7D58
:1001C000F9CF3E2BDACFCF93DF9390E0FC01E057DD
:1001D000FF4F249184589F4FFC0184918823C9F0DC
:1001E00090E0880F991FFC01E859FF4FA591B49149
:1001F000FC01EE58FF4FC591D49161110DC09FB71E
:10020000F8948C91209582238C93888128232883CD
:100210009FBFDF91CF910895623051F49FB7F8945A
:100220003C91822F809583238C93E8812E2BEFCFF6
:100230008FB7F894EC912E2B2C938FBFEACF1F939E
:10024000CF93DF93182FEB0161E00E94E30020972A
:1002500039F460E0812FDF91CF911F910C949700CA
:10026000E12FF0E0EC55FF4FE491E33039F148F431
:10027000E130B9F0E230E9F0C038D10551F761E082
:10028000E9CFE73029F1E83059F1E430A9F780915E
:100290008000806280938000D0938B00C0938A009E
:1002A00004C084B5806884BDC7BDDF91CF911F9124
:1002B000089584B5806284BDC8BDF7CF8091800069
:1002C000806880938000D0938900C0938800EDCF30
:1002D0008091B00080688093B000C093B300E5CFF8
:1002E0008091B00080628093B000C093B400DDCFF5
:1002F0000F931F93CF93DF930091000110910101A1
:100300002091440230914502029FC001039F900D4D
:10031000129F900D1124CFEFD0E0BE010E949E0DE0
:1003200089E00E941F012091420230914302029F06
:10033000C001039F900D129F900D1124BE010E94D9
:100340009E0D8AE00E941F012091400230914102DF
:10035000029FC001039F900D129F900D1124BE01BA
:100360000E949E0D8BE0DF91CF911F910F910C9415
:100370001F012FB7F8946091580270915902809133
:100380005A0290915B022FBF089581E080934C0246
:10039000089581E080934902089581E080934802A6
:1003A000089508950895AF92BF92CF92DF92EF9291
:1003B000FF920F931F93CF93DF936C017B018B010F
:1003C000040F151FEB015E01AE18BF08C017D1075F
:1003D00059F06991D601ED91FC910190F081E02DE9
:1003E000C6010995892B79F7C501DF91CF911F913E
:1003F0000F91FF90EF90DF90CF90BF90AF90089556
:10040000FC01538D448D252F30E0842F90E0821B1A
:10041000930B541710F0CF96089501970895FC019F
:10042000918D828D981761F0A28DAE0FBF2FB11DF7
:100430005D968C91928D9F5F9F73928F90E008954F
:100440008FEF9FEF08950F931F930E94B901609360
:1004500064027093650280936602909367028CE554
:1004600092E00E940F0297FF1DC00E94B901009107
:100470006402109165022091660230916702601B50
:10048000710B820B930B009160021091610220911D
:100490006202309163026017710782079307F8F2D6
:1004A0008FEF9FEF1F910F910895FC01918D828D29
:1004B000981731F0828DE80FF11D858D90E0089539
:1004C0008FEF9FEF0895FC01918D228D892F90E091
:1004D000805C9F4F821B91098F73992708958CE54B
:1004E00092E00E94630221E0892B09F420E0822F30
:1004F000089580E090E0892B29F00E946F0281111D
:100500000C9400000895FC01A48DA80FB92FB11D13
:10051000A35ABF4F2C91848D90E001968F73992739
:10052000848FA689B7892C93A089B1898C91837017
:1005300080648C93938D848D981306C00288F38910
:10054000E02D80818F7D80830895EF92FF920F933D
:100550001F93CF93DF93EC0181E0888F9B8D8C8D6F
:1005600098131AC0E889F989808185FF15C09FB763
:10057000F894EE89FF896083E889F9898081837026
:10058000806480839FBF81E090E0DF91CF911F91D5
:100590000F91FF90EF900895F62E0B8D10E00F5FF6
:1005A0001F4F0F731127E02E8C8D8E110CC00FB6CC
:1005B00007FCFACFE889F989808185FFF5CFCE0164
:1005C0000E948302F1CFEB8DEC0FFD2FF11DE35A5A
:1005D000FF4FF0829FB7F8940B8FEA89FB898081E7
:1005E0008062CFCFCF93DF93EC01888D8823B9F061
:1005F000AA89BB89E889F9898C9185FD03C080812E
:1006000086FD0DC00FB607FCF7CF8C9185FFF2CFAA
:10061000808185FFEDCFCE010E948302E9CFDF917B
:10062000CF910895EF92FF921F93CF93DF93EC0148
:100630008A819A819E7F9A839A819D7F9A83182FBF
:10064000117080FF13C0EF8DF8A1309779F0ADA144
:10065000BEA11496ED90FC9015971596DC93CE9361
:1006600014970995EDA1FEA1F582E482812FDF9117
:10067000CF911F91FF90EF900895CF93DF93EC01FE
:100680004B835C836D837E838B819C81AD81BE8136
:100690008F839887A987BA870E94B9016B877C8767
:1006A0008D879E87DF91CF9108950F931F93CF93EE
:1006B000DF93FC01A5A1B6A1109709F448C0EC0195
:1006C000178A108E118E128E82818B7F8283058C09
:1006D000F68DE02D3097B9F18A8181FD34C01496F2
:1006E0000D911C9115971596DC93CE9314978A81E2
:1006F00082608A8309959A8180FB90F99A838A8126
:100700008D7F8A83EDA1FEA1158304838B819C815B
:10071000AD81BE818F839887A987BA870E94B9016E
:100720000F81188529853A85601B710B820B930B0D
:100730006B877C878D879E878A818170DF91CF91BF
:100740001F910F9108958A8181608A83DFCF80E0B5
:10075000F5CF0F93CF93DF93EC018CE291E0998377
:1007600088838A818E7F8A838A818D7F8A838A812A
:100770008B7F8A831B861C861D861E861B821C829D
:100780001D821E821F82188619861A861AA219A235
:100790001CA21BA21EA21DA21F8A188E198E1A8EC1
:1007A0003C8F2B8F1E8E1D8E18A21F8ECE010E9495
:1007B0003D038FEF9FEFDC018F87988BA98BBA8B5E
:1007C0008B8B9C8BAD8BBE8B8DA19EA1892BD9F47D
:1007D000109211048AE094E09EA38DA380910A04F4
:1007E00090910B04892BB9F4D0930B04C0930A04A5
:1007F0001AA219A21CA21BA2D0930D04C0930C0430
:1008000081E080931104002379F0CE01DF91CF9134
:100810000F910C945503E0910C04F0910D04FAA390
:10082000E9A3D4A3C3A3E6CFDF91CF910F9108959D
:10083000CF93DF93EC018CE291E0998388838A81E6
:1008400080FF03C0CE010E941203EDA1FEA13097EC
:1008500089F017821EA21DA2A9A1BAA18BA19CA1F9
:10086000109799F4009749F4118210821382128232
:1008700081E08783DF91CF910895DC0192961C92ED
:100880001E92919791838083F3CF009739F49496C9
:100890001C921E929397B383A283EACF94969C9363
:1008A0008E9393970BA0DCA1C02DBAA3A9A3E0CF90
:1008B000FC0101900020E9F73197AF01481B590B6B
:1008C000BC018CE592E00C94D3018F929F92AF9281
:1008D000BF920F931F93CF93DF93CDB7DEB7A1974E
:1008E0000FB6F894DEBF0FBECDBF19A2423008F498
:1008F0004AE08E010F5D1F4F842E912CB12CA12C4C
:10090000A50194010E946D0DE62FB901CA01EA30DC
:10091000F4F4E05DD801EE938D01232B242B252BDD
:1009200079F790E080E0109719F0CD010E9458040B
:10093000A1960FB6F894DEBF0FBECDBFDF91CF9169
:100940001F910F91BF90AF909F908F900895E95C99
:10095000E1CFCF93DF934AE00E946504EC0182E48B
:1009600091E00E9458048C0F9D1FDF91CF91089554
:10097000CF93DF930E945804EC0182E491E00E943F
:1009800058048C0F9D1FDF91CF91089580914602EE
:10099000909147028230910509F454C02CF40097DD
:1009A00059F0019771F108958330910509F46BC0F6
:1009B000049709F4AAC008958FEF90E09093450240
:1009C000809344021092430210924202109241021C
:1009D0001092400285E491E00E94B80440911E010B
:1009E00050911F01609120017091210183EE93E0ED
:1009F0000E943D0381E090E090934702809346027D
:100A0000089510924502109244028FEF90E0909367
:100A1000430280934202109241021092400289E404
:100A200091E00E94B8044091060150910701609145
:100A300008017091090183EE93E00E943D0382E07A
:100A400090E0DACF109245021092440210924302D5
:100A5000109242028FEF90E0909341028093400207
:100A600080E591E00E94B804409102015091030199
:100A7000609104017091050183EE93E00E943D03B3
:100A800083E090E0B9CF80913E021092450210922F
:100A900044021092430210924202882311F18FEF18
:100AA00090E0909341028093400280E591E00E94A3
:100AB000B80410923E0280913C0290913D02019652
:100AC00090933D0280933C0280913C0290913D02C4
:100AD00003979CF010923D0210923C0284E090E05B
:100AE0008BCF109241021092400286E591E00E9465
:100AF000B80481E080933E02E7CF46EA50E060E030
:100B000070E083EE93E00C943D0310924502109246
:100B100044028FEF90E09093430280934202109240
:100B200041021092400289E491E00E94B804409191
:100B3000060150910701609108017091090183EE4F
:100B400093E00E943D0310924702109246020895DE
:100B500080913F028823C9F08FEF90E09093450287
:100B60008093440290934302809342029093410207
:100B70008093400283E691E00E94B80480913F0296
:100B800091E0892780933F020895109245021092C8
:100B900044021092430210924202109241021092BB
:100BA000400286E591E0E8CFCF93DF93EC0183EE3E
:100BB00093E00E9412038CEB93E00E94120385E9FC
:100BC00093E00E941203C230D10521F1C330D10558
:100BD00041F1C130D10599F01092470210924602BE
:100BE00083EE93E00E94550383E791E00E94B804EE
:100BF000D0934B02C0934A02DF91CF9108958CEBC2
:100C000093E00E9455038FE791E00E94B80485E4C9
:100C100091E0ECCF85E993E00E9455038EE891E0E6
:100C2000E5CF1092450210924402109243021092B6
:100C3000420210924102109240028CE991E00E941F
:100C4000B80486E591E0D2CF80914C02882381F0F0
:100C500085EA91E00E94B80480914A0290914B028B
:100C6000019779F590E080E00E94D40510924C0243
:100C700080914902882381F08EEB91E00E94B804B4
:100C800080914A0290914B020297F1F490E080E04B
:100C90000E94D4051092490280914802882381F075
:100CA00086ED91E00E94B80480914A0290914B0237
:100CB000039769F490E080E00E94D4051092480206
:100CC000089581E090E0D0CF82E090E0E1CF83E032
:100CD00090E0F2CFCF92DF92EF92FF9280E4809388
:100CE0007C0080917A00806480937A0080917A0001
:100CF00086FDFCCFA0917800B09179002FEF30E015
:100D00000E94B20D2FEF33E040E050E00E94170D3B
:100D10008091000190910101B901681B790BCB0111
:100D200077FF03C0919581959109039764F1309302
:100D30000101209300018CEE91E00E945804C090C4
:100D40000001D09001010D2C000CEE08FF084AE0D4
:100D5000C701B601F7FE0DC06DE28CE592E00E947E
:100D6000A50266277727CB016C197D098E099F099B
:100D70004AE00E94650482E491E0FF90EF90DF90EA
:100D8000CF900C945804FF90EF90DF90CF9008958F
:100D9000FC0124813581232B39F421E0FB01808182
:100DA000882349F020E007C0808191810E94C90F0B
:100DB00021E0892BB9F7822F08950F931F93CF93CA
:100DC000DF93EC0188819981009759F02A813B815A
:100DD0002617370730F081E0DF91CF911F910F91F7
:100DE00008958B016F5F7F4F0E94F80E009759F0B6
:100DF000998388831B830A832C813D81232B59F798
:100E0000FC011082E8CF80E0E7CFCF93DF93EC01C5
:100E100088819981009711F00E946F0E19821882C3
:100E20001D821C821B821A82DF91CF910895CF937D
:100E3000DF93EC0170E060E00E94DD06811105C0E7
:100E4000CE01DF91CF910C9405071D821C8264E4D2
:100E500071E088819981DF91CF910C94D20F9F929C
:100E6000AF92BF92CF92DF92EF92FF920F931F93B8
:100E7000CF93DF93EC016B015A01790124173507F9
:100E800020F48B2D5901E42EF82E198218821B8232
:100E90001A821D821C82CE010E941707D601149669
:100EA0000D911C91A016B10658F5E016F10608F454
:100EB0008701D601ED91FC911197E00FF11F908011
:100EC0001082ED90FC90EA0CFB1CE114F10471F02F
:100ED000F70101900020E9F731975F01AE18BF08D4
:100EE000B501CE010E94DD06811117C0CE010E941E
:100EF0000507F60180819181080F191FD8019C9286
:100F0000CE01DF91CF911F910F91FF90EF90DF9075
:100F1000CF90BF90AF909F900895BD82AC82B701F3
:100F2000888199810E94D20FE4CFFC018081918158
:100F3000009711F00C946F0E0895CF93DF93EC019E
:100F40000E941804CE01DF91CF910C946F0EAF92E6
:100F5000BF92CF92DF92EF92FF920F931F93CF93A6
:100F6000DF93CDB7DEB762970FB6F894DEBF0FBE42
:100F7000CDBF8CE592E00E946302181619060CF0B2
:100F800094C01E861D86188A1F861A8A198ACE0169
:100F90000D960E9417070E94230209891A8997FD5E
:100FA0001CC08A309105C9F089831A820F5F1F4FD8
:100FB000B801CE010D960E94DD06882361F32D85D0
:100FC0003E8589899A89BE016F5F7F4F820F931F8B
:100FD0000E94D20F1A8B098BDECFCD84DE84C11420
:100FE000D10429F076010115110509F070C0898935
:100FF0009A89892B09F455C00D851E856AE370E036
:10100000C8010E94BE0F009709F44BC09C01201B31
:10101000310B8901121613060CF043C050E040E07A
:10102000BE01635F7F4FCE0107960E942F0729897B
:101030003A89A8014F5F5F4FBE01635F7F4FCE01CA
:1010400001960E942F0765E471E0CE0107960E9489
:10105000C806882309F475C089819A81009709F42C
:101060006CC00E94CF0C60931E0170931F0180938F
:1010700020019093210189EF91E00E945804609132
:101080001E0170911F0180912001909121010E9409
:10109000A904CE0101960E949507CE0107960E94F1
:1010A0009507CE010D960E94950762960FB6F894AB
:1010B000DEBF0FBECDBFDF91CF911F910F91FF908B
:1010C000EF90DF90CF90BF90AF90089575015701DA
:1010D0002FEFA21AB20AF7018081082E000C990B9B
:1010E0000E940B0D892B91F7015011090C0D1D1D4C
:1010F000F8018081082E000C990B0E940B0D892BA2
:1011000031F00E151F0518F001501109F1CFA8019B
:101110004F5F5F4F4E195F095A8B498BCE14DF0426
:1011200020F4B701C6010E94B50FED85FE858989BF
:101130009A89E80FF91F10825ACF60E070E0CB0166
:1011400092CF69E471E0CE0107960E94C806882319
:10115000F9F089819A810097B9F00E94CF0C6093D1
:10116000060170930701809308019093090187E0BD
:1011700092E00E94580460910601709107018091ED
:1011800008019091090183CF60E070E0CB01E7CFC7
:1011900060E571E0CE0107960E94C8068823F9F049
:1011A00089819A810097B9F00E94CF0C6093020167
:1011B00070930301809304019093050188E192E00C
:1011C0000E94580460910201709103018091040112
:1011D000909105015CCF60E070E0CB01E7CF68E261
:1011E00072E0CE0107960E94C806882309F451CF09
:1011F00068E771E0CE0101960E94C806882329F0B5
:1012000090E080E00E94D40544CF64E871E0CE0114
:1012100001960E94C806882319F081E090E0F2CF81
:1012200063E971E0CE0101960E94C806882319F097
:1012300082E090E0E7CF61EA71E0CE0101960E9482
:10124000C806882309F425CF83E090E0DBCF1F9206
:101250000F920FB60F9211242F933F938F939F936A
:10126000AF93BF938091580290915902A0915A0276
:10127000B0915B023091570223E0230F2D3758F5D0
:101280000196A11DB11D209357028093580290939F
:101290005902A0935A02B0935B028091530290913D
:1012A0005402A0915502B09156020196A11DB11DA4
:1012B0008093530290935402A0935502B093560228
:1012C000BF91AF919F918F913F912F910F900FBE42
:1012D0000F901F90189526E8230F0296A11DB11DAF
:1012E000D2CF1F920F920FB60F9211242F933F93DC
:1012F0004F935F936F937F938F939F93AF93BF931E
:10130000EF93FF93E0911A01F0911B010995FF9172
:10131000EF91BF91AF919F918F917F916F915F916D
:101320004F913F912F910F900FBE0F901F901895E6
:101330001F920F920FB60F9211242F933F934F934A
:101340005F936F937F938F939F93AF93BF93EF932D
:10135000FF93E0911801F09119010995FF91EF9128
:10136000BF91AF919F918F917F916F915F914F91BD
:101370003F912F910F900FBE0F901F9018951F92C5
:101380000F920FB60F9211242F933F934F935F93B9
:101390006F937F938F939F93AF93BF93EF93FF933D
:1013A0008CE592E00E948302FF91EF91BF91AF9193
:1013B0009F918F917F916F915F914F913F912F916D
:1013C0000F900FBE0F901F9018951F920F920FB69F
:1013D0000F9211242F938F939F93EF93FF93E0919C
:1013E0006C02F0916D028081E0917202F0917302C3
:1013F00082FD1BC09081809175028F5F8F73209159
:101400007602821741F0E0917502F0E0E45AFD4F58
:10141000958F80937502FF91EF919F918F912F91FE
:101420000F900FBE0F901F9018958081F4CF1F92E0
:101430000F920FB60F9211242F933F934F935F9308
:101440006F937F938F939F93AF93BF93CF93EF93BC
:10145000FF9399B1C0914F02C095809152028923A8
:10146000C82390934F02C4FF05C0E0911C01F09186
:101470001D010995C5FF05C0E0910A01F0910B011E
:101480000995C6FF05C0E0910C01F0910D01099589
:10149000C7FF05C0E0910E01F0910F010995C0FF53
:1014A00005C0E0911001F09111010995C1FF05C03F
:1014B000E0911201F09113010995C2FF05C0E0917E
:1014C0001401F09115010995C3FF05C0E0911601C3
:1014D000F09117010995FF91EF91CF91BF91AF91D5
:1014E0009F918F917F916F915F914F913F912F913C
:1014F0000F900FBE0F901F9018950F93ECE5F2E040
:101500001382128288EE93E0A0E0B0E0848395839A
:10151000A683B78384E391E09183808385EC90E098
:101520009587848784EC90E09787868780EC90E0AD
:10153000918B808B81EC90E0938B828B82EC90E09E
:10154000958B848B86EC90E0978B868B118E128E18
:10155000138E148EEAE0F4E0178211821082138257
:10156000128215821482168281E0878340911E01C7
:1015700050911F01609120017091210100E026EC43
:1015800034E083EE93E00E94A90328E830E044E6CB
:1015900050E060E070E08CEB93E00E94A90328EA41
:1015A00035E044EF51E060E070E085E993E00E94AF
:1015B000A90301E024E236E044E150E060E070E09D
:1015C0008EE693E00E94A9032AE636E044E150E06B
:1015D00060E070E087E493E00E94A90327EA37E027
:1015E00044E150E060E070E080E293E00E94A903F3
:1015F00028E731E044E150E060E070E089EF92E0FC
:101600000E94A9030F910895789484B5826084BDE7
:1016100084B5816084BD85B5826085BD85B58160F6
:1016200085BD80916E00816080936E001092810074
:10163000809181008260809381008091810081602F
:1016400080938100809180008160809380008091F0
:10165000B10084608093B1008091B000816080937C
:10166000B00080917A00846080937A0080917A0043
:10167000826080937A0080917A00816080937A0002
:1016800080917A00806880937A001092C10061E0B6
:1016900089E00E94E30061E08AE00E94E30061E0EB
:1016A0008BE00E94E30062E082E00E94E30062E0DF
:1016B00083E00E94E30062E084E00E94E30060E0D7
:1016C0008EE00E94E30085EC91E0909319018093F5
:1016D000180180916900836080936900E89A89EC21
:1016E00091E090931B0180931A01809169008C60B6
:1016F00080936900E99A8DEC91E090931D018093AD
:101700001C018091520280618093520289B18093C2
:101710004F0280916D00806180936D008091680020
:10172000846080936800E0916C02F0916D0282E029
:101730008083E0916802F09169021082E0916A0270
:10174000F0916B028FEC808310927402E091700232
:10175000F091710286E08083E0916E02F0916F0259
:10176000808180618083E0916E02F0916F028081C0
:1017700088608083E0916E02F0916F0280818068C2
:101780008083E0916E02F0916F0280818F7D808373
:101790008DE292E00E94B80490E080E00E94D405BF
:1017A000C0E0D0E080910A0490910B0490930F0464
:1017B00080930E04109212041092130410921404D9
:1017C0001092150410921604109217041092180427
:1017D0001092190410921A0410921B0410921C0407
:1017E00010921D0480911104882309F4B1C08091E6
:1017F00010048111ADC0E0910E04F0910F043097F8
:1018000009F4A6C08091160490911704A0911804C1
:10181000B09119040196A11DB11D809316049093F7
:101820001704A0931804B093190403A114A1828192
:1018300080FF1EC08091120490911304A0911404A3
:10184000B09115040196A11DB11D809312049093CF
:101850001304A0931404B093150487859089A1897B
:10186000B289892B8A2B8B2B41F4CF010E94120362
:1018700010930F0400930E04BACF0E94B901E091B7
:101880000E04F0910F044380548065807680838439
:101890009484A584B684C780D084E184F284DC017A
:1018A000CB0188199909AA09BB098C159D05AE05BC
:1018B000BF05F0F287859089A189B28918161906AB
:1018C0001A061B065CF487859089A189B289019765
:1018D000A109B1098787908BA18BB28B8789908DE5
:1018E000A18DB28D0196A11DB11D878B908FA18F07
:1018F000B28F83859485A585B685C780D084E18421
:10190000F2848C0D9D1DAE1DBF1D83879487A58716
:10191000B6874782508661867286038CF48DE02DEF
:10192000309709F4A5CF099580911A0490911B0472
:10193000A0911C04B0911D040196A11DB11D8093BE
:101940001A0490931B04A0931C04B0931D0490CF21
:10195000209709F427CF0E946F02882309F422CF31
:101960000E9400001FCF89EF92E00E94180480E2DD
:1019700093E00E94180487E493E00E9418048EE626
:1019800093E00E94180485E993E00E9418048CEB10
:1019900093E00E94180483EE93E00C9418041F93C4
:1019A000FC0199278827BC01E89411911032E9F3D2
:1019B000193010F01E30C8F31B3251F01D3249F4BB
:1019C000689406C00E94F60C610F711D811D911D67
:1019D000119110531A30B0F33EF4909580957095A4
:1019E00061957F4F8F4F9F4F1F910895592F482F1B
:1019F000372F262F660F771F881F991F660F771FB7
:101A0000881F991F620F731F841F951F660F771F12
:101A1000881F991F089591110C94140D803219F0AC
:101A200089508550C8F70895992788270895052E6D
:101A300097FB1EF400940E942E0D57FD07D00E94C4
:101A40006D0D07FC03D04EF40C942E0D509540956F
:101A5000309521953F4F4F4F5F4F0895909580955A
:101A6000709561957F4F8F4F9F4F08952F923F92B2
:101A70004F925F926F927F928F929F92AF92BF929E
:101A8000CF92DF92EF92FF920F931F93CF93DF934A
:101A9000CDB7DEB7CA1BDB0B0FB6F894DEBF0FBEA7
:101AA000CDBF09942A88398848885F846E847D84F4
:101AB0008C849B84AA84B984C884DF80EE80FD80F6
:101AC0000C811B81AA81B981CE0FD11D0FB6F8946C
:101AD000DEBF0FBECDBFED010895A1E21A2EAA1BF5
:101AE000BB1BFD010DC0AA1FBB1FEE1FFF1FA217CE
:101AF000B307E407F50720F0A21BB30BE40BF50BCB
:101B0000661F771F881F991F1A9469F76095709553
:101B1000809590959B01AC01BD01CF010895A29FD6
:101B2000B001B39FC001A39F700D811D1124911DB1
:101B3000B29F700D811D1124911D089597FB072EF2
:101B400016F4009407D077FD09D00E94B90D07FC68
:101B500005D03EF4909581959F4F089570956195BD
:101B60007F4F08950E948F0DB7FF0895821B930B3E
:101B70000895AA1BBB1B51E107C0AA1FBB1FA617D4
:101B8000B70710F0A61BB70B881F991F5A95A9F726
:101B900080959095BC01CD010895EE0FFF1F059033
:101BA000F491E02D09940F931F93CF93DF9382302C
:101BB000910510F482E090E0E0912004F09121047E
:101BC00030E020E0B0E0A0E0309799F42115310535
:101BD00009F44AC0281B390B24303105D8F58A8115
:101BE0009B816115710589F1FB0193838283FE015D
:101BF00011C0408151810281138148175907E0F0DB
:101C00004817590799F4109761F012960C931297A0
:101C100013961C933296CF01DF91CF911F910F91B4
:101C200008950093200410932104F4CF2115310569
:101C300051F04217530738F0A901DB019A01BD01A9
:101C4000DF01F801C1CFEF01F9CF90932104809318
:101C50002004CDCFFE01E20FF31F81939193225018
:101C6000310939832883D7CF20911E0430911F0476
:101C7000232B41F4209124013091250130931F043E
:101C800020931E042091220130912301211531055A
:101C900041F42DB73EB74091260150912701241BF6
:101CA000350BE0911E04F0911F04E217F307A0F436
:101CB0002E1B3F0B2817390778F0AC014E5F5F4FA2
:101CC0002417350748F04E0F5F1F50931F044093B1
:101CD0001E04819391939FCFF0E0E0E09CCFCF93DF
:101CE000DF930097E9F0FC01329713821282A091F2
:101CF0002004B0912104ED0130E020E01097A1F420
:101D000020813181820F931F20911E0430911F0486
:101D10002817390709F061C0F0931F04E0931E04EF
:101D2000DF91CF910895EA01CE17DF07E8F54A81E8
:101D30005B819E0141155105B1F7E901FB83EA83FF
:101D400049915991C40FD51FEC17FD0761F48081AB
:101D500091810296840F951FE9019983888382817E
:101D600093819B838A83F0E0E0E012968D919C91B1
:101D700013970097B9F52D913C911197CD010296DB
:101D8000820F931F20911E0430911F0428173907DA
:101D900039F6309751F51092210410922004B09337
:101DA0001F04A0931E04BCCFD383C2834081518102
:101DB000840F951FC817D90761F44E5F5F4F888164
:101DC0009981480F591F518340838A819B81938356
:101DD00082832115310509F0B0CFF0932104E093FF
:101DE00020049ECFFD01DC01C0CF13821282D7CF29
:101DF000B0E0A0E0EEEFFEE00C94380D8C0100970F
:101E000051F4CB010E94D30D8C01C801CDB7DEB7D0
:101E1000E0E10C94540DFC01E60FF71F9C012250E9
:101E20003109E217F30708F49DC0D901CD91DC9187
:101E30001197C617D70798F0C530D10530F3CE01FA
:101E400004978617970708F3C61BD70B2297C193F1
:101E5000D1936D937C93CF010E946F0ED6CF5B011F
:101E6000AC1ABD0A4C018C0E9D1EA0912004B091AD
:101E70002104512C412CF12CE12C109731F580914B
:101E80001E0490911F048815990509F05CC0461640
:101E9000570608F058C080912201909123010097C5
:101EA00041F48DB79EB74091260150912701841BC4
:101EB000950BE817F90708F055C0F0931F04E0935D
:101EC0001E04F90171836083A0CF8D919C911197BD
:101ED00012966C90129713967C901397A815B905DB
:101EE00059F56C0142E0C40ED11CCA14DB0420F188
:101EF000AC014A195B09DA011296159780F06282EB
:101F0000738251834083D9016D937C93E114F10472
:101F100071F0D7011396FC93EE93129776CF229629
:101F20008C0F9D1FF90191838083F301EFCFF09314
:101F30002104E093200469CF4816590608F42C01C7
:101F40007D01D3019ACFCB010E94D30D7C01009774
:101F500049F0AE01B8010E94B50FC8010E946F0E92
:101F6000870153CF10E000E050CFFB01DC0102C03D
:101F700001900D9241505040D8F70895FC01819195
:101F8000861721F08823D9F7992708953197CF0133
:101F90000895FB01DC018D91019080190110D9F3A6
:101FA000990B0895FB01DC0101900D920020E1F7EF
:101FB000089510E0CDE5D0E004C0FE010E94CD0DF3
:0C1FC0002196CE35D107C9F7F894FFCF69
:101FCC00FF00D0070000F4010000D101D101D101C4
:101FDC00D101D101D101D101D201D201D101D0075E
:101FEC0000000000220480000000000018049D077F
:101FFC0000000000A502D3010002F20263020F02EE
:10200C0055020D0A005245440059454C4C4F57009F
:10201C00475245454E00414C4C5F4C4544735F4F15
:10202C00464600424C494E4B494E475F414C4C5F33
:10203C004F4E004D4F44453A4E4F524D414C004D82
:10204C004F44453A454D455247454E4359004D4F37
:10205C0044453A424C494E4B494E47004D4F44453E
:10206C003A4F464600456D657267656E637920622E
:10207C007574746F6E207072657373656400426C56
:10208C00696E6B696E6720627574746F6E20707206
:10209C00657373656400546F67676C652062757453
:1020AC00746F6E2070726573736564004272696739
:1020BC0068746E6573733A20005245445F44555200
:1020CC004154494F4E3A0059454C4C4F575F44557B
:1020DC00524154494F4E3A00475245454E5F445584
:1020EC00524154494F4E3A004D4F4445005365728E
:0C20FC0069616C2073746172746564008B
:00000001FF
